{
  "contractName": "UserRegistration",
  "abi": [
    {
      "inputs": [],
      "stateMutability": "nonpayable",
      "type": "constructor"
    },
    {
      "anonymous": false,
      "inputs": [
        {
          "indexed": true,
          "internalType": "address",
          "name": "owner",
          "type": "address"
        },
        {
          "indexed": true,
          "internalType": "address",
          "name": "approved",
          "type": "address"
        },
        {
          "indexed": true,
          "internalType": "uint256",
          "name": "tokenId",
          "type": "uint256"
        }
      ],
      "name": "Approval",
      "type": "event"
    },
    {
      "anonymous": false,
      "inputs": [
        {
          "indexed": true,
          "internalType": "address",
          "name": "owner",
          "type": "address"
        },
        {
          "indexed": true,
          "internalType": "address",
          "name": "operator",
          "type": "address"
        },
        {
          "indexed": false,
          "internalType": "bool",
          "name": "approved",
          "type": "bool"
        }
      ],
      "name": "ApprovalForAll",
      "type": "event"
    },
    {
      "anonymous": false,
      "inputs": [
        {
          "indexed": false,
          "internalType": "uint256",
          "name": "_fromTokenId",
          "type": "uint256"
        },
        {
          "indexed": false,
          "internalType": "uint256",
          "name": "_toTokenId",
          "type": "uint256"
        }
      ],
      "name": "BatchMetadataUpdate",
      "type": "event"
    },
    {
      "anonymous": false,
      "inputs": [
        {
          "indexed": false,
          "internalType": "uint256",
          "name": "_tokenId",
          "type": "uint256"
        }
      ],
      "name": "MetadataUpdate",
      "type": "event"
    },
    {
      "anonymous": false,
      "inputs": [
        {
          "indexed": true,
          "internalType": "address",
          "name": "to",
          "type": "address"
        },
        {
          "indexed": true,
          "internalType": "uint256",
          "name": "tokenId",
          "type": "uint256"
        },
        {
          "indexed": false,
          "internalType": "string",
          "name": "uri",
          "type": "string"
        }
      ],
      "name": "Minted",
      "type": "event"
    },
    {
      "anonymous": false,
      "inputs": [
        {
          "indexed": true,
          "internalType": "address",
          "name": "from",
          "type": "address"
        },
        {
          "indexed": true,
          "internalType": "address",
          "name": "to",
          "type": "address"
        },
        {
          "indexed": true,
          "internalType": "uint256",
          "name": "tokenId",
          "type": "uint256"
        }
      ],
      "name": "Transfer",
      "type": "event"
    },
    {
      "anonymous": false,
      "inputs": [
        {
          "indexed": true,
          "internalType": "address",
          "name": "userAddress",
          "type": "address"
        },
        {
          "indexed": false,
          "internalType": "string",
          "name": "name",
          "type": "string"
        },
        {
          "indexed": false,
          "internalType": "string",
          "name": "email",
          "type": "string"
        },
        {
          "indexed": false,
          "internalType": "string",
          "name": "phone",
          "type": "string"
        },
        {
          "indexed": false,
          "internalType": "string",
          "name": "addressuser",
          "type": "string"
        },
        {
          "indexed": false,
          "internalType": "uint256",
          "name": "pincode",
          "type": "uint256"
        }
      ],
      "name": "UserRegistered",
      "type": "event"
    },
    {
      "inputs": [
        {
          "internalType": "address",
          "name": "",
          "type": "address"
        }
      ],
      "name": "admin",
      "outputs": [
        {
          "internalType": "address",
          "name": "metamask_address",
          "type": "address"
        },
        {
          "internalType": "string",
          "name": "role",
          "type": "string"
        }
      ],
      "stateMutability": "view",
      "type": "function",
      "constant": true
    },
    {
      "inputs": [
        {
          "internalType": "address",
          "name": "to",
          "type": "address"
        },
        {
          "internalType": "uint256",
          "name": "tokenId",
          "type": "uint256"
        }
      ],
      "name": "approve",
      "outputs": [],
      "stateMutability": "nonpayable",
      "type": "function"
    },
    {
      "inputs": [
        {
          "internalType": "address",
          "name": "owner",
          "type": "address"
        }
      ],
      "name": "balanceOf",
      "outputs": [
        {
          "internalType": "uint256",
          "name": "",
          "type": "uint256"
        }
      ],
      "stateMutability": "view",
      "type": "function",
      "constant": true
    },
    {
      "inputs": [
        {
          "internalType": "uint256",
          "name": "tokenId",
          "type": "uint256"
        }
      ],
      "name": "getApproved",
      "outputs": [
        {
          "internalType": "address",
          "name": "",
          "type": "address"
        }
      ],
      "stateMutability": "view",
      "type": "function",
      "constant": true
    },
    {
      "inputs": [
        {
          "internalType": "address",
          "name": "owner",
          "type": "address"
        },
        {
          "internalType": "address",
          "name": "operator",
          "type": "address"
        }
      ],
      "name": "isApprovedForAll",
      "outputs": [
        {
          "internalType": "bool",
          "name": "",
          "type": "bool"
        }
      ],
      "stateMutability": "view",
      "type": "function",
      "constant": true
    },
    {
      "inputs": [],
      "name": "name",
      "outputs": [
        {
          "internalType": "string",
          "name": "",
          "type": "string"
        }
      ],
      "stateMutability": "view",
      "type": "function",
      "constant": true
    },
    {
      "inputs": [
        {
          "internalType": "uint256",
          "name": "tokenId",
          "type": "uint256"
        }
      ],
      "name": "ownerOf",
      "outputs": [
        {
          "internalType": "address",
          "name": "",
          "type": "address"
        }
      ],
      "stateMutability": "view",
      "type": "function",
      "constant": true
    },
    {
      "inputs": [
        {
          "internalType": "address",
          "name": "from",
          "type": "address"
        },
        {
          "internalType": "address",
          "name": "to",
          "type": "address"
        },
        {
          "internalType": "uint256",
          "name": "tokenId",
          "type": "uint256"
        }
      ],
      "name": "safeTransferFrom",
      "outputs": [],
      "stateMutability": "nonpayable",
      "type": "function"
    },
    {
      "inputs": [
        {
          "internalType": "address",
          "name": "from",
          "type": "address"
        },
        {
          "internalType": "address",
          "name": "to",
          "type": "address"
        },
        {
          "internalType": "uint256",
          "name": "tokenId",
          "type": "uint256"
        },
        {
          "internalType": "bytes",
          "name": "data",
          "type": "bytes"
        }
      ],
      "name": "safeTransferFrom",
      "outputs": [],
      "stateMutability": "nonpayable",
      "type": "function"
    },
    {
      "inputs": [
        {
          "internalType": "address",
          "name": "operator",
          "type": "address"
        },
        {
          "internalType": "bool",
          "name": "approved",
          "type": "bool"
        }
      ],
      "name": "setApprovalForAll",
      "outputs": [],
      "stateMutability": "nonpayable",
      "type": "function"
    },
    {
      "inputs": [
        {
          "internalType": "bytes4",
          "name": "interfaceId",
          "type": "bytes4"
        }
      ],
      "name": "supportsInterface",
      "outputs": [
        {
          "internalType": "bool",
          "name": "",
          "type": "bool"
        }
      ],
      "stateMutability": "view",
      "type": "function",
      "constant": true
    },
    {
      "inputs": [],
      "name": "symbol",
      "outputs": [
        {
          "internalType": "string",
          "name": "",
          "type": "string"
        }
      ],
      "stateMutability": "view",
      "type": "function",
      "constant": true
    },
    {
      "inputs": [
        {
          "internalType": "uint256",
          "name": "tokenId",
          "type": "uint256"
        }
      ],
      "name": "tokenURI",
      "outputs": [
        {
          "internalType": "string",
          "name": "",
          "type": "string"
        }
      ],
      "stateMutability": "view",
      "type": "function",
      "constant": true
    },
    {
      "inputs": [
        {
          "internalType": "address",
          "name": "from",
          "type": "address"
        },
        {
          "internalType": "address",
          "name": "to",
          "type": "address"
        },
        {
          "internalType": "uint256",
          "name": "tokenId",
          "type": "uint256"
        }
      ],
      "name": "transferFrom",
      "outputs": [],
      "stateMutability": "nonpayable",
      "type": "function"
    },
    {
      "inputs": [
        {
          "internalType": "address",
          "name": "",
          "type": "address"
        }
      ],
      "name": "users",
      "outputs": [
        {
          "internalType": "string",
          "name": "name",
          "type": "string"
        },
        {
          "internalType": "string",
          "name": "email",
          "type": "string"
        },
        {
          "internalType": "string",
          "name": "phone",
          "type": "string"
        },
        {
          "internalType": "string",
          "name": "addressuser",
          "type": "string"
        },
        {
          "internalType": "uint256",
          "name": "pincode",
          "type": "uint256"
        },
        {
          "internalType": "string",
          "name": "role",
          "type": "string"
        },
        {
          "internalType": "bool",
          "name": "isRegistered",
          "type": "bool"
        }
      ],
      "stateMutability": "view",
      "type": "function",
      "constant": true
    },
    {
      "inputs": [
        {
          "internalType": "address",
          "name": "_to",
          "type": "address"
        },
        {
          "internalType": "string",
          "name": "_uri",
          "type": "string"
        }
      ],
      "name": "mint",
      "outputs": [],
      "stateMutability": "nonpayable",
      "type": "function"
    },
    {
      "inputs": [],
      "name": "getToken",
      "outputs": [
        {
          "internalType": "uint256",
          "name": "",
          "type": "uint256"
        }
      ],
      "stateMutability": "view",
      "type": "function",
      "constant": true
    },
    {
      "inputs": [
        {
          "internalType": "string",
          "name": "_name",
          "type": "string"
        },
        {
          "internalType": "string",
          "name": "_email",
          "type": "string"
        },
        {
          "internalType": "string",
          "name": "_phone",
          "type": "string"
        },
        {
          "internalType": "string",
          "name": "_addressuser",
          "type": "string"
        },
        {
          "internalType": "uint256",
          "name": "_pincode",
          "type": "uint256"
        }
      ],
      "name": "registerUser",
      "outputs": [],
      "stateMutability": "nonpayable",
      "type": "function"
    },
    {
      "inputs": [
        {
          "internalType": "address",
          "name": "_addressuser",
          "type": "address"
        }
      ],
      "name": "registerAdmin",
      "outputs": [],
      "stateMutability": "nonpayable",
      "type": "function"
    },
    {
      "inputs": [
        {
          "internalType": "address",
          "name": "useraddr",
          "type": "address"
        }
      ],
      "name": "getUserDetails",
      "outputs": [
        {
          "internalType": "string",
          "name": "",
          "type": "string"
        },
        {
          "internalType": "string",
          "name": "",
          "type": "string"
        },
        {
          "internalType": "string",
          "name": "",
          "type": "string"
        },
        {
          "internalType": "string",
          "name": "",
          "type": "string"
        },
        {
          "internalType": "uint256",
          "name": "",
          "type": "uint256"
        }
      ],
      "stateMutability": "view",
      "type": "function",
      "constant": true
    },
    {
      "inputs": [
        {
          "internalType": "address",
          "name": "useraddr",
          "type": "address"
        }
      ],
      "name": "getUserBoolean",
      "outputs": [
        {
          "internalType": "bool",
          "name": "",
          "type": "bool"
        }
      ],
      "stateMutability": "view",
      "type": "function",
      "constant": true
    },
    {
      "inputs": [
        {
          "internalType": "address",
          "name": "useraddr",
          "type": "address"
        }
      ],
      "name": "getUserRole",
      "outputs": [
        {
          "internalType": "string",
          "name": "",
          "type": "string"
        }
      ],
      "stateMutability": "view",
      "type": "function",
      "constant": true
    }
  ],
  "bytecode": "0x60806040526040518060200160405280600060ff16815250600a90600162000029929190620000d8565b503480156200003757600080fd5b506040518060400160405280600c81526020017f50726f70657274794974656d00000000000000000000000000000000000000008152506040518060400160405280600281526020017f50490000000000000000000000000000000000000000000000000000000000008152508160009081620000b59190620003c8565b508060019081620000c79190620003c8565b5050506000600981905550620004af565b8280548282559060005260206000209081019282156200011c579160200282015b828111156200011b578251829060ff16905591602001919060010190620000f9565b5b5090506200012b91906200012f565b5090565b5b808211156200014a57600081600090555060010162000130565b5090565b600081519050919050565b7f4e487b7100000000000000000000000000000000000000000000000000000000600052604160045260246000fd5b7f4e487b7100000000000000000000000000000000000000000000000000000000600052602260045260246000fd5b60006002820490506001821680620001d057607f821691505b602082108103620001e657620001e562000188565b5b50919050565b60008190508160005260206000209050919050565b60006020601f8301049050919050565b600082821b905092915050565b600060088302620002507fffffffffffffffffffffffffffffffffffffffffffffffffffffffffffffffff8262000211565b6200025c868362000211565b95508019841693508086168417925050509392505050565b6000819050919050565b6000819050919050565b6000620002a9620002a36200029d8462000274565b6200027e565b62000274565b9050919050565b6000819050919050565b620002c58362000288565b620002dd620002d482620002b0565b8484546200021e565b825550505050565b600090565b620002f4620002e5565b62000301818484620002ba565b505050565b5b8181101562000329576200031d600082620002ea565b60018101905062000307565b5050565b601f82111562000378576200034281620001ec565b6200034d8462000201565b810160208510156200035d578190505b620003756200036c8562000201565b83018262000306565b50505b505050565b600082821c905092915050565b60006200039d600019846008026200037d565b1980831691505092915050565b6000620003b883836200038a565b9150826002028217905092915050565b620003d3826200014e565b67ffffffffffffffff811115620003ef57620003ee62000159565b5b620003fb8254620001b7565b620004088282856200032d565b600060209050601f8311600181146200044057600084156200042b578287015190505b620004378582620003aa565b865550620004a7565b601f1984166200045086620001ec565b60005b828110156200047a5784890151825560018201915060208501945060208101905062000453565b868310156200049a578489015162000496601f8916826200038a565b8355505b6001600288020188555050505b505050505050565b613bf780620004bf6000396000f3fe608060405234801561001057600080fd5b50600436106101425760003560e01c806363a846f8116100b8578063b88d4fde1161007c578063b88d4fde146103b4578063c38c5813146103d0578063c87b56dd146103ec578063cc3d967b1461041c578063d0def52114610450578063e985e9c51461046c57610142565b806363a846f8146102e357806370a082311461031457806395d89b4114610344578063a22cb46514610362578063a87430ba1461037e57610142565b806321df0da71161010a57806321df0da7146101fd57806323b872dd1461021b578063278208511461023757806342842e0e1461026757806346ed7e17146102835780636352211e146102b357610142565b806301ffc9a71461014757806306fdde0314610177578063081812fc14610195578063095ea7b3146101c55780630c89338a146101e1575b600080fd5b610161600480360381019061015c91906126c8565b61049c565b60405161016e9190612710565b60405180910390f35b61017f6104fd565b60405161018c91906127bb565b60405180910390f35b6101af60048036038101906101aa9190612813565b61058f565b6040516101bc9190612881565b60405180910390f35b6101df60048036038101906101da91906128c8565b6105d5565b005b6101fb60048036038101906101f69190612a3d565b6106ec565b005b6102056108d2565b6040516102129190612b37565b60405180910390f35b61023560048036038101906102309190612b52565b610909565b005b610251600480360381019061024c9190612ba5565b610969565b60405161025e91906127bb565b60405180910390f35b610281600480360381019061027c9190612b52565b610a3d565b005b61029d60048036038101906102989190612ba5565b610a5d565b6040516102aa9190612710565b60405180910390f35b6102cd60048036038101906102c89190612813565b610ab6565b6040516102da9190612881565b60405180910390f35b6102fd60048036038101906102f89190612ba5565b610b3c565b60405161030b929190612bd2565b60405180910390f35b61032e60048036038101906103299190612ba5565b610c08565b60405161033b9190612b37565b60405180910390f35b61034c610cbf565b60405161035991906127bb565b60405180910390f35b61037c60048036038101906103779190612c2e565b610d51565b005b61039860048036038101906103939190612ba5565b610d67565b6040516103ab9796959493929190612c6e565b60405180910390f35b6103ce60048036038101906103c99190612da1565b61105e565b005b6103ea60048036038101906103e59190612ba5565b6110c0565b005b61040660048036038101906104019190612813565b6111de565b60405161041391906127bb565b60405180910390f35b61043660048036038101906104319190612ba5565b6112f0565b604051610447959493929190612e24565b60405180910390f35b61046a60048036038101906104659190612ef3565b6115e4565b005b61048660048036038101906104819190612f53565b611685565b6040516104939190612710565b60405180910390f35b6000634906490660e01b7bffffffffffffffffffffffffffffffffffffffffffffffffffffffff1916827bffffffffffffffffffffffffffffffffffffffffffffffffffffffff191614806104f657506104f582611719565b5b9050919050565b60606000805461050c90612fc2565b80601f016020809104026020016040519081016040528092919081815260200182805461053890612fc2565b80156105855780601f1061055a57610100808354040283529160200191610585565b820191906000526020600020905b81548152906001019060200180831161056857829003601f168201915b5050505050905090565b600061059a826117fb565b6004600083815260200190815260200160002060009054906101000a900473ffffffffffffffffffffffffffffffffffffffff169050919050565b60006105e082610ab6565b90508073ffffffffffffffffffffffffffffffffffffffff168373ffffffffffffffffffffffffffffffffffffffff1603610650576040517f08c379a000000000000000000000000000000000000000000000000000000000815260040161064790613065565b60405180910390fd5b8073ffffffffffffffffffffffffffffffffffffffff1661066f611846565b73ffffffffffffffffffffffffffffffffffffffff16148061069e575061069d81610698611846565b611685565b5b6106dd576040517f08c379a00000000000000000000000000000000000000000000000000000000081526004016106d4906130f7565b60405180910390fd5b6106e7838361184e565b505050565b600760003373ffffffffffffffffffffffffffffffffffffffff1673ffffffffffffffffffffffffffffffffffffffff16815260200190815260200160002060060160009054906101000a900460ff161561077c576040517f08c379a000000000000000000000000000000000000000000000000000000000815260040161077390613163565b60405180910390fd5b6000600760003373ffffffffffffffffffffffffffffffffffffffff1673ffffffffffffffffffffffffffffffffffffffff1681526020019081526020016000209050858160000190816107d0919061332f565b50848160010190816107e2919061332f565b50838160020190816107f4919061332f565b5082816003019081610806919061332f565b508181600401819055506040518060400160405280600481526020017f7573657200000000000000000000000000000000000000000000000000000000815250816005019081610856919061332f565b5060018160060160006101000a81548160ff0219169083151502179055503373ffffffffffffffffffffffffffffffffffffffff167fc05e06a7662af94624e0bab99f7e2f85920e9e6386cc11bf027304240776565487878787876040516108c2959493929190612e24565b60405180910390a2505050505050565b6000600a6001600a805490506108e89190613430565b815481106108f9576108f8613464565b5b9060005260206000200154905090565b61091a610914611846565b82611907565b610959576040517f08c379a000000000000000000000000000000000000000000000000000000000815260040161095090613505565b60405180910390fd5b61096483838361199c565b505050565b6060600760008373ffffffffffffffffffffffffffffffffffffffff1673ffffffffffffffffffffffffffffffffffffffff16815260200190815260200160002060050180546109b890612fc2565b80601f01602080910402602001604051908101604052809291908181526020018280546109e490612fc2565b8015610a315780601f10610a0657610100808354040283529160200191610a31565b820191906000526020600020905b815481529060010190602001808311610a1457829003601f168201915b50505050509050919050565b610a588383836040518060200160405280600081525061105e565b505050565b6000600760008373ffffffffffffffffffffffffffffffffffffffff1673ffffffffffffffffffffffffffffffffffffffff16815260200190815260200160002060060160009054906101000a900460ff169050919050565b600080610ac283611c95565b9050600073ffffffffffffffffffffffffffffffffffffffff168173ffffffffffffffffffffffffffffffffffffffff1603610b33576040517f08c379a0000000000000000000000000000000000000000000000000000000008152600401610b2a90613571565b60405180910390fd5b80915050919050565b60086020528060005260406000206000915090508060000160009054906101000a900473ffffffffffffffffffffffffffffffffffffffff1690806001018054610b8590612fc2565b80601f0160208091040260200160405190810160405280929190818152602001828054610bb190612fc2565b8015610bfe5780601f10610bd357610100808354040283529160200191610bfe565b820191906000526020600020905b815481529060010190602001808311610be157829003601f168201915b5050505050905082565b60008073ffffffffffffffffffffffffffffffffffffffff168273ffffffffffffffffffffffffffffffffffffffff1603610c78576040517f08c379a0000000000000000000000000000000000000000000000000000000008152600401610c6f90613603565b60405180910390fd5b600360008373ffffffffffffffffffffffffffffffffffffffff1673ffffffffffffffffffffffffffffffffffffffff168152602001908152602001600020549050919050565b606060018054610cce90612fc2565b80601f0160208091040260200160405190810160405280929190818152602001828054610cfa90612fc2565b8015610d475780601f10610d1c57610100808354040283529160200191610d47565b820191906000526020600020905b815481529060010190602001808311610d2a57829003601f168201915b5050505050905090565b610d63610d5c611846565b8383611cd2565b5050565b6007602052806000526040600020600091509050806000018054610d8a90612fc2565b80601f0160208091040260200160405190810160405280929190818152602001828054610db690612fc2565b8015610e035780601f10610dd857610100808354040283529160200191610e03565b820191906000526020600020905b815481529060010190602001808311610de657829003601f168201915b505050505090806001018054610e1890612fc2565b80601f0160208091040260200160405190810160405280929190818152602001828054610e4490612fc2565b8015610e915780601f10610e6657610100808354040283529160200191610e91565b820191906000526020600020905b815481529060010190602001808311610e7457829003601f168201915b505050505090806002018054610ea690612fc2565b80601f0160208091040260200160405190810160405280929190818152602001828054610ed290612fc2565b8015610f1f5780601f10610ef457610100808354040283529160200191610f1f565b820191906000526020600020905b815481529060010190602001808311610f0257829003601f168201915b505050505090806003018054610f3490612fc2565b80601f0160208091040260200160405190810160405280929190818152602001828054610f6090612fc2565b8015610fad5780601f10610f8257610100808354040283529160200191610fad565b820191906000526020600020905b815481529060010190602001808311610f9057829003601f168201915b505050505090806004015490806005018054610fc890612fc2565b80601f0160208091040260200160405190810160405280929190818152602001828054610ff490612fc2565b80156110415780601f1061101657610100808354040283529160200191611041565b820191906000526020600020905b81548152906001019060200180831161102457829003601f168201915b5050505050908060060160009054906101000a900460ff16905087565b61106f611069611846565b83611907565b6110ae576040517f08c379a00000000000000000000000000000000000000000000000000000000081526004016110a590613505565b60405180910390fd5b6110ba84848484611e3e565b50505050565b600760003373ffffffffffffffffffffffffffffffffffffffff1673ffffffffffffffffffffffffffffffffffffffff16815260200190815260200160002060060160009054906101000a900460ff1615611150576040517f08c379a000000000000000000000000000000000000000000000000000000000815260040161114790613163565b60405180910390fd5b6000600860008373ffffffffffffffffffffffffffffffffffffffff1673ffffffffffffffffffffffffffffffffffffffff16815260200190815260200160002090506040518060400160405280600581526020017f61646d696e0000000000000000000000000000000000000000000000000000008152508160010190816111d9919061332f565b505050565b60606111e9826117fb565b600060066000848152602001908152602001600020805461120990612fc2565b80601f016020809104026020016040519081016040528092919081815260200182805461123590612fc2565b80156112825780601f1061125757610100808354040283529160200191611282565b820191906000526020600020905b81548152906001019060200180831161126557829003601f168201915b505050505090506000611293611e9a565b905060008151036112a85781925050506112eb565b6000825111156112dd5780826040516020016112c592919061365f565b604051602081830303815290604052925050506112eb565b6112e684611eb1565b925050505b919050565b606080606080600080600760008873ffffffffffffffffffffffffffffffffffffffff1673ffffffffffffffffffffffffffffffffffffffff16815260200190815260200160002090508060060160009054906101000a900460ff1661138b576040517f08c379a0000000000000000000000000000000000000000000000000000000008152600401611382906136cf565b60405180910390fd5b8060000181600101826002018360030184600401548480546113ac90612fc2565b80601f01602080910402602001604051908101604052809291908181526020018280546113d890612fc2565b80156114255780601f106113fa57610100808354040283529160200191611425565b820191906000526020600020905b81548152906001019060200180831161140857829003601f168201915b5050505050945083805461143890612fc2565b80601f016020809104026020016040519081016040528092919081815260200182805461146490612fc2565b80156114b15780601f10611486576101008083540402835291602001916114b1565b820191906000526020600020905b81548152906001019060200180831161149457829003601f168201915b505050505093508280546114c490612fc2565b80601f01602080910402602001604051908101604052809291908181526020018280546114f090612fc2565b801561153d5780601f106115125761010080835404028352916020019161153d565b820191906000526020600020905b81548152906001019060200180831161152057829003601f168201915b5050505050925081805461155090612fc2565b80601f016020809104026020016040519081016040528092919081815260200182805461157c90612fc2565b80156115c95780601f1061159e576101008083540402835291602001916115c9565b820191906000526020600020905b8154815290600101906020018083116115ac57829003601f168201915b50505050509150955095509550955095505091939590929450565b60016009546115f391906136ef565b60098190555061160583600954611f19565b61165560095483838080601f016020809104026020016040519081016040528093929190818152602001838380828437600081840152601f19601f82011690508083019250505050505050612136565b600a6009549080600181540180825580915050600190039060005260206000200160009091909190915055505050565b6000600560008473ffffffffffffffffffffffffffffffffffffffff1673ffffffffffffffffffffffffffffffffffffffff16815260200190815260200160002060008373ffffffffffffffffffffffffffffffffffffffff1673ffffffffffffffffffffffffffffffffffffffff16815260200190815260200160002060009054906101000a900460ff16905092915050565b60007f80ac58cd000000000000000000000000000000000000000000000000000000007bffffffffffffffffffffffffffffffffffffffffffffffffffffffff1916827bffffffffffffffffffffffffffffffffffffffffffffffffffffffff191614806117e457507f5b5e139f000000000000000000000000000000000000000000000000000000007bffffffffffffffffffffffffffffffffffffffffffffffffffffffff1916827bffffffffffffffffffffffffffffffffffffffffffffffffffffffff1916145b806117f457506117f3826121da565b5b9050919050565b61180481612244565b611843576040517f08c379a000000000000000000000000000000000000000000000000000000000815260040161183a90613571565b60405180910390fd5b50565b600033905090565b816004600083815260200190815260200160002060006101000a81548173ffffffffffffffffffffffffffffffffffffffff021916908373ffffffffffffffffffffffffffffffffffffffff160217905550808273ffffffffffffffffffffffffffffffffffffffff166118c183610ab6565b73ffffffffffffffffffffffffffffffffffffffff167f8c5be1e5ebec7d5bd14f71427d1e84f3dd0314c0f7b2291e5b200ac8c7c3b92560405160405180910390a45050565b60008061191383610ab6565b90508073ffffffffffffffffffffffffffffffffffffffff168473ffffffffffffffffffffffffffffffffffffffff16148061195557506119548185611685565b5b8061199357508373ffffffffffffffffffffffffffffffffffffffff1661197b8461058f565b73ffffffffffffffffffffffffffffffffffffffff16145b91505092915050565b8273ffffffffffffffffffffffffffffffffffffffff166119bc82610ab6565b73ffffffffffffffffffffffffffffffffffffffff1614611a12576040517f08c379a0000000000000000000000000000000000000000000000000000000008152600401611a0990613795565b60405180910390fd5b600073ffffffffffffffffffffffffffffffffffffffff168273ffffffffffffffffffffffffffffffffffffffff1603611a81576040517f08c379a0000000000000000000000000000000000000000000000000000000008152600401611a7890613827565b60405180910390fd5b611a8e8383836001612285565b8273ffffffffffffffffffffffffffffffffffffffff16611aae82610ab6565b73ffffffffffffffffffffffffffffffffffffffff1614611b04576040517f08c379a0000000000000000000000000000000000000000000000000000000008152600401611afb90613795565b60405180910390fd5b6004600082815260200190815260200160002060006101000a81549073ffffffffffffffffffffffffffffffffffffffff02191690556001600360008573ffffffffffffffffffffffffffffffffffffffff1673ffffffffffffffffffffffffffffffffffffffff168152602001908152602001600020600082825403925050819055506001600360008473ffffffffffffffffffffffffffffffffffffffff1673ffffffffffffffffffffffffffffffffffffffff16815260200190815260200160002060008282540192505081905550816002600083815260200190815260200160002060006101000a81548173ffffffffffffffffffffffffffffffffffffffff021916908373ffffffffffffffffffffffffffffffffffffffff160217905550808273ffffffffffffffffffffffffffffffffffffffff168473ffffffffffffffffffffffffffffffffffffffff167fddf252ad1be2c89b69c2b068fc378daa952ba7f163c4a11628f55a4df523b3ef60405160405180910390a4611c90838383600161228b565b505050565b60006002600083815260200190815260200160002060009054906101000a900473ffffffffffffffffffffffffffffffffffffffff169050919050565b8173ffffffffffffffffffffffffffffffffffffffff168373ffffffffffffffffffffffffffffffffffffffff1603611d40576040517f08c379a0000000000000000000000000000000000000000000000000000000008152600401611d3790613893565b60405180910390fd5b80600560008573ffffffffffffffffffffffffffffffffffffffff1673ffffffffffffffffffffffffffffffffffffffff16815260200190815260200160002060008473ffffffffffffffffffffffffffffffffffffffff1673ffffffffffffffffffffffffffffffffffffffff16815260200190815260200160002060006101000a81548160ff0219169083151502179055508173ffffffffffffffffffffffffffffffffffffffff168373ffffffffffffffffffffffffffffffffffffffff167f17307eab39ab6107e8899845ad3d59bd9653f200f220920489ca2b5937696c3183604051611e319190612710565b60405180910390a3505050565b611e4984848461199c565b611e5584848484612291565b611e94576040517f08c379a0000000000000000000000000000000000000000000000000000000008152600401611e8b90613925565b60405180910390fd5b50505050565b606060405180602001604052806000815250905090565b6060611ebc826117fb565b6000611ec6611e9a565b90506000815111611ee65760405180602001604052806000815250611f11565b80611ef084612418565b604051602001611f0192919061365f565b6040516020818303038152906040525b915050919050565b600073ffffffffffffffffffffffffffffffffffffffff168273ffffffffffffffffffffffffffffffffffffffff1603611f88576040517f08c379a0000000000000000000000000000000000000000000000000000000008152600401611f7f90613991565b60405180910390fd5b611f9181612244565b15611fd1576040517f08c379a0000000000000000000000000000000000000000000000000000000008152600401611fc8906139fd565b60405180910390fd5b611fdf600083836001612285565b611fe881612244565b15612028576040517f08c379a000000000000000000000000000000000000000000000000000000000815260040161201f906139fd565b60405180910390fd5b6001600360008473ffffffffffffffffffffffffffffffffffffffff1673ffffffffffffffffffffffffffffffffffffffff16815260200190815260200160002060008282540192505081905550816002600083815260200190815260200160002060006101000a81548173ffffffffffffffffffffffffffffffffffffffff021916908373ffffffffffffffffffffffffffffffffffffffff160217905550808273ffffffffffffffffffffffffffffffffffffffff16600073ffffffffffffffffffffffffffffffffffffffff167fddf252ad1be2c89b69c2b068fc378daa952ba7f163c4a11628f55a4df523b3ef60405160405180910390a461213260008383600161228b565b5050565b61213f82612244565b61217e576040517f08c379a000000000000000000000000000000000000000000000000000000000815260040161217590613a8f565b60405180910390fd5b8060066000848152602001908152602001600020908161219e919061332f565b507ff8e1a15aba9398e019f0b49df1a4fde98ee17ae345cb5f6b5e2c27f5033e8ce7826040516121ce9190612b37565b60405180910390a15050565b60007f01ffc9a7000000000000000000000000000000000000000000000000000000007bffffffffffffffffffffffffffffffffffffffffffffffffffffffff1916827bffffffffffffffffffffffffffffffffffffffffffffffffffffffff1916149050919050565b60008073ffffffffffffffffffffffffffffffffffffffff1661226683611c95565b73ffffffffffffffffffffffffffffffffffffffff1614159050919050565b50505050565b50505050565b60006122b28473ffffffffffffffffffffffffffffffffffffffff166124e6565b1561240b578373ffffffffffffffffffffffffffffffffffffffff1663150b7a026122db611846565b8786866040518563ffffffff1660e01b81526004016122fd9493929190613b04565b6020604051808303816000875af192505050801561233957506040513d601f19601f820116820180604052508101906123369190613b65565b60015b6123bb573d8060008114612369576040519150601f19603f3d011682016040523d82523d6000602084013e61236e565b606091505b5060008151036123b3576040517f08c379a00000000000000000000000000000000000000000000000000000000081526004016123aa90613925565b60405180910390fd5b805181602001fd5b63150b7a0260e01b7bffffffffffffffffffffffffffffffffffffffffffffffffffffffff1916817bffffffffffffffffffffffffffffffffffffffffffffffffffffffff191614915050612410565b600190505b949350505050565b60606000600161242784612509565b01905060008167ffffffffffffffff81111561244657612445612912565b5b6040519080825280601f01601f1916602001820160405280156124785781602001600182028036833780820191505090505b509050600082602001820190505b6001156124db578080600190039150507f3031323334353637383961626364656600000000000000000000000000000000600a86061a8153600a85816124cf576124ce613b92565b5b04945060008503612486575b819350505050919050565b6000808273ffffffffffffffffffffffffffffffffffffffff163b119050919050565b600080600090507a184f03e93ff9f4daa797ed6e38ed64bf6a1f0100000000000000008310612567577a184f03e93ff9f4daa797ed6e38ed64bf6a1f010000000000000000838161255d5761255c613b92565b5b0492506040810190505b6d04ee2d6d415b85acef810000000083106125a4576d04ee2d6d415b85acef8100000000838161259a57612599613b92565b5b0492506020810190505b662386f26fc1000083106125d357662386f26fc1000083816125c9576125c8613b92565b5b0492506010810190505b6305f5e10083106125fc576305f5e10083816125f2576125f1613b92565b5b0492506008810190505b612710831061262157612710838161261757612616613b92565b5b0492506004810190505b60648310612644576064838161263a57612639613b92565b5b0492506002810190505b600a8310612653576001810190505b80915050919050565b6000604051905090565b600080fd5b600080fd5b60007fffffffff0000000000000000000000000000000000000000000000000000000082169050919050565b6126a581612670565b81146126b057600080fd5b50565b6000813590506126c28161269c565b92915050565b6000602082840312156126de576126dd612666565b5b60006126ec848285016126b3565b91505092915050565b60008115159050919050565b61270a816126f5565b82525050565b60006020820190506127256000830184612701565b92915050565b600081519050919050565b600082825260208201905092915050565b60005b8381101561276557808201518184015260208101905061274a565b60008484015250505050565b6000601f19601f8301169050919050565b600061278d8261272b565b6127978185612736565b93506127a7818560208601612747565b6127b081612771565b840191505092915050565b600060208201905081810360008301526127d58184612782565b905092915050565b6000819050919050565b6127f0816127dd565b81146127fb57600080fd5b50565b60008135905061280d816127e7565b92915050565b60006020828403121561282957612828612666565b5b6000612837848285016127fe565b91505092915050565b600073ffffffffffffffffffffffffffffffffffffffff82169050919050565b600061286b82612840565b9050919050565b61287b81612860565b82525050565b60006020820190506128966000830184612872565b92915050565b6128a581612860565b81146128b057600080fd5b50565b6000813590506128c28161289c565b92915050565b600080604083850312156128df576128de612666565b5b60006128ed858286016128b3565b92505060206128fe858286016127fe565b9150509250929050565b600080fd5b600080fd5b7f4e487b7100000000000000000000000000000000000000000000000000000000600052604160045260246000fd5b61294a82612771565b810181811067ffffffffffffffff8211171561296957612968612912565b5b80604052505050565b600061297c61265c565b90506129888282612941565b919050565b600067ffffffffffffffff8211156129a8576129a7612912565b5b6129b182612771565b9050602081019050919050565b82818337600083830152505050565b60006129e06129db8461298d565b612972565b9050828152602081018484840111156129fc576129fb61290d565b5b612a078482856129be565b509392505050565b600082601f830112612a2457612a23612908565b5b8135612a348482602086016129cd565b91505092915050565b600080600080600060a08688031215612a5957612a58612666565b5b600086013567ffffffffffffffff811115612a7757612a7661266b565b5b612a8388828901612a0f565b955050602086013567ffffffffffffffff811115612aa457612aa361266b565b5b612ab088828901612a0f565b945050604086013567ffffffffffffffff811115612ad157612ad061266b565b5b612add88828901612a0f565b935050606086013567ffffffffffffffff811115612afe57612afd61266b565b5b612b0a88828901612a0f565b9250506080612b1b888289016127fe565b9150509295509295909350565b612b31816127dd565b82525050565b6000602082019050612b4c6000830184612b28565b92915050565b600080600060608486031215612b6b57612b6a612666565b5b6000612b79868287016128b3565b9350506020612b8a868287016128b3565b9250506040612b9b868287016127fe565b9150509250925092565b600060208284031215612bbb57612bba612666565b5b6000612bc9848285016128b3565b91505092915050565b6000604082019050612be76000830185612872565b8181036020830152612bf98184612782565b90509392505050565b612c0b816126f5565b8114612c1657600080fd5b50565b600081359050612c2881612c02565b92915050565b60008060408385031215612c4557612c44612666565b5b6000612c53858286016128b3565b9250506020612c6485828601612c19565b9150509250929050565b600060e0820190508181036000830152612c88818a612782565b90508181036020830152612c9c8189612782565b90508181036040830152612cb08188612782565b90508181036060830152612cc48187612782565b9050612cd36080830186612b28565b81810360a0830152612ce58185612782565b9050612cf460c0830184612701565b98975050505050505050565b600067ffffffffffffffff821115612d1b57612d1a612912565b5b612d2482612771565b9050602081019050919050565b6000612d44612d3f84612d00565b612972565b905082815260208101848484011115612d6057612d5f61290d565b5b612d6b8482856129be565b509392505050565b600082601f830112612d8857612d87612908565b5b8135612d98848260208601612d31565b91505092915050565b60008060008060808587031215612dbb57612dba612666565b5b6000612dc9878288016128b3565b9450506020612dda878288016128b3565b9350506040612deb878288016127fe565b925050606085013567ffffffffffffffff811115612e0c57612e0b61266b565b5b612e1887828801612d73565b91505092959194509250565b600060a0820190508181036000830152612e3e8188612782565b90508181036020830152612e528187612782565b90508181036040830152612e668186612782565b90508181036060830152612e7a8185612782565b9050612e896080830184612b28565b9695505050505050565b600080fd5b600080fd5b60008083601f840112612eb357612eb2612908565b5b8235905067ffffffffffffffff811115612ed057612ecf612e93565b5b602083019150836001820283011115612eec57612eeb612e98565b5b9250929050565b600080600060408486031215612f0c57612f0b612666565b5b6000612f1a868287016128b3565b935050602084013567ffffffffffffffff811115612f3b57612f3a61266b565b5b612f4786828701612e9d565b92509250509250925092565b60008060408385031215612f6a57612f69612666565b5b6000612f78858286016128b3565b9250506020612f89858286016128b3565b9150509250929050565b7f4e487b7100000000000000000000000000000000000000000000000000000000600052602260045260246000fd5b60006002820490506001821680612fda57607f821691505b602082108103612fed57612fec612f93565b5b50919050565b7f4552433732313a20617070726f76616c20746f2063757272656e74206f776e6560008201527f7200000000000000000000000000000000000000000000000000000000000000602082015250565b600061304f602183612736565b915061305a82612ff3565b604082019050919050565b6000602082019050818103600083015261307e81613042565b9050919050565b7f4552433732313a20617070726f76652063616c6c6572206973206e6f7420746f60008201527f6b656e206f776e6572206f7220617070726f76656420666f7220616c6c000000602082015250565b60006130e1603d83612736565b91506130ec82613085565b604082019050919050565b60006020820190508181036000830152613110816130d4565b9050919050565b7f5573657220697320616c72656164792072656769737465726564000000000000600082015250565b600061314d601a83612736565b915061315882613117565b602082019050919050565b6000602082019050818103600083015261317c81613140565b9050919050565b60008190508160005260206000209050919050565b60006020601f8301049050919050565b600082821b905092915050565b6000600883026131e57fffffffffffffffffffffffffffffffffffffffffffffffffffffffffffffffff826131a8565b6131ef86836131a8565b95508019841693508086168417925050509392505050565b6000819050919050565b600061322c613227613222846127dd565b613207565b6127dd565b9050919050565b6000819050919050565b61324683613211565b61325a61325282613233565b8484546131b5565b825550505050565b600090565b61326f613262565b61327a81848461323d565b505050565b5b8181101561329e57613293600082613267565b600181019050613280565b5050565b601f8211156132e3576132b481613183565b6132bd84613198565b810160208510156132cc578190505b6132e06132d885613198565b83018261327f565b50505b505050565b600082821c905092915050565b6000613306600019846008026132e8565b1980831691505092915050565b600061331f83836132f5565b9150826002028217905092915050565b6133388261272b565b67ffffffffffffffff81111561335157613350612912565b5b61335b8254612fc2565b6133668282856132a2565b600060209050601f8311600181146133995760008415613387578287015190505b6133918582613313565b8655506133f9565b601f1984166133a786613183565b60005b828110156133cf578489015182556001820191506020850194506020810190506133aa565b868310156133ec57848901516133e8601f8916826132f5565b8355505b6001600288020188555050505b505050505050565b7f4e487b7100000000000000000000000000000000000000000000000000000000600052601160045260246000fd5b600061343b826127dd565b9150613446836127dd565b925082820390508181111561345e5761345d613401565b5b92915050565b7f4e487b7100000000000000000000000000000000000000000000000000000000600052603260045260246000fd5b7f4552433732313a2063616c6c6572206973206e6f7420746f6b656e206f776e6560008201527f72206f7220617070726f76656400000000000000000000000000000000000000602082015250565b60006134ef602d83612736565b91506134fa82613493565b604082019050919050565b6000602082019050818103600083015261351e816134e2565b9050919050565b7f4552433732313a20696e76616c696420746f6b656e2049440000000000000000600082015250565b600061355b601883612736565b915061356682613525565b602082019050919050565b6000602082019050818103600083015261358a8161354e565b9050919050565b7f4552433732313a2061646472657373207a65726f206973206e6f74206120766160008201527f6c6964206f776e65720000000000000000000000000000000000000000000000602082015250565b60006135ed602983612736565b91506135f882613591565b604082019050919050565b6000602082019050818103600083015261361c816135e0565b9050919050565b600081905092915050565b60006136398261272b565b6136438185613623565b9350613653818560208601612747565b80840191505092915050565b600061366b828561362e565b9150613677828461362e565b91508190509392505050565b7f55736572206973206e6f74207265676973746572656400000000000000000000600082015250565b60006136b9601683612736565b91506136c482613683565b602082019050919050565b600060208201905081810360008301526136e8816136ac565b9050919050565b60006136fa826127dd565b9150613705836127dd565b925082820190508082111561371d5761371c613401565b5b92915050565b7f4552433732313a207472616e736665722066726f6d20696e636f72726563742060008201527f6f776e6572000000000000000000000000000000000000000000000000000000602082015250565b600061377f602583612736565b915061378a82613723565b604082019050919050565b600060208201905081810360008301526137ae81613772565b9050919050565b7f4552433732313a207472616e7366657220746f20746865207a65726f2061646460008201527f7265737300000000000000000000000000000000000000000000000000000000602082015250565b6000613811602483612736565b915061381c826137b5565b604082019050919050565b6000602082019050818103600083015261384081613804565b9050919050565b7f4552433732313a20617070726f766520746f2063616c6c657200000000000000600082015250565b600061387d601983612736565b915061388882613847565b602082019050919050565b600060208201905081810360008301526138ac81613870565b9050919050565b7f4552433732313a207472616e7366657220746f206e6f6e20455243373231526560008201527f63656976657220696d706c656d656e7465720000000000000000000000000000602082015250565b600061390f603283612736565b915061391a826138b3565b604082019050919050565b6000602082019050818103600083015261393e81613902565b9050919050565b7f4552433732313a206d696e7420746f20746865207a65726f2061646472657373600082015250565b600061397b602083612736565b915061398682613945565b602082019050919050565b600060208201905081810360008301526139aa8161396e565b9050919050565b7f4552433732313a20746f6b656e20616c7265616479206d696e74656400000000600082015250565b60006139e7601c83612736565b91506139f2826139b1565b602082019050919050565b60006020820190508181036000830152613a16816139da565b9050919050565b7f45524337323155524953746f726167653a2055524920736574206f66206e6f6e60008201527f6578697374656e7420746f6b656e000000000000000000000000000000000000602082015250565b6000613a79602e83612736565b9150613a8482613a1d565b604082019050919050565b60006020820190508181036000830152613aa881613a6c565b9050919050565b600081519050919050565b600082825260208201905092915050565b6000613ad682613aaf565b613ae08185613aba565b9350613af0818560208601612747565b613af981612771565b840191505092915050565b6000608082019050613b196000830187612872565b613b266020830186612872565b613b336040830185612b28565b8181036060830152613b458184613acb565b905095945050505050565b600081519050613b5f8161269c565b92915050565b600060208284031215613b7b57613b7a612666565b5b6000613b8984828501613b50565b91505092915050565b7f4e487b7100000000000000000000000000000000000000000000000000000000600052601260045260246000fdfea26469706673582212202ecd39500dd24e38da57f27d90186f7ff50e828f4a1c6f49584b76d3c97d915d64736f6c63430008130033",
  "immutableReferences": {},
  "source": "// SPDX-License-Identifier: MIT\r\npragma solidity 0.8.19;\r\nimport \"@openzeppelin/contracts/token/ERC721/extensions/ERC721URIStorage.sol\";\r\n\r\ncontract UserRegistration is ERC721URIStorage {\r\n    struct User {\r\n        string name;\r\n        string email;\r\n        string phone;\r\n        string addressuser;\r\n        uint256 pincode;\r\n        string role;\r\n        bool isRegistered;\r\n    }\r\n\r\n    struct Admin {\r\n        address metamask_address;\r\n        string role;\r\n    }\r\n\r\n    mapping(address => User) public users;\r\n    mapping(address => Admin) public admin;\r\n\r\n    event UserRegistered(\r\n        address indexed userAddress,\r\n        string name,\r\n        string email,\r\n        string phone,\r\n        string addressuser,\r\n        uint256 pincode\r\n    );\r\n    event Minted(address indexed to, uint256 indexed tokenId, string uri);\r\n\r\n    modifier notRegistered() {\r\n        require(!users[msg.sender].isRegistered, \"User is already registered\");\r\n        _;\r\n    }\r\n\r\n    uint256 tokenId;\r\n    uint[] tokenArray = [0];\r\n\r\n    constructor() ERC721(\"PropertyItem\", \"PI\") {\r\n        tokenId = 0;\r\n    }\r\n\r\n    function mint(address _to, string calldata _uri) external {\r\n        //returns (uint256)\r\n        tokenId = tokenId + 1;\r\n        _mint(_to, tokenId);\r\n        _setTokenURI(tokenId, _uri);\r\n        tokenArray.push(tokenId);\r\n        // return tokenId;\r\n    }\r\n\r\n    function getToken() public view returns (uint256) {\r\n        return tokenArray[tokenArray.length - 1];\r\n    }\r\n\r\n    function registerUser(\r\n        string memory _name,\r\n        string memory _email,\r\n        string memory _phone,\r\n        string memory _addressuser,\r\n        uint256 _pincode\r\n    ) external notRegistered {\r\n        // Perform additional validation if needed\r\n\r\n        // Create a new user\r\n        User storage newUser = users[msg.sender];\r\n        newUser.name = _name;\r\n        newUser.email = _email;\r\n        newUser.phone = _phone;\r\n        newUser.addressuser = _addressuser;\r\n        newUser.pincode = _pincode;\r\n        newUser.role = \"user\";\r\n        newUser.isRegistered = true;\r\n\r\n        emit UserRegistered(\r\n            msg.sender,\r\n            _name,\r\n            _email,\r\n            _phone,\r\n            _addressuser,\r\n            _pincode\r\n        );\r\n    }\r\n\r\n    function registerAdmin(address _addressuser) external notRegistered {\r\n        // Perform additional validation if needed\r\n\r\n        // Create a new user\r\n        Admin storage newAdmin = admin[_addressuser];\r\n        newAdmin.role = \"admin\";\r\n    }\r\n\r\n    function getUserDetails(\r\n        address useraddr\r\n    )\r\n        external\r\n        view\r\n        returns (\r\n            string memory,\r\n            string memory,\r\n            string memory,\r\n            string memory,\r\n            uint256\r\n        )\r\n    {\r\n        User storage user = users[useraddr];\r\n        require(user.isRegistered, \"User is not registered\");\r\n\r\n        return (\r\n            user.name,\r\n            user.email,\r\n            user.phone,\r\n            user.addressuser,\r\n            user.pincode\r\n        );\r\n    }\r\n\r\n    function getUserBoolean(address useraddr) external view returns (bool) {\r\n        return users[useraddr].isRegistered;\r\n    }\r\n\r\n    function getUserRole(\r\n        address useraddr\r\n    ) external view returns (string memory) {\r\n        return users[useraddr].role;\r\n    }\r\n}\r\n",
  "sourcePath": "C:\\Users\\USER\\Documents\\vscode\\TSEC_Hackathon\\contracts\\User.sol",
  "compiler": {
    "name": "solc",
    "version": "0.8.19+commit.7dd6d404.Emscripten.clang"
  },
  "schemaVersion": "3.4.13",
  "updatedAt": "2024-01-31T18:11:17.566Z",
  "networkType": "ethereum",
  "devdoc": {
    "events": {
      "Approval(address,address,uint256)": {
        "details": "Emitted when `owner` enables `approved` to manage the `tokenId` token."
      },
      "ApprovalForAll(address,address,bool)": {
        "details": "Emitted when `owner` enables or disables (`approved`) `operator` to manage all of its assets."
      },
      "BatchMetadataUpdate(uint256,uint256)": {
        "details": "This event emits when the metadata of a range of tokens is changed. So that the third-party platforms such as NFT market could timely update the images and related attributes of the NFTs."
      },
      "MetadataUpdate(uint256)": {
        "details": "This event emits when the metadata of a token is changed. So that the third-party platforms such as NFT market could timely update the images and related attributes of the NFT."
      },
      "Transfer(address,address,uint256)": {
        "details": "Emitted when `tokenId` token is transferred from `from` to `to`."
      }
    },
    "kind": "dev",
    "methods": {
      "approve(address,uint256)": {
        "details": "See {IERC721-approve}."
      },
      "balanceOf(address)": {
        "details": "See {IERC721-balanceOf}."
      },
      "getApproved(uint256)": {
        "details": "See {IERC721-getApproved}."
      },
      "isApprovedForAll(address,address)": {
        "details": "See {IERC721-isApprovedForAll}."
      },
      "name()": {
        "details": "See {IERC721Metadata-name}."
      },
      "ownerOf(uint256)": {
        "details": "See {IERC721-ownerOf}."
      },
      "safeTransferFrom(address,address,uint256)": {
        "details": "See {IERC721-safeTransferFrom}."
      },
      "safeTransferFrom(address,address,uint256,bytes)": {
        "details": "See {IERC721-safeTransferFrom}."
      },
      "setApprovalForAll(address,bool)": {
        "details": "See {IERC721-setApprovalForAll}."
      },
      "supportsInterface(bytes4)": {
        "details": "See {IERC165-supportsInterface}"
      },
      "symbol()": {
        "details": "See {IERC721Metadata-symbol}."
      },
      "tokenURI(uint256)": {
        "details": "See {IERC721Metadata-tokenURI}."
      },
      "transferFrom(address,address,uint256)": {
        "details": "See {IERC721-transferFrom}."
      }
    },
    "version": 1
  },
  "userdoc": {
    "kind": "user",
    "methods": {},
    "version": 1
  }
}