{
  "contractName": "UserRegistration",
  "abi": [
    {
      "anonymous": false,
      "inputs": [
        {
          "indexed": true,
          "internalType": "address",
          "name": "userAddress",
          "type": "address"
        },
        {
          "indexed": false,
          "internalType": "string",
          "name": "name",
          "type": "string"
        },
        {
          "indexed": false,
          "internalType": "string",
          "name": "email",
          "type": "string"
        },
        {
          "indexed": false,
          "internalType": "string",
          "name": "phone",
          "type": "string"
        },
        {
          "indexed": false,
          "internalType": "string",
          "name": "addressuser",
          "type": "string"
        },
        {
          "indexed": false,
          "internalType": "uint256",
          "name": "pincode",
          "type": "uint256"
        }
      ],
      "name": "UserRegistered",
      "type": "event"
    },
    {
      "inputs": [
        {
          "internalType": "address",
          "name": "",
          "type": "address"
        }
      ],
      "name": "admin",
      "outputs": [
        {
          "internalType": "address",
          "name": "metamask_address",
          "type": "address"
        },
        {
          "internalType": "string",
          "name": "role",
          "type": "string"
        }
      ],
      "stateMutability": "view",
      "type": "function",
      "constant": true
    },
    {
      "inputs": [
        {
          "internalType": "address",
          "name": "",
          "type": "address"
        }
      ],
      "name": "users",
      "outputs": [
        {
          "internalType": "string",
          "name": "name",
          "type": "string"
        },
        {
          "internalType": "string",
          "name": "email",
          "type": "string"
        },
        {
          "internalType": "string",
          "name": "phone",
          "type": "string"
        },
        {
          "internalType": "string",
          "name": "addressuser",
          "type": "string"
        },
        {
          "internalType": "uint256",
          "name": "pincode",
          "type": "uint256"
        },
        {
          "internalType": "string",
          "name": "role",
          "type": "string"
        },
        {
          "internalType": "bool",
          "name": "isRegistered",
          "type": "bool"
        }
      ],
      "stateMutability": "view",
      "type": "function",
      "constant": true
    },
    {
      "inputs": [
        {
          "internalType": "string",
          "name": "_name",
          "type": "string"
        },
        {
          "internalType": "string",
          "name": "_email",
          "type": "string"
        },
        {
          "internalType": "string",
          "name": "_phone",
          "type": "string"
        },
        {
          "internalType": "string",
          "name": "_addressuser",
          "type": "string"
        },
        {
          "internalType": "uint256",
          "name": "_pincode",
          "type": "uint256"
        }
      ],
      "name": "registerUser",
      "outputs": [],
      "stateMutability": "nonpayable",
      "type": "function"
    },
    {
      "inputs": [
        {
          "internalType": "address",
          "name": "_addressuser",
          "type": "address"
        }
      ],
      "name": "registerAdmin",
      "outputs": [],
      "stateMutability": "nonpayable",
      "type": "function"
    },
    {
      "inputs": [
        {
          "internalType": "address",
          "name": "useraddr",
          "type": "address"
        }
      ],
      "name": "getUserDetails",
      "outputs": [
        {
          "internalType": "string",
          "name": "",
          "type": "string"
        },
        {
          "internalType": "string",
          "name": "",
          "type": "string"
        },
        {
          "internalType": "string",
          "name": "",
          "type": "string"
        },
        {
          "internalType": "string",
          "name": "",
          "type": "string"
        },
        {
          "internalType": "uint256",
          "name": "",
          "type": "uint256"
        }
      ],
      "stateMutability": "view",
      "type": "function",
      "constant": true
    },
    {
      "inputs": [
        {
          "internalType": "address",
          "name": "useraddr",
          "type": "address"
        }
      ],
      "name": "getUserBoolean",
      "outputs": [
        {
          "internalType": "bool",
          "name": "",
          "type": "bool"
        }
      ],
      "stateMutability": "view",
      "type": "function",
      "constant": true
    },
    {
      "inputs": [
        {
          "internalType": "address",
          "name": "useraddr",
          "type": "address"
        }
      ],
      "name": "getUserRole",
      "outputs": [
        {
          "internalType": "string",
          "name": "",
          "type": "string"
        }
      ],
      "stateMutability": "view",
      "type": "function",
      "constant": true
    }
  ],
  "bytecode": "0x608060405234801561001057600080fd5b506115af806100206000396000f3fe608060405234801561001057600080fd5b506004361061007d5760003560e01c806363a846f81161005b57806363a846f8146100fe578063a87430ba1461012f578063c38c581314610165578063cc3d967b146101815761007d565b80630c89338a14610082578063278208511461009e57806346ed7e17146100ce575b600080fd5b61009c60048036038101906100979190610e27565b6101b5565b005b6100b860048036038101906100b39190610f70565b610399565b6040516100c5919061101c565b60405180910390f35b6100e860048036038101906100e39190610f70565b61046c565b6040516100f59190611059565b60405180910390f35b61011860048036038101906101139190610f70565b6104c4565b604051610126929190611083565b60405180910390f35b61014960048036038101906101449190610f70565b610590565b60405161015c97969594939291906110c2565b60405180910390f35b61017f600480360381019061017a9190610f70565b610887565b005b61019b60048036038101906101969190610f70565b6109a4565b6040516101ac959493929190611154565b60405180910390f35b6000803373ffffffffffffffffffffffffffffffffffffffff1673ffffffffffffffffffffffffffffffffffffffff16815260200190815260200160002060060160009054906101000a900460ff1615610244576040517f08c379a000000000000000000000000000000000000000000000000000000000815260040161023b9061120f565b60405180910390fd5b60008060003373ffffffffffffffffffffffffffffffffffffffff1673ffffffffffffffffffffffffffffffffffffffff168152602001908152602001600020905085816000019081610297919061143b565b50848160010190816102a9919061143b565b50838160020190816102bb919061143b565b50828160030190816102cd919061143b565b508181600401819055506040518060400160405280600481526020017f757365720000000000000000000000000000000000000000000000000000000081525081600501908161031d919061143b565b5060018160060160006101000a81548160ff0219169083151502179055503373ffffffffffffffffffffffffffffffffffffffff167fc05e06a7662af94624e0bab99f7e2f85920e9e6386cc11bf02730424077656548787878787604051610389959493929190611154565b60405180910390a2505050505050565b60606000808373ffffffffffffffffffffffffffffffffffffffff1673ffffffffffffffffffffffffffffffffffffffff16815260200190815260200160002060050180546103e79061125e565b80601f01602080910402602001604051908101604052809291908181526020018280546104139061125e565b80156104605780601f1061043557610100808354040283529160200191610460565b820191906000526020600020905b81548152906001019060200180831161044357829003601f168201915b50505050509050919050565b60008060008373ffffffffffffffffffffffffffffffffffffffff1673ffffffffffffffffffffffffffffffffffffffff16815260200190815260200160002060060160009054906101000a900460ff169050919050565b60016020528060005260406000206000915090508060000160009054906101000a900473ffffffffffffffffffffffffffffffffffffffff169080600101805461050d9061125e565b80601f01602080910402602001604051908101604052809291908181526020018280546105399061125e565b80156105865780601f1061055b57610100808354040283529160200191610586565b820191906000526020600020905b81548152906001019060200180831161056957829003601f168201915b5050505050905082565b60006020528060005260406000206000915090508060000180546105b39061125e565b80601f01602080910402602001604051908101604052809291908181526020018280546105df9061125e565b801561062c5780601f106106015761010080835404028352916020019161062c565b820191906000526020600020905b81548152906001019060200180831161060f57829003601f168201915b5050505050908060010180546106419061125e565b80601f016020809104026020016040519081016040528092919081815260200182805461066d9061125e565b80156106ba5780601f1061068f576101008083540402835291602001916106ba565b820191906000526020600020905b81548152906001019060200180831161069d57829003601f168201915b5050505050908060020180546106cf9061125e565b80601f01602080910402602001604051908101604052809291908181526020018280546106fb9061125e565b80156107485780601f1061071d57610100808354040283529160200191610748565b820191906000526020600020905b81548152906001019060200180831161072b57829003601f168201915b50505050509080600301805461075d9061125e565b80601f01602080910402602001604051908101604052809291908181526020018280546107899061125e565b80156107d65780601f106107ab576101008083540402835291602001916107d6565b820191906000526020600020905b8154815290600101906020018083116107b957829003601f168201915b5050505050908060040154908060050180546107f19061125e565b80601f016020809104026020016040519081016040528092919081815260200182805461081d9061125e565b801561086a5780601f1061083f5761010080835404028352916020019161086a565b820191906000526020600020905b81548152906001019060200180831161084d57829003601f168201915b5050505050908060060160009054906101000a900460ff16905087565b6000803373ffffffffffffffffffffffffffffffffffffffff1673ffffffffffffffffffffffffffffffffffffffff16815260200190815260200160002060060160009054906101000a900460ff1615610916576040517f08c379a000000000000000000000000000000000000000000000000000000000815260040161090d9061120f565b60405180910390fd5b6000600160008373ffffffffffffffffffffffffffffffffffffffff1673ffffffffffffffffffffffffffffffffffffffff16815260200190815260200160002090506040518060400160405280600581526020017f61646d696e00000000000000000000000000000000000000000000000000000081525081600101908161099f919061143b565b505050565b6060806060806000806000808873ffffffffffffffffffffffffffffffffffffffff1673ffffffffffffffffffffffffffffffffffffffff16815260200190815260200160002090508060060160009054906101000a900460ff16610a3e576040517f08c379a0000000000000000000000000000000000000000000000000000000008152600401610a3590611559565b60405180910390fd5b806000018160010182600201836003018460040154848054610a5f9061125e565b80601f0160208091040260200160405190810160405280929190818152602001828054610a8b9061125e565b8015610ad85780601f10610aad57610100808354040283529160200191610ad8565b820191906000526020600020905b815481529060010190602001808311610abb57829003601f168201915b50505050509450838054610aeb9061125e565b80601f0160208091040260200160405190810160405280929190818152602001828054610b179061125e565b8015610b645780601f10610b3957610100808354040283529160200191610b64565b820191906000526020600020905b815481529060010190602001808311610b4757829003601f168201915b50505050509350828054610b779061125e565b80601f0160208091040260200160405190810160405280929190818152602001828054610ba39061125e565b8015610bf05780601f10610bc557610100808354040283529160200191610bf0565b820191906000526020600020905b815481529060010190602001808311610bd357829003601f168201915b50505050509250818054610c039061125e565b80601f0160208091040260200160405190810160405280929190818152602001828054610c2f9061125e565b8015610c7c5780601f10610c5157610100808354040283529160200191610c7c565b820191906000526020600020905b815481529060010190602001808311610c5f57829003601f168201915b50505050509150955095509550955095505091939590929450565b6000604051905090565b600080fd5b600080fd5b600080fd5b600080fd5b6000601f19601f8301169050919050565b7f4e487b7100000000000000000000000000000000000000000000000000000000600052604160045260246000fd5b610cfe82610cb5565b810181811067ffffffffffffffff82111715610d1d57610d1c610cc6565b5b80604052505050565b6000610d30610c97565b9050610d3c8282610cf5565b919050565b600067ffffffffffffffff821115610d5c57610d5b610cc6565b5b610d6582610cb5565b9050602081019050919050565b82818337600083830152505050565b6000610d94610d8f84610d41565b610d26565b905082815260208101848484011115610db057610daf610cb0565b5b610dbb848285610d72565b509392505050565b600082601f830112610dd857610dd7610cab565b5b8135610de8848260208601610d81565b91505092915050565b6000819050919050565b610e0481610df1565b8114610e0f57600080fd5b50565b600081359050610e2181610dfb565b92915050565b600080600080600060a08688031215610e4357610e42610ca1565b5b600086013567ffffffffffffffff811115610e6157610e60610ca6565b5b610e6d88828901610dc3565b955050602086013567ffffffffffffffff811115610e8e57610e8d610ca6565b5b610e9a88828901610dc3565b945050604086013567ffffffffffffffff811115610ebb57610eba610ca6565b5b610ec788828901610dc3565b935050606086013567ffffffffffffffff811115610ee857610ee7610ca6565b5b610ef488828901610dc3565b9250506080610f0588828901610e12565b9150509295509295909350565b600073ffffffffffffffffffffffffffffffffffffffff82169050919050565b6000610f3d82610f12565b9050919050565b610f4d81610f32565b8114610f5857600080fd5b50565b600081359050610f6a81610f44565b92915050565b600060208284031215610f8657610f85610ca1565b5b6000610f9484828501610f5b565b91505092915050565b600081519050919050565b600082825260208201905092915050565b60005b83811015610fd7578082015181840152602081019050610fbc565b60008484015250505050565b6000610fee82610f9d565b610ff88185610fa8565b9350611008818560208601610fb9565b61101181610cb5565b840191505092915050565b600060208201905081810360008301526110368184610fe3565b905092915050565b60008115159050919050565b6110538161103e565b82525050565b600060208201905061106e600083018461104a565b92915050565b61107d81610f32565b82525050565b60006040820190506110986000830185611074565b81810360208301526110aa8184610fe3565b90509392505050565b6110bc81610df1565b82525050565b600060e08201905081810360008301526110dc818a610fe3565b905081810360208301526110f08189610fe3565b905081810360408301526111048188610fe3565b905081810360608301526111188187610fe3565b905061112760808301866110b3565b81810360a08301526111398185610fe3565b905061114860c083018461104a565b98975050505050505050565b600060a082019050818103600083015261116e8188610fe3565b905081810360208301526111828187610fe3565b905081810360408301526111968186610fe3565b905081810360608301526111aa8185610fe3565b90506111b960808301846110b3565b9695505050505050565b7f5573657220697320616c72656164792072656769737465726564000000000000600082015250565b60006111f9601a83610fa8565b9150611204826111c3565b602082019050919050565b60006020820190508181036000830152611228816111ec565b9050919050565b7f4e487b7100000000000000000000000000000000000000000000000000000000600052602260045260246000fd5b6000600282049050600182168061127657607f821691505b6020821081036112895761128861122f565b5b50919050565b60008190508160005260206000209050919050565b60006020601f8301049050919050565b600082821b905092915050565b6000600883026112f17fffffffffffffffffffffffffffffffffffffffffffffffffffffffffffffffff826112b4565b6112fb86836112b4565b95508019841693508086168417925050509392505050565b6000819050919050565b600061133861133361132e84610df1565b611313565b610df1565b9050919050565b6000819050919050565b6113528361131d565b61136661135e8261133f565b8484546112c1565b825550505050565b600090565b61137b61136e565b611386818484611349565b505050565b5b818110156113aa5761139f600082611373565b60018101905061138c565b5050565b601f8211156113ef576113c08161128f565b6113c9846112a4565b810160208510156113d8578190505b6113ec6113e4856112a4565b83018261138b565b50505b505050565b600082821c905092915050565b6000611412600019846008026113f4565b1980831691505092915050565b600061142b8383611401565b9150826002028217905092915050565b61144482610f9d565b67ffffffffffffffff81111561145d5761145c610cc6565b5b611467825461125e565b6114728282856113ae565b600060209050601f8311600181146114a55760008415611493578287015190505b61149d858261141f565b865550611505565b601f1984166114b38661128f565b60005b828110156114db578489015182556001820191506020850194506020810190506114b6565b868310156114f857848901516114f4601f891682611401565b8355505b6001600288020188555050505b505050505050565b7f55736572206973206e6f74207265676973746572656400000000000000000000600082015250565b6000611543601683610fa8565b915061154e8261150d565b602082019050919050565b6000602082019050818103600083015261157281611536565b905091905056fea26469706673582212209bee28feea83e77ba6dd208d59b1816190628f3cdb6aaf90caa9dfd8cb1c9e4264736f6c63430008130033",
  "immutableReferences": {},
  "source": "// SPDX-License-Identifier: MIT\r\npragma solidity 0.8.19;\r\n\r\ncontract UserRegistration {\r\n    struct User {\r\n        string name;\r\n        string email;\r\n        string phone;\r\n        string addressuser;\r\n        uint256 pincode;\r\n        string role;\r\n        bool isRegistered;\r\n    }\r\n\r\n    struct Admin {\r\n        address metamask_address;\r\n        string role;\r\n    }\r\n\r\n    mapping(address => User) public users;\r\n    mapping(address => Admin) public admin;\r\n\r\n    event UserRegistered(\r\n        address indexed userAddress,\r\n        string name,\r\n        string email,\r\n        string phone,\r\n        string addressuser,\r\n        uint256 pincode\r\n    );\r\n\r\n    modifier notRegistered() {\r\n        require(!users[msg.sender].isRegistered, \"User is already registered\");\r\n        _;\r\n    }\r\n\r\n    function registerUser(\r\n        string memory _name,\r\n        string memory _email,\r\n        string memory _phone,\r\n        string memory _addressuser,\r\n        uint256 _pincode\r\n    ) external notRegistered {\r\n        // Perform additional validation if needed\r\n\r\n        // Create a new user\r\n        User storage newUser = users[msg.sender];\r\n        newUser.name = _name;\r\n        newUser.email = _email;\r\n        newUser.phone = _phone;\r\n        newUser.addressuser = _addressuser;\r\n        newUser.pincode = _pincode;\r\n        newUser.role = \"user\";\r\n        newUser.isRegistered = true;\r\n\r\n        emit UserRegistered(\r\n            msg.sender,\r\n            _name,\r\n            _email,\r\n            _phone,\r\n            _addressuser,\r\n            _pincode\r\n        );\r\n    }\r\n\r\n    function registerAdmin(address _addressuser) external notRegistered {\r\n        // Perform additional validation if needed\r\n\r\n        // Create a new user\r\n        Admin storage newAdmin = admin[_addressuser];\r\n        newAdmin.role = \"admin\";\r\n    }\r\n\r\n    function getUserDetails(\r\n        address useraddr\r\n    )\r\n        external\r\n        view\r\n        returns (\r\n            string memory,\r\n            string memory,\r\n            string memory,\r\n            string memory,\r\n            uint256\r\n        )\r\n    {\r\n        User storage user = users[useraddr];\r\n        require(user.isRegistered, \"User is not registered\");\r\n\r\n        return (\r\n            user.name,\r\n            user.email,\r\n            user.phone,\r\n            user.addressuser,\r\n            user.pincode\r\n        );\r\n    }\r\n\r\n    function getUserBoolean(address useraddr) external view returns (bool) {\r\n        return users[useraddr].isRegistered;\r\n    }\r\n\r\n    function getUserRole(\r\n        address useraddr\r\n    ) external view returns (string memory) {\r\n        return users[useraddr].role;\r\n    }\r\n}\r\n",
  "sourcePath": "C:\\Users\\USER\\Documents\\vscode\\TSEC_Hackathon\\contracts\\User.sol",
  "compiler": {
    "name": "solc",
    "version": "0.8.19+commit.7dd6d404.Emscripten.clang"
  },
  "schemaVersion": "3.4.13",
  "updatedAt": "2024-01-31T13:41:48.271Z",
  "networkType": "ethereum",
  "devdoc": {
    "kind": "dev",
    "methods": {},
    "version": 1
  },
  "userdoc": {
    "kind": "user",
    "methods": {},
    "version": 1
  }
}