{
  "contractName": "UserRegistration",
  "abi": [
    {
      "inputs": [],
      "stateMutability": "nonpayable",
      "type": "constructor"
    },
    {
      "anonymous": false,
      "inputs": [
        {
          "indexed": true,
          "internalType": "address",
          "name": "owner",
          "type": "address"
        },
        {
          "indexed": true,
          "internalType": "address",
          "name": "approved",
          "type": "address"
        },
        {
          "indexed": true,
          "internalType": "uint256",
          "name": "tokenId",
          "type": "uint256"
        }
      ],
      "name": "Approval",
      "type": "event"
    },
    {
      "anonymous": false,
      "inputs": [
        {
          "indexed": true,
          "internalType": "address",
          "name": "owner",
          "type": "address"
        },
        {
          "indexed": true,
          "internalType": "address",
          "name": "operator",
          "type": "address"
        },
        {
          "indexed": false,
          "internalType": "bool",
          "name": "approved",
          "type": "bool"
        }
      ],
      "name": "ApprovalForAll",
      "type": "event"
    },
    {
      "anonymous": false,
      "inputs": [
        {
          "indexed": false,
          "internalType": "uint256",
          "name": "_fromTokenId",
          "type": "uint256"
        },
        {
          "indexed": false,
          "internalType": "uint256",
          "name": "_toTokenId",
          "type": "uint256"
        }
      ],
      "name": "BatchMetadataUpdate",
      "type": "event"
    },
    {
      "anonymous": false,
      "inputs": [
        {
          "indexed": false,
          "internalType": "uint256",
          "name": "_tokenId",
          "type": "uint256"
        }
      ],
      "name": "MetadataUpdate",
      "type": "event"
    },
    {
      "anonymous": false,
      "inputs": [
        {
          "indexed": true,
          "internalType": "address",
          "name": "to",
          "type": "address"
        },
        {
          "indexed": true,
          "internalType": "uint256",
          "name": "tokenId",
          "type": "uint256"
        },
        {
          "indexed": false,
          "internalType": "string",
          "name": "uri",
          "type": "string"
        }
      ],
      "name": "Minted",
      "type": "event"
    },
    {
      "anonymous": false,
      "inputs": [
        {
          "indexed": true,
          "internalType": "address",
          "name": "from",
          "type": "address"
        },
        {
          "indexed": true,
          "internalType": "address",
          "name": "to",
          "type": "address"
        },
        {
          "indexed": true,
          "internalType": "uint256",
          "name": "tokenId",
          "type": "uint256"
        }
      ],
      "name": "Transfer",
      "type": "event"
    },
    {
      "anonymous": false,
      "inputs": [
        {
          "indexed": true,
          "internalType": "address",
          "name": "userAddress",
          "type": "address"
        },
        {
          "indexed": false,
          "internalType": "string",
          "name": "name",
          "type": "string"
        },
        {
          "indexed": false,
          "internalType": "string",
          "name": "email",
          "type": "string"
        },
        {
          "indexed": false,
          "internalType": "string",
          "name": "phone",
          "type": "string"
        },
        {
          "indexed": false,
          "internalType": "string",
          "name": "addressuser",
          "type": "string"
        },
        {
          "indexed": false,
          "internalType": "uint256",
          "name": "pincode",
          "type": "uint256"
        }
      ],
      "name": "UserRegistered",
      "type": "event"
    },
    {
      "inputs": [
        {
          "internalType": "address",
          "name": "",
          "type": "address"
        }
      ],
      "name": "admin",
      "outputs": [
        {
          "internalType": "address",
          "name": "metamask_address",
          "type": "address"
        },
        {
          "internalType": "string",
          "name": "role",
          "type": "string"
        }
      ],
      "stateMutability": "view",
      "type": "function",
      "constant": true
    },
    {
      "inputs": [
        {
          "internalType": "address",
          "name": "to",
          "type": "address"
        },
        {
          "internalType": "uint256",
          "name": "tokenId",
          "type": "uint256"
        }
      ],
      "name": "approve",
      "outputs": [],
      "stateMutability": "nonpayable",
      "type": "function"
    },
    {
      "inputs": [
        {
          "internalType": "address",
          "name": "owner",
          "type": "address"
        }
      ],
      "name": "balanceOf",
      "outputs": [
        {
          "internalType": "uint256",
          "name": "",
          "type": "uint256"
        }
      ],
      "stateMutability": "view",
      "type": "function",
      "constant": true
    },
    {
      "inputs": [
        {
          "internalType": "uint256",
          "name": "tokenId",
          "type": "uint256"
        }
      ],
      "name": "getApproved",
      "outputs": [
        {
          "internalType": "address",
          "name": "",
          "type": "address"
        }
      ],
      "stateMutability": "view",
      "type": "function",
      "constant": true
    },
    {
      "inputs": [
        {
          "internalType": "address",
          "name": "owner",
          "type": "address"
        },
        {
          "internalType": "address",
          "name": "operator",
          "type": "address"
        }
      ],
      "name": "isApprovedForAll",
      "outputs": [
        {
          "internalType": "bool",
          "name": "",
          "type": "bool"
        }
      ],
      "stateMutability": "view",
      "type": "function",
      "constant": true
    },
    {
      "inputs": [],
      "name": "name",
      "outputs": [
        {
          "internalType": "string",
          "name": "",
          "type": "string"
        }
      ],
      "stateMutability": "view",
      "type": "function",
      "constant": true
    },
    {
      "inputs": [
        {
          "internalType": "uint256",
          "name": "tokenId",
          "type": "uint256"
        }
      ],
      "name": "ownerOf",
      "outputs": [
        {
          "internalType": "address",
          "name": "",
          "type": "address"
        }
      ],
      "stateMutability": "view",
      "type": "function",
      "constant": true
    },
    {
      "inputs": [
        {
          "internalType": "address",
          "name": "from",
          "type": "address"
        },
        {
          "internalType": "address",
          "name": "to",
          "type": "address"
        },
        {
          "internalType": "uint256",
          "name": "tokenId",
          "type": "uint256"
        }
      ],
      "name": "safeTransferFrom",
      "outputs": [],
      "stateMutability": "nonpayable",
      "type": "function"
    },
    {
      "inputs": [
        {
          "internalType": "address",
          "name": "from",
          "type": "address"
        },
        {
          "internalType": "address",
          "name": "to",
          "type": "address"
        },
        {
          "internalType": "uint256",
          "name": "tokenId",
          "type": "uint256"
        },
        {
          "internalType": "bytes",
          "name": "data",
          "type": "bytes"
        }
      ],
      "name": "safeTransferFrom",
      "outputs": [],
      "stateMutability": "nonpayable",
      "type": "function"
    },
    {
      "inputs": [
        {
          "internalType": "address",
          "name": "operator",
          "type": "address"
        },
        {
          "internalType": "bool",
          "name": "approved",
          "type": "bool"
        }
      ],
      "name": "setApprovalForAll",
      "outputs": [],
      "stateMutability": "nonpayable",
      "type": "function"
    },
    {
      "inputs": [
        {
          "internalType": "bytes4",
          "name": "interfaceId",
          "type": "bytes4"
        }
      ],
      "name": "supportsInterface",
      "outputs": [
        {
          "internalType": "bool",
          "name": "",
          "type": "bool"
        }
      ],
      "stateMutability": "view",
      "type": "function",
      "constant": true
    },
    {
      "inputs": [],
      "name": "symbol",
      "outputs": [
        {
          "internalType": "string",
          "name": "",
          "type": "string"
        }
      ],
      "stateMutability": "view",
      "type": "function",
      "constant": true
    },
    {
      "inputs": [
        {
          "internalType": "uint256",
          "name": "tokenId",
          "type": "uint256"
        }
      ],
      "name": "tokenURI",
      "outputs": [
        {
          "internalType": "string",
          "name": "",
          "type": "string"
        }
      ],
      "stateMutability": "view",
      "type": "function",
      "constant": true
    },
    {
      "inputs": [
        {
          "internalType": "address",
          "name": "from",
          "type": "address"
        },
        {
          "internalType": "address",
          "name": "to",
          "type": "address"
        },
        {
          "internalType": "uint256",
          "name": "tokenId",
          "type": "uint256"
        }
      ],
      "name": "transferFrom",
      "outputs": [],
      "stateMutability": "nonpayable",
      "type": "function"
    },
    {
      "inputs": [
        {
          "internalType": "address",
          "name": "",
          "type": "address"
        }
      ],
      "name": "users",
      "outputs": [
        {
          "internalType": "string",
          "name": "name",
          "type": "string"
        },
        {
          "internalType": "string",
          "name": "email",
          "type": "string"
        },
        {
          "internalType": "string",
          "name": "phone",
          "type": "string"
        },
        {
          "internalType": "string",
          "name": "addressuser",
          "type": "string"
        },
        {
          "internalType": "uint256",
          "name": "pincode",
          "type": "uint256"
        },
        {
          "internalType": "string",
          "name": "role",
          "type": "string"
        },
        {
          "internalType": "bool",
          "name": "isRegistered",
          "type": "bool"
        }
      ],
      "stateMutability": "view",
      "type": "function",
      "constant": true
    },
    {
      "inputs": [
        {
          "internalType": "address",
          "name": "_to",
          "type": "address"
        },
        {
          "internalType": "string",
          "name": "_uri",
          "type": "string"
        }
      ],
      "name": "mint",
      "outputs": [],
      "stateMutability": "nonpayable",
      "type": "function"
    },
    {
      "inputs": [
        {
          "internalType": "string",
          "name": "_name",
          "type": "string"
        },
        {
          "internalType": "string",
          "name": "_email",
          "type": "string"
        },
        {
          "internalType": "string",
          "name": "_phone",
          "type": "string"
        },
        {
          "internalType": "string",
          "name": "_addressuser",
          "type": "string"
        },
        {
          "internalType": "uint256",
          "name": "_pincode",
          "type": "uint256"
        }
      ],
      "name": "registerUser",
      "outputs": [],
      "stateMutability": "nonpayable",
      "type": "function"
    },
    {
      "inputs": [
        {
          "internalType": "address",
          "name": "_addressuser",
          "type": "address"
        }
      ],
      "name": "registerAdmin",
      "outputs": [],
      "stateMutability": "nonpayable",
      "type": "function"
    },
    {
      "inputs": [
        {
          "internalType": "address",
          "name": "useraddr",
          "type": "address"
        }
      ],
      "name": "getUserDetails",
      "outputs": [
        {
          "internalType": "string",
          "name": "",
          "type": "string"
        },
        {
          "internalType": "string",
          "name": "",
          "type": "string"
        },
        {
          "internalType": "string",
          "name": "",
          "type": "string"
        },
        {
          "internalType": "string",
          "name": "",
          "type": "string"
        },
        {
          "internalType": "uint256",
          "name": "",
          "type": "uint256"
        }
      ],
      "stateMutability": "view",
      "type": "function",
      "constant": true
    },
    {
      "inputs": [
        {
          "internalType": "address",
          "name": "useraddr",
          "type": "address"
        }
      ],
      "name": "getUserBoolean",
      "outputs": [
        {
          "internalType": "bool",
          "name": "",
          "type": "bool"
        }
      ],
      "stateMutability": "view",
      "type": "function",
      "constant": true
    },
    {
      "inputs": [
        {
          "internalType": "address",
          "name": "useraddr",
          "type": "address"
        }
      ],
      "name": "getUserRole",
      "outputs": [
        {
          "internalType": "string",
          "name": "",
          "type": "string"
        }
      ],
      "stateMutability": "view",
      "type": "function",
      "constant": true
    }
  ],
  "bytecode": "0x60806040523480156200001157600080fd5b506040518060400160405280600c81526020017f50726f70657274794974656d00000000000000000000000000000000000000008152506040518060400160405280600281526020017f504900000000000000000000000000000000000000000000000000000000000081525081600090816200008f91906200032c565b508060019081620000a191906200032c565b505050600060098190555062000413565b600081519050919050565b7f4e487b7100000000000000000000000000000000000000000000000000000000600052604160045260246000fd5b7f4e487b7100000000000000000000000000000000000000000000000000000000600052602260045260246000fd5b600060028204905060018216806200013457607f821691505b6020821081036200014a5762000149620000ec565b5b50919050565b60008190508160005260206000209050919050565b60006020601f8301049050919050565b600082821b905092915050565b600060088302620001b47fffffffffffffffffffffffffffffffffffffffffffffffffffffffffffffffff8262000175565b620001c0868362000175565b95508019841693508086168417925050509392505050565b6000819050919050565b6000819050919050565b60006200020d620002076200020184620001d8565b620001e2565b620001d8565b9050919050565b6000819050919050565b6200022983620001ec565b62000241620002388262000214565b84845462000182565b825550505050565b600090565b6200025862000249565b620002658184846200021e565b505050565b5b818110156200028d57620002816000826200024e565b6001810190506200026b565b5050565b601f821115620002dc57620002a68162000150565b620002b18462000165565b81016020851015620002c1578190505b620002d9620002d08562000165565b8301826200026a565b50505b505050565b600082821c905092915050565b60006200030160001984600802620002e1565b1980831691505092915050565b60006200031c8383620002ee565b9150826002028217905092915050565b6200033782620000b2565b67ffffffffffffffff811115620003535762000352620000bd565b5b6200035f82546200011b565b6200036c82828562000291565b600060209050601f831160018114620003a457600084156200038f578287015190505b6200039b85826200030e565b8655506200040b565b601f198416620003b48662000150565b60005b82811015620003de57848901518255600182019150602085019450602081019050620003b7565b86831015620003fe5784890151620003fa601f891682620002ee565b8355505b6001600288020188555050505b505050505050565b613bad80620004236000396000f3fe608060405234801561001057600080fd5b50600436106101375760003560e01c806363a846f8116100b8578063b88d4fde1161007c578063b88d4fde1461038b578063c38c5813146103a7578063c87b56dd146103c3578063cc3d967b146103f3578063d0def52114610427578063e985e9c51461044357610137565b806363a846f8146102ba57806370a08231146102eb57806395d89b411461031b578063a22cb46514610339578063a87430ba1461035557610137565b806323b872dd116100ff57806323b872dd146101f2578063278208511461020e57806342842e0e1461023e57806346ed7e171461025a5780636352211e1461028a57610137565b806301ffc9a71461013c57806306fdde031461016c578063081812fc1461018a578063095ea7b3146101ba5780630c89338a146101d6575b600080fd5b61015660048036038101906101519190612690565b610473565b60405161016391906126d8565b60405180910390f35b6101746104d4565b6040516101819190612783565b60405180910390f35b6101a4600480360381019061019f91906127db565b610566565b6040516101b19190612849565b60405180910390f35b6101d460048036038101906101cf9190612890565b6105ac565b005b6101f060048036038101906101eb9190612a05565b6106c3565b005b61020c60048036038101906102079190612af0565b6108a9565b005b61022860048036038101906102239190612b43565b610909565b6040516102359190612783565b60405180910390f35b61025860048036038101906102539190612af0565b6109dd565b005b610274600480360381019061026f9190612b43565b6109fd565b60405161028191906126d8565b60405180910390f35b6102a4600480360381019061029f91906127db565b610a56565b6040516102b19190612849565b60405180910390f35b6102d460048036038101906102cf9190612b43565b610adc565b6040516102e2929190612b70565b60405180910390f35b61030560048036038101906103009190612b43565b610ba8565b6040516103129190612baf565b60405180910390f35b610323610c5f565b6040516103309190612783565b60405180910390f35b610353600480360381019061034e9190612bf6565b610cf1565b005b61036f600480360381019061036a9190612b43565b610d07565b6040516103829796959493929190612c36565b60405180910390f35b6103a560048036038101906103a09190612d69565b610ffe565b005b6103c160048036038101906103bc9190612b43565b611060565b005b6103dd60048036038101906103d891906127db565b61117e565b6040516103ea9190612783565b60405180910390f35b61040d60048036038101906104089190612b43565b611290565b60405161041e959493929190612dec565b60405180910390f35b610441600480360381019061043c9190612ebb565b611584565b005b61045d60048036038101906104589190612f1b565b61164d565b60405161046a91906126d8565b60405180910390f35b6000634906490660e01b7bffffffffffffffffffffffffffffffffffffffffffffffffffffffff1916827bffffffffffffffffffffffffffffffffffffffffffffffffffffffff191614806104cd57506104cc826116e1565b5b9050919050565b6060600080546104e390612f8a565b80601f016020809104026020016040519081016040528092919081815260200182805461050f90612f8a565b801561055c5780601f106105315761010080835404028352916020019161055c565b820191906000526020600020905b81548152906001019060200180831161053f57829003601f168201915b5050505050905090565b6000610571826117c3565b6004600083815260200190815260200160002060009054906101000a900473ffffffffffffffffffffffffffffffffffffffff169050919050565b60006105b782610a56565b90508073ffffffffffffffffffffffffffffffffffffffff168373ffffffffffffffffffffffffffffffffffffffff1603610627576040517f08c379a000000000000000000000000000000000000000000000000000000000815260040161061e9061302d565b60405180910390fd5b8073ffffffffffffffffffffffffffffffffffffffff1661064661180e565b73ffffffffffffffffffffffffffffffffffffffff16148061067557506106748161066f61180e565b61164d565b5b6106b4576040517f08c379a00000000000000000000000000000000000000000000000000000000081526004016106ab906130bf565b60405180910390fd5b6106be8383611816565b505050565b600760003373ffffffffffffffffffffffffffffffffffffffff1673ffffffffffffffffffffffffffffffffffffffff16815260200190815260200160002060060160009054906101000a900460ff1615610753576040517f08c379a000000000000000000000000000000000000000000000000000000000815260040161074a9061312b565b60405180910390fd5b6000600760003373ffffffffffffffffffffffffffffffffffffffff1673ffffffffffffffffffffffffffffffffffffffff1681526020019081526020016000209050858160000190816107a791906132f7565b50848160010190816107b991906132f7565b50838160020190816107cb91906132f7565b50828160030190816107dd91906132f7565b508181600401819055506040518060400160405280600481526020017f757365720000000000000000000000000000000000000000000000000000000081525081600501908161082d91906132f7565b5060018160060160006101000a81548160ff0219169083151502179055503373ffffffffffffffffffffffffffffffffffffffff167fc05e06a7662af94624e0bab99f7e2f85920e9e6386cc11bf02730424077656548787878787604051610899959493929190612dec565b60405180910390a2505050505050565b6108ba6108b461180e565b826118cf565b6108f9576040517f08c379a00000000000000000000000000000000000000000000000000000000081526004016108f09061343b565b60405180910390fd5b610904838383611964565b505050565b6060600760008373ffffffffffffffffffffffffffffffffffffffff1673ffffffffffffffffffffffffffffffffffffffff168152602001908152602001600020600501805461095890612f8a565b80601f016020809104026020016040519081016040528092919081815260200182805461098490612f8a565b80156109d15780601f106109a6576101008083540402835291602001916109d1565b820191906000526020600020905b8154815290600101906020018083116109b457829003601f168201915b50505050509050919050565b6109f883838360405180602001604052806000815250610ffe565b505050565b6000600760008373ffffffffffffffffffffffffffffffffffffffff1673ffffffffffffffffffffffffffffffffffffffff16815260200190815260200160002060060160009054906101000a900460ff169050919050565b600080610a6283611c5d565b9050600073ffffffffffffffffffffffffffffffffffffffff168173ffffffffffffffffffffffffffffffffffffffff1603610ad3576040517f08c379a0000000000000000000000000000000000000000000000000000000008152600401610aca906134a7565b60405180910390fd5b80915050919050565b60086020528060005260406000206000915090508060000160009054906101000a900473ffffffffffffffffffffffffffffffffffffffff1690806001018054610b2590612f8a565b80601f0160208091040260200160405190810160405280929190818152602001828054610b5190612f8a565b8015610b9e5780601f10610b7357610100808354040283529160200191610b9e565b820191906000526020600020905b815481529060010190602001808311610b8157829003601f168201915b5050505050905082565b60008073ffffffffffffffffffffffffffffffffffffffff168273ffffffffffffffffffffffffffffffffffffffff1603610c18576040517f08c379a0000000000000000000000000000000000000000000000000000000008152600401610c0f90613539565b60405180910390fd5b600360008373ffffffffffffffffffffffffffffffffffffffff1673ffffffffffffffffffffffffffffffffffffffff168152602001908152602001600020549050919050565b606060018054610c6e90612f8a565b80601f0160208091040260200160405190810160405280929190818152602001828054610c9a90612f8a565b8015610ce75780601f10610cbc57610100808354040283529160200191610ce7565b820191906000526020600020905b815481529060010190602001808311610cca57829003601f168201915b5050505050905090565b610d03610cfc61180e565b8383611c9a565b5050565b6007602052806000526040600020600091509050806000018054610d2a90612f8a565b80601f0160208091040260200160405190810160405280929190818152602001828054610d5690612f8a565b8015610da35780601f10610d7857610100808354040283529160200191610da3565b820191906000526020600020905b815481529060010190602001808311610d8657829003601f168201915b505050505090806001018054610db890612f8a565b80601f0160208091040260200160405190810160405280929190818152602001828054610de490612f8a565b8015610e315780601f10610e0657610100808354040283529160200191610e31565b820191906000526020600020905b815481529060010190602001808311610e1457829003601f168201915b505050505090806002018054610e4690612f8a565b80601f0160208091040260200160405190810160405280929190818152602001828054610e7290612f8a565b8015610ebf5780601f10610e9457610100808354040283529160200191610ebf565b820191906000526020600020905b815481529060010190602001808311610ea257829003601f168201915b505050505090806003018054610ed490612f8a565b80601f0160208091040260200160405190810160405280929190818152602001828054610f0090612f8a565b8015610f4d5780601f10610f2257610100808354040283529160200191610f4d565b820191906000526020600020905b815481529060010190602001808311610f3057829003601f168201915b505050505090806004015490806005018054610f6890612f8a565b80601f0160208091040260200160405190810160405280929190818152602001828054610f9490612f8a565b8015610fe15780601f10610fb657610100808354040283529160200191610fe1565b820191906000526020600020905b815481529060010190602001808311610fc457829003601f168201915b5050505050908060060160009054906101000a900460ff16905087565b61100f61100961180e565b836118cf565b61104e576040517f08c379a00000000000000000000000000000000000000000000000000000000081526004016110459061343b565b60405180910390fd5b61105a84848484611e06565b50505050565b600760003373ffffffffffffffffffffffffffffffffffffffff1673ffffffffffffffffffffffffffffffffffffffff16815260200190815260200160002060060160009054906101000a900460ff16156110f0576040517f08c379a00000000000000000000000000000000000000000000000000000000081526004016110e79061312b565b60405180910390fd5b6000600860008373ffffffffffffffffffffffffffffffffffffffff1673ffffffffffffffffffffffffffffffffffffffff16815260200190815260200160002090506040518060400160405280600581526020017f61646d696e00000000000000000000000000000000000000000000000000000081525081600101908161117991906132f7565b505050565b6060611189826117c3565b60006006600084815260200190815260200160002080546111a990612f8a565b80601f01602080910402602001604051908101604052809291908181526020018280546111d590612f8a565b80156112225780601f106111f757610100808354040283529160200191611222565b820191906000526020600020905b81548152906001019060200180831161120557829003601f168201915b505050505090506000611233611e62565b9050600081510361124857819250505061128b565b60008251111561127d578082604051602001611265929190613595565b6040516020818303038152906040529250505061128b565b61128684611e79565b925050505b919050565b606080606080600080600760008873ffffffffffffffffffffffffffffffffffffffff1673ffffffffffffffffffffffffffffffffffffffff16815260200190815260200160002090508060060160009054906101000a900460ff1661132b576040517f08c379a000000000000000000000000000000000000000000000000000000000815260040161132290613605565b60405180910390fd5b80600001816001018260020183600301846004015484805461134c90612f8a565b80601f016020809104026020016040519081016040528092919081815260200182805461137890612f8a565b80156113c55780601f1061139a576101008083540402835291602001916113c5565b820191906000526020600020905b8154815290600101906020018083116113a857829003601f168201915b505050505094508380546113d890612f8a565b80601f016020809104026020016040519081016040528092919081815260200182805461140490612f8a565b80156114515780601f1061142657610100808354040283529160200191611451565b820191906000526020600020905b81548152906001019060200180831161143457829003601f168201915b5050505050935082805461146490612f8a565b80601f016020809104026020016040519081016040528092919081815260200182805461149090612f8a565b80156114dd5780601f106114b2576101008083540402835291602001916114dd565b820191906000526020600020905b8154815290600101906020018083116114c057829003601f168201915b505050505092508180546114f090612f8a565b80601f016020809104026020016040519081016040528092919081815260200182805461151c90612f8a565b80156115695780601f1061153e57610100808354040283529160200191611569565b820191906000526020600020905b81548152906001019060200180831161154c57829003601f168201915b50505050509150955095509550955095505091939590929450565b60016009546115939190613654565b6009819055506115a583600954611ee1565b6115f560095483838080601f016020809104026020016040519081016040528093929190818152602001838380828437600081840152601f19601f820116905080830192505050505050506120fe565b6009548373ffffffffffffffffffffffffffffffffffffffff167fe7cd4ce7f2a465edc730269a1305e8a48bad821e8fb7e152ec413829c01a53c484846040516116409291906136b5565b60405180910390a3505050565b6000600560008473ffffffffffffffffffffffffffffffffffffffff1673ffffffffffffffffffffffffffffffffffffffff16815260200190815260200160002060008373ffffffffffffffffffffffffffffffffffffffff1673ffffffffffffffffffffffffffffffffffffffff16815260200190815260200160002060009054906101000a900460ff16905092915050565b60007f80ac58cd000000000000000000000000000000000000000000000000000000007bffffffffffffffffffffffffffffffffffffffffffffffffffffffff1916827bffffffffffffffffffffffffffffffffffffffffffffffffffffffff191614806117ac57507f5b5e139f000000000000000000000000000000000000000000000000000000007bffffffffffffffffffffffffffffffffffffffffffffffffffffffff1916827bffffffffffffffffffffffffffffffffffffffffffffffffffffffff1916145b806117bc57506117bb826121a2565b5b9050919050565b6117cc8161220c565b61180b576040517f08c379a0000000000000000000000000000000000000000000000000000000008152600401611802906134a7565b60405180910390fd5b50565b600033905090565b816004600083815260200190815260200160002060006101000a81548173ffffffffffffffffffffffffffffffffffffffff021916908373ffffffffffffffffffffffffffffffffffffffff160217905550808273ffffffffffffffffffffffffffffffffffffffff1661188983610a56565b73ffffffffffffffffffffffffffffffffffffffff167f8c5be1e5ebec7d5bd14f71427d1e84f3dd0314c0f7b2291e5b200ac8c7c3b92560405160405180910390a45050565b6000806118db83610a56565b90508073ffffffffffffffffffffffffffffffffffffffff168473ffffffffffffffffffffffffffffffffffffffff16148061191d575061191c818561164d565b5b8061195b57508373ffffffffffffffffffffffffffffffffffffffff1661194384610566565b73ffffffffffffffffffffffffffffffffffffffff16145b91505092915050565b8273ffffffffffffffffffffffffffffffffffffffff1661198482610a56565b73ffffffffffffffffffffffffffffffffffffffff16146119da576040517f08c379a00000000000000000000000000000000000000000000000000000000081526004016119d19061374b565b60405180910390fd5b600073ffffffffffffffffffffffffffffffffffffffff168273ffffffffffffffffffffffffffffffffffffffff1603611a49576040517f08c379a0000000000000000000000000000000000000000000000000000000008152600401611a40906137dd565b60405180910390fd5b611a56838383600161224d565b8273ffffffffffffffffffffffffffffffffffffffff16611a7682610a56565b73ffffffffffffffffffffffffffffffffffffffff1614611acc576040517f08c379a0000000000000000000000000000000000000000000000000000000008152600401611ac39061374b565b60405180910390fd5b6004600082815260200190815260200160002060006101000a81549073ffffffffffffffffffffffffffffffffffffffff02191690556001600360008573ffffffffffffffffffffffffffffffffffffffff1673ffffffffffffffffffffffffffffffffffffffff168152602001908152602001600020600082825403925050819055506001600360008473ffffffffffffffffffffffffffffffffffffffff1673ffffffffffffffffffffffffffffffffffffffff16815260200190815260200160002060008282540192505081905550816002600083815260200190815260200160002060006101000a81548173ffffffffffffffffffffffffffffffffffffffff021916908373ffffffffffffffffffffffffffffffffffffffff160217905550808273ffffffffffffffffffffffffffffffffffffffff168473ffffffffffffffffffffffffffffffffffffffff167fddf252ad1be2c89b69c2b068fc378daa952ba7f163c4a11628f55a4df523b3ef60405160405180910390a4611c588383836001612253565b505050565b60006002600083815260200190815260200160002060009054906101000a900473ffffffffffffffffffffffffffffffffffffffff169050919050565b8173ffffffffffffffffffffffffffffffffffffffff168373ffffffffffffffffffffffffffffffffffffffff1603611d08576040517f08c379a0000000000000000000000000000000000000000000000000000000008152600401611cff90613849565b60405180910390fd5b80600560008573ffffffffffffffffffffffffffffffffffffffff1673ffffffffffffffffffffffffffffffffffffffff16815260200190815260200160002060008473ffffffffffffffffffffffffffffffffffffffff1673ffffffffffffffffffffffffffffffffffffffff16815260200190815260200160002060006101000a81548160ff0219169083151502179055508173ffffffffffffffffffffffffffffffffffffffff168373ffffffffffffffffffffffffffffffffffffffff167f17307eab39ab6107e8899845ad3d59bd9653f200f220920489ca2b5937696c3183604051611df991906126d8565b60405180910390a3505050565b611e11848484611964565b611e1d84848484612259565b611e5c576040517f08c379a0000000000000000000000000000000000000000000000000000000008152600401611e53906138db565b60405180910390fd5b50505050565b606060405180602001604052806000815250905090565b6060611e84826117c3565b6000611e8e611e62565b90506000815111611eae5760405180602001604052806000815250611ed9565b80611eb8846123e0565b604051602001611ec9929190613595565b6040516020818303038152906040525b915050919050565b600073ffffffffffffffffffffffffffffffffffffffff168273ffffffffffffffffffffffffffffffffffffffff1603611f50576040517f08c379a0000000000000000000000000000000000000000000000000000000008152600401611f4790613947565b60405180910390fd5b611f598161220c565b15611f99576040517f08c379a0000000000000000000000000000000000000000000000000000000008152600401611f90906139b3565b60405180910390fd5b611fa760008383600161224d565b611fb08161220c565b15611ff0576040517f08c379a0000000000000000000000000000000000000000000000000000000008152600401611fe7906139b3565b60405180910390fd5b6001600360008473ffffffffffffffffffffffffffffffffffffffff1673ffffffffffffffffffffffffffffffffffffffff16815260200190815260200160002060008282540192505081905550816002600083815260200190815260200160002060006101000a81548173ffffffffffffffffffffffffffffffffffffffff021916908373ffffffffffffffffffffffffffffffffffffffff160217905550808273ffffffffffffffffffffffffffffffffffffffff16600073ffffffffffffffffffffffffffffffffffffffff167fddf252ad1be2c89b69c2b068fc378daa952ba7f163c4a11628f55a4df523b3ef60405160405180910390a46120fa600083836001612253565b5050565b6121078261220c565b612146576040517f08c379a000000000000000000000000000000000000000000000000000000000815260040161213d90613a45565b60405180910390fd5b8060066000848152602001908152602001600020908161216691906132f7565b507ff8e1a15aba9398e019f0b49df1a4fde98ee17ae345cb5f6b5e2c27f5033e8ce7826040516121969190612baf565b60405180910390a15050565b60007f01ffc9a7000000000000000000000000000000000000000000000000000000007bffffffffffffffffffffffffffffffffffffffffffffffffffffffff1916827bffffffffffffffffffffffffffffffffffffffffffffffffffffffff1916149050919050565b60008073ffffffffffffffffffffffffffffffffffffffff1661222e83611c5d565b73ffffffffffffffffffffffffffffffffffffffff1614159050919050565b50505050565b50505050565b600061227a8473ffffffffffffffffffffffffffffffffffffffff166124ae565b156123d3578373ffffffffffffffffffffffffffffffffffffffff1663150b7a026122a361180e565b8786866040518563ffffffff1660e01b81526004016122c59493929190613aba565b6020604051808303816000875af192505050801561230157506040513d601f19601f820116820180604052508101906122fe9190613b1b565b60015b612383573d8060008114612331576040519150601f19603f3d011682016040523d82523d6000602084013e612336565b606091505b50600081510361237b576040517f08c379a0000000000000000000000000000000000000000000000000000000008152600401612372906138db565b60405180910390fd5b805181602001fd5b63150b7a0260e01b7bffffffffffffffffffffffffffffffffffffffffffffffffffffffff1916817bffffffffffffffffffffffffffffffffffffffffffffffffffffffff1916149150506123d8565b600190505b949350505050565b6060600060016123ef846124d1565b01905060008167ffffffffffffffff81111561240e5761240d6128da565b5b6040519080825280601f01601f1916602001820160405280156124405781602001600182028036833780820191505090505b509050600082602001820190505b6001156124a3578080600190039150507f3031323334353637383961626364656600000000000000000000000000000000600a86061a8153600a858161249757612496613b48565b5b0494506000850361244e575b819350505050919050565b6000808273ffffffffffffffffffffffffffffffffffffffff163b119050919050565b600080600090507a184f03e93ff9f4daa797ed6e38ed64bf6a1f010000000000000000831061252f577a184f03e93ff9f4daa797ed6e38ed64bf6a1f010000000000000000838161252557612524613b48565b5b0492506040810190505b6d04ee2d6d415b85acef8100000000831061256c576d04ee2d6d415b85acef8100000000838161256257612561613b48565b5b0492506020810190505b662386f26fc10000831061259b57662386f26fc10000838161259157612590613b48565b5b0492506010810190505b6305f5e10083106125c4576305f5e10083816125ba576125b9613b48565b5b0492506008810190505b61271083106125e95761271083816125df576125de613b48565b5b0492506004810190505b6064831061260c576064838161260257612601613b48565b5b0492506002810190505b600a831061261b576001810190505b80915050919050565b6000604051905090565b600080fd5b600080fd5b60007fffffffff0000000000000000000000000000000000000000000000000000000082169050919050565b61266d81612638565b811461267857600080fd5b50565b60008135905061268a81612664565b92915050565b6000602082840312156126a6576126a561262e565b5b60006126b48482850161267b565b91505092915050565b60008115159050919050565b6126d2816126bd565b82525050565b60006020820190506126ed60008301846126c9565b92915050565b600081519050919050565b600082825260208201905092915050565b60005b8381101561272d578082015181840152602081019050612712565b60008484015250505050565b6000601f19601f8301169050919050565b6000612755826126f3565b61275f81856126fe565b935061276f81856020860161270f565b61277881612739565b840191505092915050565b6000602082019050818103600083015261279d818461274a565b905092915050565b6000819050919050565b6127b8816127a5565b81146127c357600080fd5b50565b6000813590506127d5816127af565b92915050565b6000602082840312156127f1576127f061262e565b5b60006127ff848285016127c6565b91505092915050565b600073ffffffffffffffffffffffffffffffffffffffff82169050919050565b600061283382612808565b9050919050565b61284381612828565b82525050565b600060208201905061285e600083018461283a565b92915050565b61286d81612828565b811461287857600080fd5b50565b60008135905061288a81612864565b92915050565b600080604083850312156128a7576128a661262e565b5b60006128b58582860161287b565b92505060206128c6858286016127c6565b9150509250929050565b600080fd5b600080fd5b7f4e487b7100000000000000000000000000000000000000000000000000000000600052604160045260246000fd5b61291282612739565b810181811067ffffffffffffffff82111715612931576129306128da565b5b80604052505050565b6000612944612624565b90506129508282612909565b919050565b600067ffffffffffffffff8211156129705761296f6128da565b5b61297982612739565b9050602081019050919050565b82818337600083830152505050565b60006129a86129a384612955565b61293a565b9050828152602081018484840111156129c4576129c36128d5565b5b6129cf848285612986565b509392505050565b600082601f8301126129ec576129eb6128d0565b5b81356129fc848260208601612995565b91505092915050565b600080600080600060a08688031215612a2157612a2061262e565b5b600086013567ffffffffffffffff811115612a3f57612a3e612633565b5b612a4b888289016129d7565b955050602086013567ffffffffffffffff811115612a6c57612a6b612633565b5b612a78888289016129d7565b945050604086013567ffffffffffffffff811115612a9957612a98612633565b5b612aa5888289016129d7565b935050606086013567ffffffffffffffff811115612ac657612ac5612633565b5b612ad2888289016129d7565b9250506080612ae3888289016127c6565b9150509295509295909350565b600080600060608486031215612b0957612b0861262e565b5b6000612b178682870161287b565b9350506020612b288682870161287b565b9250506040612b39868287016127c6565b9150509250925092565b600060208284031215612b5957612b5861262e565b5b6000612b678482850161287b565b91505092915050565b6000604082019050612b85600083018561283a565b8181036020830152612b97818461274a565b90509392505050565b612ba9816127a5565b82525050565b6000602082019050612bc46000830184612ba0565b92915050565b612bd3816126bd565b8114612bde57600080fd5b50565b600081359050612bf081612bca565b92915050565b60008060408385031215612c0d57612c0c61262e565b5b6000612c1b8582860161287b565b9250506020612c2c85828601612be1565b9150509250929050565b600060e0820190508181036000830152612c50818a61274a565b90508181036020830152612c64818961274a565b90508181036040830152612c78818861274a565b90508181036060830152612c8c818761274a565b9050612c9b6080830186612ba0565b81810360a0830152612cad818561274a565b9050612cbc60c08301846126c9565b98975050505050505050565b600067ffffffffffffffff821115612ce357612ce26128da565b5b612cec82612739565b9050602081019050919050565b6000612d0c612d0784612cc8565b61293a565b905082815260208101848484011115612d2857612d276128d5565b5b612d33848285612986565b509392505050565b600082601f830112612d5057612d4f6128d0565b5b8135612d60848260208601612cf9565b91505092915050565b60008060008060808587031215612d8357612d8261262e565b5b6000612d918782880161287b565b9450506020612da28782880161287b565b9350506040612db3878288016127c6565b925050606085013567ffffffffffffffff811115612dd457612dd3612633565b5b612de087828801612d3b565b91505092959194509250565b600060a0820190508181036000830152612e06818861274a565b90508181036020830152612e1a818761274a565b90508181036040830152612e2e818661274a565b90508181036060830152612e42818561274a565b9050612e516080830184612ba0565b9695505050505050565b600080fd5b600080fd5b60008083601f840112612e7b57612e7a6128d0565b5b8235905067ffffffffffffffff811115612e9857612e97612e5b565b5b602083019150836001820283011115612eb457612eb3612e60565b5b9250929050565b600080600060408486031215612ed457612ed361262e565b5b6000612ee28682870161287b565b935050602084013567ffffffffffffffff811115612f0357612f02612633565b5b612f0f86828701612e65565b92509250509250925092565b60008060408385031215612f3257612f3161262e565b5b6000612f408582860161287b565b9250506020612f518582860161287b565b9150509250929050565b7f4e487b7100000000000000000000000000000000000000000000000000000000600052602260045260246000fd5b60006002820490506001821680612fa257607f821691505b602082108103612fb557612fb4612f5b565b5b50919050565b7f4552433732313a20617070726f76616c20746f2063757272656e74206f776e6560008201527f7200000000000000000000000000000000000000000000000000000000000000602082015250565b60006130176021836126fe565b915061302282612fbb565b604082019050919050565b600060208201905081810360008301526130468161300a565b9050919050565b7f4552433732313a20617070726f76652063616c6c6572206973206e6f7420746f60008201527f6b656e206f776e6572206f7220617070726f76656420666f7220616c6c000000602082015250565b60006130a9603d836126fe565b91506130b48261304d565b604082019050919050565b600060208201905081810360008301526130d88161309c565b9050919050565b7f5573657220697320616c72656164792072656769737465726564000000000000600082015250565b6000613115601a836126fe565b9150613120826130df565b602082019050919050565b6000602082019050818103600083015261314481613108565b9050919050565b60008190508160005260206000209050919050565b60006020601f8301049050919050565b600082821b905092915050565b6000600883026131ad7fffffffffffffffffffffffffffffffffffffffffffffffffffffffffffffffff82613170565b6131b78683613170565b95508019841693508086168417925050509392505050565b6000819050919050565b60006131f46131ef6131ea846127a5565b6131cf565b6127a5565b9050919050565b6000819050919050565b61320e836131d9565b61322261321a826131fb565b84845461317d565b825550505050565b600090565b61323761322a565b613242818484613205565b505050565b5b818110156132665761325b60008261322f565b600181019050613248565b5050565b601f8211156132ab5761327c8161314b565b61328584613160565b81016020851015613294578190505b6132a86132a085613160565b830182613247565b50505b505050565b600082821c905092915050565b60006132ce600019846008026132b0565b1980831691505092915050565b60006132e783836132bd565b9150826002028217905092915050565b613300826126f3565b67ffffffffffffffff811115613319576133186128da565b5b6133238254612f8a565b61332e82828561326a565b600060209050601f831160018114613361576000841561334f578287015190505b61335985826132db565b8655506133c1565b601f19841661336f8661314b565b60005b8281101561339757848901518255600182019150602085019450602081019050613372565b868310156133b457848901516133b0601f8916826132bd565b8355505b6001600288020188555050505b505050505050565b7f4552433732313a2063616c6c6572206973206e6f7420746f6b656e206f776e6560008201527f72206f7220617070726f76656400000000000000000000000000000000000000602082015250565b6000613425602d836126fe565b9150613430826133c9565b604082019050919050565b6000602082019050818103600083015261345481613418565b9050919050565b7f4552433732313a20696e76616c696420746f6b656e2049440000000000000000600082015250565b60006134916018836126fe565b915061349c8261345b565b602082019050919050565b600060208201905081810360008301526134c081613484565b9050919050565b7f4552433732313a2061646472657373207a65726f206973206e6f74206120766160008201527f6c6964206f776e65720000000000000000000000000000000000000000000000602082015250565b60006135236029836126fe565b915061352e826134c7565b604082019050919050565b6000602082019050818103600083015261355281613516565b9050919050565b600081905092915050565b600061356f826126f3565b6135798185613559565b935061358981856020860161270f565b80840191505092915050565b60006135a18285613564565b91506135ad8284613564565b91508190509392505050565b7f55736572206973206e6f74207265676973746572656400000000000000000000600082015250565b60006135ef6016836126fe565b91506135fa826135b9565b602082019050919050565b6000602082019050818103600083015261361e816135e2565b9050919050565b7f4e487b7100000000000000000000000000000000000000000000000000000000600052601160045260246000fd5b600061365f826127a5565b915061366a836127a5565b925082820190508082111561368257613681613625565b5b92915050565b600061369483856126fe565b93506136a1838584612986565b6136aa83612739565b840190509392505050565b600060208201905081810360008301526136d0818486613688565b90509392505050565b7f4552433732313a207472616e736665722066726f6d20696e636f72726563742060008201527f6f776e6572000000000000000000000000000000000000000000000000000000602082015250565b60006137356025836126fe565b9150613740826136d9565b604082019050919050565b6000602082019050818103600083015261376481613728565b9050919050565b7f4552433732313a207472616e7366657220746f20746865207a65726f2061646460008201527f7265737300000000000000000000000000000000000000000000000000000000602082015250565b60006137c76024836126fe565b91506137d28261376b565b604082019050919050565b600060208201905081810360008301526137f6816137ba565b9050919050565b7f4552433732313a20617070726f766520746f2063616c6c657200000000000000600082015250565b60006138336019836126fe565b915061383e826137fd565b602082019050919050565b6000602082019050818103600083015261386281613826565b9050919050565b7f4552433732313a207472616e7366657220746f206e6f6e20455243373231526560008201527f63656976657220696d706c656d656e7465720000000000000000000000000000602082015250565b60006138c56032836126fe565b91506138d082613869565b604082019050919050565b600060208201905081810360008301526138f4816138b8565b9050919050565b7f4552433732313a206d696e7420746f20746865207a65726f2061646472657373600082015250565b60006139316020836126fe565b915061393c826138fb565b602082019050919050565b6000602082019050818103600083015261396081613924565b9050919050565b7f4552433732313a20746f6b656e20616c7265616479206d696e74656400000000600082015250565b600061399d601c836126fe565b91506139a882613967565b602082019050919050565b600060208201905081810360008301526139cc81613990565b9050919050565b7f45524337323155524953746f726167653a2055524920736574206f66206e6f6e60008201527f6578697374656e7420746f6b656e000000000000000000000000000000000000602082015250565b6000613a2f602e836126fe565b9150613a3a826139d3565b604082019050919050565b60006020820190508181036000830152613a5e81613a22565b9050919050565b600081519050919050565b600082825260208201905092915050565b6000613a8c82613a65565b613a968185613a70565b9350613aa681856020860161270f565b613aaf81612739565b840191505092915050565b6000608082019050613acf600083018761283a565b613adc602083018661283a565b613ae96040830185612ba0565b8181036060830152613afb8184613a81565b905095945050505050565b600081519050613b1581612664565b92915050565b600060208284031215613b3157613b3061262e565b5b6000613b3f84828501613b06565b91505092915050565b7f4e487b7100000000000000000000000000000000000000000000000000000000600052601260045260246000fdfea2646970667358221220446ddc87287dd60901ae036bf295b5ea46664cb48da073ceb8c6165becb88c1764736f6c63430008130033",
  "immutableReferences": {},
  "source": "// SPDX-License-Identifier: MIT\r\npragma solidity 0.8.19;\r\nimport \"@openzeppelin/contracts/token/ERC721/extensions/ERC721URIStorage.sol\";\r\n\r\ncontract UserRegistration is ERC721URIStorage {\r\n    struct User {\r\n        string name;\r\n        string email;\r\n        string phone;\r\n        string addressuser;\r\n        uint256 pincode;\r\n        string role;\r\n        bool isRegistered;\r\n    }\r\n\r\n    struct Admin {\r\n        address metamask_address;\r\n        string role;\r\n    }\r\n\r\n    mapping(address => User) public users;\r\n    mapping(address => Admin) public admin;\r\n\r\n    event UserRegistered(\r\n        address indexed userAddress,\r\n        string name,\r\n        string email,\r\n        string phone,\r\n        string addressuser,\r\n        uint256 pincode\r\n    );\r\n    event Minted(address indexed to, uint256 indexed tokenId, string uri);\r\n\r\n    modifier notRegistered() {\r\n        require(!users[msg.sender].isRegistered, \"User is already registered\");\r\n        _;\r\n    }\r\n\r\n     uint256 tokenId ;\r\n    constructor() ERC721(\"PropertyItem\", \"PI\") {\r\n        tokenId = 0;\r\n    }\r\n\r\n    function mint(\r\n        address _to,\r\n        string calldata _uri\r\n    ) external { //returns (uint256)\r\n        tokenId = tokenId + 1;\r\n        _mint(_to, tokenId);\r\n        _setTokenURI(tokenId, _uri);\r\n        // return tokenId;\r\n\r\n        emit Minted(_to, tokenId, _uri);\r\n    }\r\n\r\n    function registerUser(\r\n        string memory _name,\r\n        string memory _email,\r\n        string memory _phone,\r\n        string memory _addressuser,\r\n        uint256 _pincode\r\n    ) external notRegistered {\r\n        // Perform additional validation if needed\r\n\r\n        // Create a new user\r\n        User storage newUser = users[msg.sender];\r\n        newUser.name = _name;\r\n        newUser.email = _email;\r\n        newUser.phone = _phone;\r\n        newUser.addressuser = _addressuser;\r\n        newUser.pincode = _pincode;\r\n        newUser.role = \"user\";\r\n        newUser.isRegistered = true;\r\n\r\n        emit UserRegistered(\r\n            msg.sender,\r\n            _name,\r\n            _email,\r\n            _phone,\r\n            _addressuser,\r\n            _pincode\r\n        );\r\n    }\r\n\r\n    function registerAdmin(address _addressuser) external notRegistered {\r\n        // Perform additional validation if needed\r\n\r\n        // Create a new user\r\n        Admin storage newAdmin = admin[_addressuser];\r\n        newAdmin.role = \"admin\";\r\n    }\r\n\r\n    function getUserDetails(\r\n        address useraddr\r\n    )\r\n        external\r\n        view\r\n        returns (\r\n            string memory,\r\n            string memory,\r\n            string memory,\r\n            string memory,\r\n            uint256\r\n        )\r\n    {\r\n        User storage user = users[useraddr];\r\n        require(user.isRegistered, \"User is not registered\");\r\n\r\n        return (\r\n            user.name,\r\n            user.email,\r\n            user.phone,\r\n            user.addressuser,\r\n            user.pincode\r\n        );\r\n    }\r\n\r\n    function getUserBoolean(address useraddr) external view returns (bool) {\r\n        return users[useraddr].isRegistered;\r\n    }\r\n\r\n    function getUserRole(\r\n        address useraddr\r\n    ) external view returns (string memory) {\r\n        return users[useraddr].role;\r\n    }\r\n}\r\n",
  "sourcePath": "C:\\Users\\USER\\Documents\\vscode\\TSEC_Hackathon\\contracts\\User.sol",
  "compiler": {
    "name": "solc",
    "version": "0.8.19+commit.7dd6d404.Emscripten.clang"
  },
  "schemaVersion": "3.4.13",
  "updatedAt": "2024-01-31T17:04:18.107Z",
  "networkType": "ethereum",
  "devdoc": {
    "events": {
      "Approval(address,address,uint256)": {
        "details": "Emitted when `owner` enables `approved` to manage the `tokenId` token."
      },
      "ApprovalForAll(address,address,bool)": {
        "details": "Emitted when `owner` enables or disables (`approved`) `operator` to manage all of its assets."
      },
      "BatchMetadataUpdate(uint256,uint256)": {
        "details": "This event emits when the metadata of a range of tokens is changed. So that the third-party platforms such as NFT market could timely update the images and related attributes of the NFTs."
      },
      "MetadataUpdate(uint256)": {
        "details": "This event emits when the metadata of a token is changed. So that the third-party platforms such as NFT market could timely update the images and related attributes of the NFT."
      },
      "Transfer(address,address,uint256)": {
        "details": "Emitted when `tokenId` token is transferred from `from` to `to`."
      }
    },
    "kind": "dev",
    "methods": {
      "approve(address,uint256)": {
        "details": "See {IERC721-approve}."
      },
      "balanceOf(address)": {
        "details": "See {IERC721-balanceOf}."
      },
      "getApproved(uint256)": {
        "details": "See {IERC721-getApproved}."
      },
      "isApprovedForAll(address,address)": {
        "details": "See {IERC721-isApprovedForAll}."
      },
      "name()": {
        "details": "See {IERC721Metadata-name}."
      },
      "ownerOf(uint256)": {
        "details": "See {IERC721-ownerOf}."
      },
      "safeTransferFrom(address,address,uint256)": {
        "details": "See {IERC721-safeTransferFrom}."
      },
      "safeTransferFrom(address,address,uint256,bytes)": {
        "details": "See {IERC721-safeTransferFrom}."
      },
      "setApprovalForAll(address,bool)": {
        "details": "See {IERC721-setApprovalForAll}."
      },
      "supportsInterface(bytes4)": {
        "details": "See {IERC165-supportsInterface}"
      },
      "symbol()": {
        "details": "See {IERC721Metadata-symbol}."
      },
      "tokenURI(uint256)": {
        "details": "See {IERC721Metadata-tokenURI}."
      },
      "transferFrom(address,address,uint256)": {
        "details": "See {IERC721-transferFrom}."
      }
    },
    "version": 1
  },
  "userdoc": {
    "kind": "user",
    "methods": {},
    "version": 1
  }
}