{
  "contractName": "UserRegistration",
  "abi": [
    {
      "inputs": [],
      "stateMutability": "nonpayable",
      "type": "constructor"
    },
    {
      "anonymous": false,
      "inputs": [
        {
          "indexed": true,
          "internalType": "address",
          "name": "owner",
          "type": "address"
        },
        {
          "indexed": true,
          "internalType": "address",
          "name": "approved",
          "type": "address"
        },
        {
          "indexed": true,
          "internalType": "uint256",
          "name": "tokenId",
          "type": "uint256"
        }
      ],
      "name": "Approval",
      "type": "event"
    },
    {
      "anonymous": false,
      "inputs": [
        {
          "indexed": true,
          "internalType": "address",
          "name": "owner",
          "type": "address"
        },
        {
          "indexed": true,
          "internalType": "address",
          "name": "operator",
          "type": "address"
        },
        {
          "indexed": false,
          "internalType": "bool",
          "name": "approved",
          "type": "bool"
        }
      ],
      "name": "ApprovalForAll",
      "type": "event"
    },
    {
      "anonymous": false,
      "inputs": [
        {
          "indexed": false,
          "internalType": "uint256",
          "name": "_fromTokenId",
          "type": "uint256"
        },
        {
          "indexed": false,
          "internalType": "uint256",
          "name": "_toTokenId",
          "type": "uint256"
        }
      ],
      "name": "BatchMetadataUpdate",
      "type": "event"
    },
    {
      "anonymous": false,
      "inputs": [
        {
          "indexed": false,
          "internalType": "uint256",
          "name": "_tokenId",
          "type": "uint256"
        }
      ],
      "name": "MetadataUpdate",
      "type": "event"
    },
    {
      "anonymous": false,
      "inputs": [
        {
          "indexed": true,
          "internalType": "address",
          "name": "from",
          "type": "address"
        },
        {
          "indexed": true,
          "internalType": "address",
          "name": "to",
          "type": "address"
        },
        {
          "indexed": true,
          "internalType": "uint256",
          "name": "tokenId",
          "type": "uint256"
        }
      ],
      "name": "Transfer",
      "type": "event"
    },
    {
      "anonymous": false,
      "inputs": [
        {
          "indexed": true,
          "internalType": "address",
          "name": "userAddress",
          "type": "address"
        },
        {
          "indexed": false,
          "internalType": "string",
          "name": "name",
          "type": "string"
        },
        {
          "indexed": false,
          "internalType": "string",
          "name": "email",
          "type": "string"
        },
        {
          "indexed": false,
          "internalType": "string",
          "name": "phone",
          "type": "string"
        },
        {
          "indexed": false,
          "internalType": "string",
          "name": "addressuser",
          "type": "string"
        },
        {
          "indexed": false,
          "internalType": "uint256",
          "name": "pincode",
          "type": "uint256"
        }
      ],
      "name": "UserRegistered",
      "type": "event"
    },
    {
      "inputs": [
        {
          "internalType": "address",
          "name": "",
          "type": "address"
        }
      ],
      "name": "admin",
      "outputs": [
        {
          "internalType": "address",
          "name": "metamask_address",
          "type": "address"
        },
        {
          "internalType": "string",
          "name": "role",
          "type": "string"
        }
      ],
      "stateMutability": "view",
      "type": "function",
      "constant": true
    },
    {
      "inputs": [
        {
          "internalType": "address",
          "name": "to",
          "type": "address"
        },
        {
          "internalType": "uint256",
          "name": "tokenId",
          "type": "uint256"
        }
      ],
      "name": "approve",
      "outputs": [],
      "stateMutability": "nonpayable",
      "type": "function"
    },
    {
      "inputs": [
        {
          "internalType": "address",
          "name": "owner",
          "type": "address"
        }
      ],
      "name": "balanceOf",
      "outputs": [
        {
          "internalType": "uint256",
          "name": "",
          "type": "uint256"
        }
      ],
      "stateMutability": "view",
      "type": "function",
      "constant": true
    },
    {
      "inputs": [
        {
          "internalType": "uint256",
          "name": "tokenId",
          "type": "uint256"
        }
      ],
      "name": "getApproved",
      "outputs": [
        {
          "internalType": "address",
          "name": "",
          "type": "address"
        }
      ],
      "stateMutability": "view",
      "type": "function",
      "constant": true
    },
    {
      "inputs": [
        {
          "internalType": "address",
          "name": "owner",
          "type": "address"
        },
        {
          "internalType": "address",
          "name": "operator",
          "type": "address"
        }
      ],
      "name": "isApprovedForAll",
      "outputs": [
        {
          "internalType": "bool",
          "name": "",
          "type": "bool"
        }
      ],
      "stateMutability": "view",
      "type": "function",
      "constant": true
    },
    {
      "inputs": [],
      "name": "name",
      "outputs": [
        {
          "internalType": "string",
          "name": "",
          "type": "string"
        }
      ],
      "stateMutability": "view",
      "type": "function",
      "constant": true
    },
    {
      "inputs": [
        {
          "internalType": "uint256",
          "name": "tokenId",
          "type": "uint256"
        }
      ],
      "name": "ownerOf",
      "outputs": [
        {
          "internalType": "address",
          "name": "",
          "type": "address"
        }
      ],
      "stateMutability": "view",
      "type": "function",
      "constant": true
    },
    {
      "inputs": [
        {
          "internalType": "address",
          "name": "from",
          "type": "address"
        },
        {
          "internalType": "address",
          "name": "to",
          "type": "address"
        },
        {
          "internalType": "uint256",
          "name": "tokenId",
          "type": "uint256"
        }
      ],
      "name": "safeTransferFrom",
      "outputs": [],
      "stateMutability": "nonpayable",
      "type": "function"
    },
    {
      "inputs": [
        {
          "internalType": "address",
          "name": "from",
          "type": "address"
        },
        {
          "internalType": "address",
          "name": "to",
          "type": "address"
        },
        {
          "internalType": "uint256",
          "name": "tokenId",
          "type": "uint256"
        },
        {
          "internalType": "bytes",
          "name": "data",
          "type": "bytes"
        }
      ],
      "name": "safeTransferFrom",
      "outputs": [],
      "stateMutability": "nonpayable",
      "type": "function"
    },
    {
      "inputs": [
        {
          "internalType": "address",
          "name": "operator",
          "type": "address"
        },
        {
          "internalType": "bool",
          "name": "approved",
          "type": "bool"
        }
      ],
      "name": "setApprovalForAll",
      "outputs": [],
      "stateMutability": "nonpayable",
      "type": "function"
    },
    {
      "inputs": [
        {
          "internalType": "bytes4",
          "name": "interfaceId",
          "type": "bytes4"
        }
      ],
      "name": "supportsInterface",
      "outputs": [
        {
          "internalType": "bool",
          "name": "",
          "type": "bool"
        }
      ],
      "stateMutability": "view",
      "type": "function",
      "constant": true
    },
    {
      "inputs": [],
      "name": "symbol",
      "outputs": [
        {
          "internalType": "string",
          "name": "",
          "type": "string"
        }
      ],
      "stateMutability": "view",
      "type": "function",
      "constant": true
    },
    {
      "inputs": [
        {
          "internalType": "uint256",
          "name": "tokenId",
          "type": "uint256"
        }
      ],
      "name": "tokenURI",
      "outputs": [
        {
          "internalType": "string",
          "name": "",
          "type": "string"
        }
      ],
      "stateMutability": "view",
      "type": "function",
      "constant": true
    },
    {
      "inputs": [
        {
          "internalType": "address",
          "name": "from",
          "type": "address"
        },
        {
          "internalType": "address",
          "name": "to",
          "type": "address"
        },
        {
          "internalType": "uint256",
          "name": "tokenId",
          "type": "uint256"
        }
      ],
      "name": "transferFrom",
      "outputs": [],
      "stateMutability": "nonpayable",
      "type": "function"
    },
    {
      "inputs": [
        {
          "internalType": "address",
          "name": "",
          "type": "address"
        }
      ],
      "name": "users",
      "outputs": [
        {
          "internalType": "string",
          "name": "name",
          "type": "string"
        },
        {
          "internalType": "string",
          "name": "email",
          "type": "string"
        },
        {
          "internalType": "string",
          "name": "phone",
          "type": "string"
        },
        {
          "internalType": "string",
          "name": "addressuser",
          "type": "string"
        },
        {
          "internalType": "uint256",
          "name": "pincode",
          "type": "uint256"
        },
        {
          "internalType": "string",
          "name": "role",
          "type": "string"
        },
        {
          "internalType": "bool",
          "name": "isRegistered",
          "type": "bool"
        }
      ],
      "stateMutability": "view",
      "type": "function",
      "constant": true
    },
    {
      "inputs": [
        {
          "internalType": "address",
          "name": "_to",
          "type": "address"
        },
        {
          "internalType": "string",
          "name": "_uri",
          "type": "string"
        }
      ],
      "name": "mint",
      "outputs": [
        {
          "internalType": "uint256",
          "name": "",
          "type": "uint256"
        }
      ],
      "stateMutability": "nonpayable",
      "type": "function"
    },
    {
      "inputs": [
        {
          "internalType": "string",
          "name": "_name",
          "type": "string"
        },
        {
          "internalType": "string",
          "name": "_email",
          "type": "string"
        },
        {
          "internalType": "string",
          "name": "_phone",
          "type": "string"
        },
        {
          "internalType": "string",
          "name": "_addressuser",
          "type": "string"
        },
        {
          "internalType": "uint256",
          "name": "_pincode",
          "type": "uint256"
        }
      ],
      "name": "registerUser",
      "outputs": [],
      "stateMutability": "nonpayable",
      "type": "function"
    },
    {
      "inputs": [
        {
          "internalType": "address",
          "name": "_addressuser",
          "type": "address"
        }
      ],
      "name": "registerAdmin",
      "outputs": [],
      "stateMutability": "nonpayable",
      "type": "function"
    },
    {
      "inputs": [
        {
          "internalType": "address",
          "name": "useraddr",
          "type": "address"
        }
      ],
      "name": "getUserDetails",
      "outputs": [
        {
          "internalType": "string",
          "name": "",
          "type": "string"
        },
        {
          "internalType": "string",
          "name": "",
          "type": "string"
        },
        {
          "internalType": "string",
          "name": "",
          "type": "string"
        },
        {
          "internalType": "string",
          "name": "",
          "type": "string"
        },
        {
          "internalType": "uint256",
          "name": "",
          "type": "uint256"
        }
      ],
      "stateMutability": "view",
      "type": "function",
      "constant": true
    },
    {
      "inputs": [
        {
          "internalType": "address",
          "name": "useraddr",
          "type": "address"
        }
      ],
      "name": "getUserBoolean",
      "outputs": [
        {
          "internalType": "bool",
          "name": "",
          "type": "bool"
        }
      ],
      "stateMutability": "view",
      "type": "function",
      "constant": true
    },
    {
      "inputs": [
        {
          "internalType": "address",
          "name": "useraddr",
          "type": "address"
        }
      ],
      "name": "getUserRole",
      "outputs": [
        {
          "internalType": "string",
          "name": "",
          "type": "string"
        }
      ],
      "stateMutability": "view",
      "type": "function",
      "constant": true
    }
  ],
  "bytecode": "0x60806040523480156200001157600080fd5b506040518060400160405280600c81526020017f50726f70657274794974656d00000000000000000000000000000000000000008152506040518060400160405280600281526020017f504900000000000000000000000000000000000000000000000000000000000081525081600090816200008f91906200032c565b508060019081620000a191906200032c565b505050600060098190555062000413565b600081519050919050565b7f4e487b7100000000000000000000000000000000000000000000000000000000600052604160045260246000fd5b7f4e487b7100000000000000000000000000000000000000000000000000000000600052602260045260246000fd5b600060028204905060018216806200013457607f821691505b6020821081036200014a5762000149620000ec565b5b50919050565b60008190508160005260206000209050919050565b60006020601f8301049050919050565b600082821b905092915050565b600060088302620001b47fffffffffffffffffffffffffffffffffffffffffffffffffffffffffffffffff8262000175565b620001c0868362000175565b95508019841693508086168417925050509392505050565b6000819050919050565b6000819050919050565b60006200020d620002076200020184620001d8565b620001e2565b620001d8565b9050919050565b6000819050919050565b6200022983620001ec565b62000241620002388262000214565b84845462000182565b825550505050565b600090565b6200025862000249565b620002658184846200021e565b505050565b5b818110156200028d57620002816000826200024e565b6001810190506200026b565b5050565b601f821115620002dc57620002a68162000150565b620002b18462000165565b81016020851015620002c1578190505b620002d9620002d08562000165565b8301826200026a565b50505b505050565b600082821c905092915050565b60006200030160001984600802620002e1565b1980831691505092915050565b60006200031c8383620002ee565b9150826002028217905092915050565b6200033782620000b2565b67ffffffffffffffff811115620003535762000352620000bd565b5b6200035f82546200011b565b6200036c82828562000291565b600060209050601f831160018114620003a457600084156200038f578287015190505b6200039b85826200030e565b8655506200040b565b601f198416620003b48662000150565b60005b82811015620003de57848901518255600182019150602085019450602081019050620003b7565b86831015620003fe5784890151620003fa601f891682620002ee565b8355505b6001600288020188555050505b505050505050565b613aae80620004236000396000f3fe608060405234801561001057600080fd5b50600436106101375760003560e01c806363a846f8116100b8578063b88d4fde1161007c578063b88d4fde1461038b578063c38c5813146103a7578063c87b56dd146103c3578063cc3d967b146103f3578063d0def52114610427578063e985e9c51461045757610137565b806363a846f8146102ba57806370a08231146102eb57806395d89b411461031b578063a22cb46514610339578063a87430ba1461035557610137565b806323b872dd116100ff57806323b872dd146101f2578063278208511461020e57806342842e0e1461023e57806346ed7e171461025a5780636352211e1461028a57610137565b806301ffc9a71461013c57806306fdde031461016c578063081812fc1461018a578063095ea7b3146101ba5780630c89338a146101d6575b600080fd5b61015660048036038101906101519190612645565b610487565b604051610163919061268d565b60405180910390f35b6101746104e8565b6040516101819190612738565b60405180910390f35b6101a4600480360381019061019f9190612790565b61057a565b6040516101b191906127fe565b60405180910390f35b6101d460048036038101906101cf9190612845565b6105c0565b005b6101f060048036038101906101eb91906129ba565b6106d7565b005b61020c60048036038101906102079190612aa5565b6108bd565b005b61022860048036038101906102239190612af8565b61091d565b6040516102359190612738565b60405180910390f35b61025860048036038101906102539190612aa5565b6109f1565b005b610274600480360381019061026f9190612af8565b610a11565b604051610281919061268d565b60405180910390f35b6102a4600480360381019061029f9190612790565b610a6a565b6040516102b191906127fe565b60405180910390f35b6102d460048036038101906102cf9190612af8565b610af0565b6040516102e2929190612b25565b60405180910390f35b61030560048036038101906103009190612af8565b610bbc565b6040516103129190612b64565b60405180910390f35b610323610c73565b6040516103309190612738565b60405180910390f35b610353600480360381019061034e9190612bab565b610d05565b005b61036f600480360381019061036a9190612af8565b610d1b565b6040516103829796959493929190612beb565b60405180910390f35b6103a560048036038101906103a09190612d1e565b611012565b005b6103c160048036038101906103bc9190612af8565b611074565b005b6103dd60048036038101906103d89190612790565b611192565b6040516103ea9190612738565b60405180910390f35b61040d60048036038101906104089190612af8565b6112a4565b60405161041e959493929190612da1565b60405180910390f35b610441600480360381019061043c9190612e70565b611598565b60405161044e9190612b64565b60405180910390f35b610471600480360381019061046c9190612ed0565b611602565b60405161047e919061268d565b60405180910390f35b6000634906490660e01b7bffffffffffffffffffffffffffffffffffffffffffffffffffffffff1916827bffffffffffffffffffffffffffffffffffffffffffffffffffffffff191614806104e157506104e082611696565b5b9050919050565b6060600080546104f790612f3f565b80601f016020809104026020016040519081016040528092919081815260200182805461052390612f3f565b80156105705780601f1061054557610100808354040283529160200191610570565b820191906000526020600020905b81548152906001019060200180831161055357829003601f168201915b5050505050905090565b600061058582611778565b6004600083815260200190815260200160002060009054906101000a900473ffffffffffffffffffffffffffffffffffffffff169050919050565b60006105cb82610a6a565b90508073ffffffffffffffffffffffffffffffffffffffff168373ffffffffffffffffffffffffffffffffffffffff160361063b576040517f08c379a000000000000000000000000000000000000000000000000000000000815260040161063290612fe2565b60405180910390fd5b8073ffffffffffffffffffffffffffffffffffffffff1661065a6117c3565b73ffffffffffffffffffffffffffffffffffffffff1614806106895750610688816106836117c3565b611602565b5b6106c8576040517f08c379a00000000000000000000000000000000000000000000000000000000081526004016106bf90613074565b60405180910390fd5b6106d283836117cb565b505050565b600760003373ffffffffffffffffffffffffffffffffffffffff1673ffffffffffffffffffffffffffffffffffffffff16815260200190815260200160002060060160009054906101000a900460ff1615610767576040517f08c379a000000000000000000000000000000000000000000000000000000000815260040161075e906130e0565b60405180910390fd5b6000600760003373ffffffffffffffffffffffffffffffffffffffff1673ffffffffffffffffffffffffffffffffffffffff1681526020019081526020016000209050858160000190816107bb91906132ac565b50848160010190816107cd91906132ac565b50838160020190816107df91906132ac565b50828160030190816107f191906132ac565b508181600401819055506040518060400160405280600481526020017f757365720000000000000000000000000000000000000000000000000000000081525081600501908161084191906132ac565b5060018160060160006101000a81548160ff0219169083151502179055503373ffffffffffffffffffffffffffffffffffffffff167fc05e06a7662af94624e0bab99f7e2f85920e9e6386cc11bf027304240776565487878787876040516108ad959493929190612da1565b60405180910390a2505050505050565b6108ce6108c86117c3565b82611884565b61090d576040517f08c379a0000000000000000000000000000000000000000000000000000000008152600401610904906133f0565b60405180910390fd5b610918838383611919565b505050565b6060600760008373ffffffffffffffffffffffffffffffffffffffff1673ffffffffffffffffffffffffffffffffffffffff168152602001908152602001600020600501805461096c90612f3f565b80601f016020809104026020016040519081016040528092919081815260200182805461099890612f3f565b80156109e55780601f106109ba576101008083540402835291602001916109e5565b820191906000526020600020905b8154815290600101906020018083116109c857829003601f168201915b50505050509050919050565b610a0c83838360405180602001604052806000815250611012565b505050565b6000600760008373ffffffffffffffffffffffffffffffffffffffff1673ffffffffffffffffffffffffffffffffffffffff16815260200190815260200160002060060160009054906101000a900460ff169050919050565b600080610a7683611c12565b9050600073ffffffffffffffffffffffffffffffffffffffff168173ffffffffffffffffffffffffffffffffffffffff1603610ae7576040517f08c379a0000000000000000000000000000000000000000000000000000000008152600401610ade9061345c565b60405180910390fd5b80915050919050565b60086020528060005260406000206000915090508060000160009054906101000a900473ffffffffffffffffffffffffffffffffffffffff1690806001018054610b3990612f3f565b80601f0160208091040260200160405190810160405280929190818152602001828054610b6590612f3f565b8015610bb25780601f10610b8757610100808354040283529160200191610bb2565b820191906000526020600020905b815481529060010190602001808311610b9557829003601f168201915b5050505050905082565b60008073ffffffffffffffffffffffffffffffffffffffff168273ffffffffffffffffffffffffffffffffffffffff1603610c2c576040517f08c379a0000000000000000000000000000000000000000000000000000000008152600401610c23906134ee565b60405180910390fd5b600360008373ffffffffffffffffffffffffffffffffffffffff1673ffffffffffffffffffffffffffffffffffffffff168152602001908152602001600020549050919050565b606060018054610c8290612f3f565b80601f0160208091040260200160405190810160405280929190818152602001828054610cae90612f3f565b8015610cfb5780601f10610cd057610100808354040283529160200191610cfb565b820191906000526020600020905b815481529060010190602001808311610cde57829003601f168201915b5050505050905090565b610d17610d106117c3565b8383611c4f565b5050565b6007602052806000526040600020600091509050806000018054610d3e90612f3f565b80601f0160208091040260200160405190810160405280929190818152602001828054610d6a90612f3f565b8015610db75780601f10610d8c57610100808354040283529160200191610db7565b820191906000526020600020905b815481529060010190602001808311610d9a57829003601f168201915b505050505090806001018054610dcc90612f3f565b80601f0160208091040260200160405190810160405280929190818152602001828054610df890612f3f565b8015610e455780601f10610e1a57610100808354040283529160200191610e45565b820191906000526020600020905b815481529060010190602001808311610e2857829003601f168201915b505050505090806002018054610e5a90612f3f565b80601f0160208091040260200160405190810160405280929190818152602001828054610e8690612f3f565b8015610ed35780601f10610ea857610100808354040283529160200191610ed3565b820191906000526020600020905b815481529060010190602001808311610eb657829003601f168201915b505050505090806003018054610ee890612f3f565b80601f0160208091040260200160405190810160405280929190818152602001828054610f1490612f3f565b8015610f615780601f10610f3657610100808354040283529160200191610f61565b820191906000526020600020905b815481529060010190602001808311610f4457829003601f168201915b505050505090806004015490806005018054610f7c90612f3f565b80601f0160208091040260200160405190810160405280929190818152602001828054610fa890612f3f565b8015610ff55780601f10610fca57610100808354040283529160200191610ff5565b820191906000526020600020905b815481529060010190602001808311610fd857829003601f168201915b5050505050908060060160009054906101000a900460ff16905087565b61102361101d6117c3565b83611884565b611062576040517f08c379a0000000000000000000000000000000000000000000000000000000008152600401611059906133f0565b60405180910390fd5b61106e84848484611dbb565b50505050565b600760003373ffffffffffffffffffffffffffffffffffffffff1673ffffffffffffffffffffffffffffffffffffffff16815260200190815260200160002060060160009054906101000a900460ff1615611104576040517f08c379a00000000000000000000000000000000000000000000000000000000081526004016110fb906130e0565b60405180910390fd5b6000600860008373ffffffffffffffffffffffffffffffffffffffff1673ffffffffffffffffffffffffffffffffffffffff16815260200190815260200160002090506040518060400160405280600581526020017f61646d696e00000000000000000000000000000000000000000000000000000081525081600101908161118d91906132ac565b505050565b606061119d82611778565b60006006600084815260200190815260200160002080546111bd90612f3f565b80601f01602080910402602001604051908101604052809291908181526020018280546111e990612f3f565b80156112365780601f1061120b57610100808354040283529160200191611236565b820191906000526020600020905b81548152906001019060200180831161121957829003601f168201915b505050505090506000611247611e17565b9050600081510361125c57819250505061129f565b60008251111561129157808260405160200161127992919061354a565b6040516020818303038152906040529250505061129f565b61129a84611e2e565b925050505b919050565b606080606080600080600760008873ffffffffffffffffffffffffffffffffffffffff1673ffffffffffffffffffffffffffffffffffffffff16815260200190815260200160002090508060060160009054906101000a900460ff1661133f576040517f08c379a0000000000000000000000000000000000000000000000000000000008152600401611336906135ba565b60405180910390fd5b80600001816001018260020183600301846004015484805461136090612f3f565b80601f016020809104026020016040519081016040528092919081815260200182805461138c90612f3f565b80156113d95780601f106113ae576101008083540402835291602001916113d9565b820191906000526020600020905b8154815290600101906020018083116113bc57829003601f168201915b505050505094508380546113ec90612f3f565b80601f016020809104026020016040519081016040528092919081815260200182805461141890612f3f565b80156114655780601f1061143a57610100808354040283529160200191611465565b820191906000526020600020905b81548152906001019060200180831161144857829003601f168201915b5050505050935082805461147890612f3f565b80601f01602080910402602001604051908101604052809291908181526020018280546114a490612f3f565b80156114f15780601f106114c6576101008083540402835291602001916114f1565b820191906000526020600020905b8154815290600101906020018083116114d457829003601f168201915b5050505050925081805461150490612f3f565b80601f016020809104026020016040519081016040528092919081815260200182805461153090612f3f565b801561157d5780601f106115525761010080835404028352916020019161157d565b820191906000526020600020905b81548152906001019060200180831161156057829003601f168201915b50505050509150955095509550955095505091939590929450565b60006115a684600954611e96565b6115f660095484848080601f016020809104026020016040519081016040528093929190818152602001838380828437600081840152601f19601f820116905080830192505050505050506120b3565b60095490509392505050565b6000600560008473ffffffffffffffffffffffffffffffffffffffff1673ffffffffffffffffffffffffffffffffffffffff16815260200190815260200160002060008373ffffffffffffffffffffffffffffffffffffffff1673ffffffffffffffffffffffffffffffffffffffff16815260200190815260200160002060009054906101000a900460ff16905092915050565b60007f80ac58cd000000000000000000000000000000000000000000000000000000007bffffffffffffffffffffffffffffffffffffffffffffffffffffffff1916827bffffffffffffffffffffffffffffffffffffffffffffffffffffffff1916148061176157507f5b5e139f000000000000000000000000000000000000000000000000000000007bffffffffffffffffffffffffffffffffffffffffffffffffffffffff1916827bffffffffffffffffffffffffffffffffffffffffffffffffffffffff1916145b80611771575061177082612157565b5b9050919050565b611781816121c1565b6117c0576040517f08c379a00000000000000000000000000000000000000000000000000000000081526004016117b79061345c565b60405180910390fd5b50565b600033905090565b816004600083815260200190815260200160002060006101000a81548173ffffffffffffffffffffffffffffffffffffffff021916908373ffffffffffffffffffffffffffffffffffffffff160217905550808273ffffffffffffffffffffffffffffffffffffffff1661183e83610a6a565b73ffffffffffffffffffffffffffffffffffffffff167f8c5be1e5ebec7d5bd14f71427d1e84f3dd0314c0f7b2291e5b200ac8c7c3b92560405160405180910390a45050565b60008061189083610a6a565b90508073ffffffffffffffffffffffffffffffffffffffff168473ffffffffffffffffffffffffffffffffffffffff1614806118d257506118d18185611602565b5b8061191057508373ffffffffffffffffffffffffffffffffffffffff166118f88461057a565b73ffffffffffffffffffffffffffffffffffffffff16145b91505092915050565b8273ffffffffffffffffffffffffffffffffffffffff1661193982610a6a565b73ffffffffffffffffffffffffffffffffffffffff161461198f576040517f08c379a00000000000000000000000000000000000000000000000000000000081526004016119869061364c565b60405180910390fd5b600073ffffffffffffffffffffffffffffffffffffffff168273ffffffffffffffffffffffffffffffffffffffff16036119fe576040517f08c379a00000000000000000000000000000000000000000000000000000000081526004016119f5906136de565b60405180910390fd5b611a0b8383836001612202565b8273ffffffffffffffffffffffffffffffffffffffff16611a2b82610a6a565b73ffffffffffffffffffffffffffffffffffffffff1614611a81576040517f08c379a0000000000000000000000000000000000000000000000000000000008152600401611a789061364c565b60405180910390fd5b6004600082815260200190815260200160002060006101000a81549073ffffffffffffffffffffffffffffffffffffffff02191690556001600360008573ffffffffffffffffffffffffffffffffffffffff1673ffffffffffffffffffffffffffffffffffffffff168152602001908152602001600020600082825403925050819055506001600360008473ffffffffffffffffffffffffffffffffffffffff1673ffffffffffffffffffffffffffffffffffffffff16815260200190815260200160002060008282540192505081905550816002600083815260200190815260200160002060006101000a81548173ffffffffffffffffffffffffffffffffffffffff021916908373ffffffffffffffffffffffffffffffffffffffff160217905550808273ffffffffffffffffffffffffffffffffffffffff168473ffffffffffffffffffffffffffffffffffffffff167fddf252ad1be2c89b69c2b068fc378daa952ba7f163c4a11628f55a4df523b3ef60405160405180910390a4611c0d8383836001612208565b505050565b60006002600083815260200190815260200160002060009054906101000a900473ffffffffffffffffffffffffffffffffffffffff169050919050565b8173ffffffffffffffffffffffffffffffffffffffff168373ffffffffffffffffffffffffffffffffffffffff1603611cbd576040517f08c379a0000000000000000000000000000000000000000000000000000000008152600401611cb49061374a565b60405180910390fd5b80600560008573ffffffffffffffffffffffffffffffffffffffff1673ffffffffffffffffffffffffffffffffffffffff16815260200190815260200160002060008473ffffffffffffffffffffffffffffffffffffffff1673ffffffffffffffffffffffffffffffffffffffff16815260200190815260200160002060006101000a81548160ff0219169083151502179055508173ffffffffffffffffffffffffffffffffffffffff168373ffffffffffffffffffffffffffffffffffffffff167f17307eab39ab6107e8899845ad3d59bd9653f200f220920489ca2b5937696c3183604051611dae919061268d565b60405180910390a3505050565b611dc6848484611919565b611dd28484848461220e565b611e11576040517f08c379a0000000000000000000000000000000000000000000000000000000008152600401611e08906137dc565b60405180910390fd5b50505050565b606060405180602001604052806000815250905090565b6060611e3982611778565b6000611e43611e17565b90506000815111611e635760405180602001604052806000815250611e8e565b80611e6d84612395565b604051602001611e7e92919061354a565b6040516020818303038152906040525b915050919050565b600073ffffffffffffffffffffffffffffffffffffffff168273ffffffffffffffffffffffffffffffffffffffff1603611f05576040517f08c379a0000000000000000000000000000000000000000000000000000000008152600401611efc90613848565b60405180910390fd5b611f0e816121c1565b15611f4e576040517f08c379a0000000000000000000000000000000000000000000000000000000008152600401611f45906138b4565b60405180910390fd5b611f5c600083836001612202565b611f65816121c1565b15611fa5576040517f08c379a0000000000000000000000000000000000000000000000000000000008152600401611f9c906138b4565b60405180910390fd5b6001600360008473ffffffffffffffffffffffffffffffffffffffff1673ffffffffffffffffffffffffffffffffffffffff16815260200190815260200160002060008282540192505081905550816002600083815260200190815260200160002060006101000a81548173ffffffffffffffffffffffffffffffffffffffff021916908373ffffffffffffffffffffffffffffffffffffffff160217905550808273ffffffffffffffffffffffffffffffffffffffff16600073ffffffffffffffffffffffffffffffffffffffff167fddf252ad1be2c89b69c2b068fc378daa952ba7f163c4a11628f55a4df523b3ef60405160405180910390a46120af600083836001612208565b5050565b6120bc826121c1565b6120fb576040517f08c379a00000000000000000000000000000000000000000000000000000000081526004016120f290613946565b60405180910390fd5b8060066000848152602001908152602001600020908161211b91906132ac565b507ff8e1a15aba9398e019f0b49df1a4fde98ee17ae345cb5f6b5e2c27f5033e8ce78260405161214b9190612b64565b60405180910390a15050565b60007f01ffc9a7000000000000000000000000000000000000000000000000000000007bffffffffffffffffffffffffffffffffffffffffffffffffffffffff1916827bffffffffffffffffffffffffffffffffffffffffffffffffffffffff1916149050919050565b60008073ffffffffffffffffffffffffffffffffffffffff166121e383611c12565b73ffffffffffffffffffffffffffffffffffffffff1614159050919050565b50505050565b50505050565b600061222f8473ffffffffffffffffffffffffffffffffffffffff16612463565b15612388578373ffffffffffffffffffffffffffffffffffffffff1663150b7a026122586117c3565b8786866040518563ffffffff1660e01b815260040161227a94939291906139bb565b6020604051808303816000875af19250505080156122b657506040513d601f19601f820116820180604052508101906122b39190613a1c565b60015b612338573d80600081146122e6576040519150601f19603f3d011682016040523d82523d6000602084013e6122eb565b606091505b506000815103612330576040517f08c379a0000000000000000000000000000000000000000000000000000000008152600401612327906137dc565b60405180910390fd5b805181602001fd5b63150b7a0260e01b7bffffffffffffffffffffffffffffffffffffffffffffffffffffffff1916817bffffffffffffffffffffffffffffffffffffffffffffffffffffffff19161491505061238d565b600190505b949350505050565b6060600060016123a484612486565b01905060008167ffffffffffffffff8111156123c3576123c261288f565b5b6040519080825280601f01601f1916602001820160405280156123f55781602001600182028036833780820191505090505b509050600082602001820190505b600115612458578080600190039150507f3031323334353637383961626364656600000000000000000000000000000000600a86061a8153600a858161244c5761244b613a49565b5b04945060008503612403575b819350505050919050565b6000808273ffffffffffffffffffffffffffffffffffffffff163b119050919050565b600080600090507a184f03e93ff9f4daa797ed6e38ed64bf6a1f01000000000000000083106124e4577a184f03e93ff9f4daa797ed6e38ed64bf6a1f01000000000000000083816124da576124d9613a49565b5b0492506040810190505b6d04ee2d6d415b85acef81000000008310612521576d04ee2d6d415b85acef8100000000838161251757612516613a49565b5b0492506020810190505b662386f26fc10000831061255057662386f26fc10000838161254657612545613a49565b5b0492506010810190505b6305f5e1008310612579576305f5e100838161256f5761256e613a49565b5b0492506008810190505b612710831061259e57612710838161259457612593613a49565b5b0492506004810190505b606483106125c157606483816125b7576125b6613a49565b5b0492506002810190505b600a83106125d0576001810190505b80915050919050565b6000604051905090565b600080fd5b600080fd5b60007fffffffff0000000000000000000000000000000000000000000000000000000082169050919050565b612622816125ed565b811461262d57600080fd5b50565b60008135905061263f81612619565b92915050565b60006020828403121561265b5761265a6125e3565b5b600061266984828501612630565b91505092915050565b60008115159050919050565b61268781612672565b82525050565b60006020820190506126a2600083018461267e565b92915050565b600081519050919050565b600082825260208201905092915050565b60005b838110156126e25780820151818401526020810190506126c7565b60008484015250505050565b6000601f19601f8301169050919050565b600061270a826126a8565b61271481856126b3565b93506127248185602086016126c4565b61272d816126ee565b840191505092915050565b6000602082019050818103600083015261275281846126ff565b905092915050565b6000819050919050565b61276d8161275a565b811461277857600080fd5b50565b60008135905061278a81612764565b92915050565b6000602082840312156127a6576127a56125e3565b5b60006127b48482850161277b565b91505092915050565b600073ffffffffffffffffffffffffffffffffffffffff82169050919050565b60006127e8826127bd565b9050919050565b6127f8816127dd565b82525050565b600060208201905061281360008301846127ef565b92915050565b612822816127dd565b811461282d57600080fd5b50565b60008135905061283f81612819565b92915050565b6000806040838503121561285c5761285b6125e3565b5b600061286a85828601612830565b925050602061287b8582860161277b565b9150509250929050565b600080fd5b600080fd5b7f4e487b7100000000000000000000000000000000000000000000000000000000600052604160045260246000fd5b6128c7826126ee565b810181811067ffffffffffffffff821117156128e6576128e561288f565b5b80604052505050565b60006128f96125d9565b905061290582826128be565b919050565b600067ffffffffffffffff8211156129255761292461288f565b5b61292e826126ee565b9050602081019050919050565b82818337600083830152505050565b600061295d6129588461290a565b6128ef565b9050828152602081018484840111156129795761297861288a565b5b61298484828561293b565b509392505050565b600082601f8301126129a1576129a0612885565b5b81356129b184826020860161294a565b91505092915050565b600080600080600060a086880312156129d6576129d56125e3565b5b600086013567ffffffffffffffff8111156129f4576129f36125e8565b5b612a008882890161298c565b955050602086013567ffffffffffffffff811115612a2157612a206125e8565b5b612a2d8882890161298c565b945050604086013567ffffffffffffffff811115612a4e57612a4d6125e8565b5b612a5a8882890161298c565b935050606086013567ffffffffffffffff811115612a7b57612a7a6125e8565b5b612a878882890161298c565b9250506080612a988882890161277b565b9150509295509295909350565b600080600060608486031215612abe57612abd6125e3565b5b6000612acc86828701612830565b9350506020612add86828701612830565b9250506040612aee8682870161277b565b9150509250925092565b600060208284031215612b0e57612b0d6125e3565b5b6000612b1c84828501612830565b91505092915050565b6000604082019050612b3a60008301856127ef565b8181036020830152612b4c81846126ff565b90509392505050565b612b5e8161275a565b82525050565b6000602082019050612b796000830184612b55565b92915050565b612b8881612672565b8114612b9357600080fd5b50565b600081359050612ba581612b7f565b92915050565b60008060408385031215612bc257612bc16125e3565b5b6000612bd085828601612830565b9250506020612be185828601612b96565b9150509250929050565b600060e0820190508181036000830152612c05818a6126ff565b90508181036020830152612c1981896126ff565b90508181036040830152612c2d81886126ff565b90508181036060830152612c4181876126ff565b9050612c506080830186612b55565b81810360a0830152612c6281856126ff565b9050612c7160c083018461267e565b98975050505050505050565b600067ffffffffffffffff821115612c9857612c9761288f565b5b612ca1826126ee565b9050602081019050919050565b6000612cc1612cbc84612c7d565b6128ef565b905082815260208101848484011115612cdd57612cdc61288a565b5b612ce884828561293b565b509392505050565b600082601f830112612d0557612d04612885565b5b8135612d15848260208601612cae565b91505092915050565b60008060008060808587031215612d3857612d376125e3565b5b6000612d4687828801612830565b9450506020612d5787828801612830565b9350506040612d688782880161277b565b925050606085013567ffffffffffffffff811115612d8957612d886125e8565b5b612d9587828801612cf0565b91505092959194509250565b600060a0820190508181036000830152612dbb81886126ff565b90508181036020830152612dcf81876126ff565b90508181036040830152612de381866126ff565b90508181036060830152612df781856126ff565b9050612e066080830184612b55565b9695505050505050565b600080fd5b600080fd5b60008083601f840112612e3057612e2f612885565b5b8235905067ffffffffffffffff811115612e4d57612e4c612e10565b5b602083019150836001820283011115612e6957612e68612e15565b5b9250929050565b600080600060408486031215612e8957612e886125e3565b5b6000612e9786828701612830565b935050602084013567ffffffffffffffff811115612eb857612eb76125e8565b5b612ec486828701612e1a565b92509250509250925092565b60008060408385031215612ee757612ee66125e3565b5b6000612ef585828601612830565b9250506020612f0685828601612830565b9150509250929050565b7f4e487b7100000000000000000000000000000000000000000000000000000000600052602260045260246000fd5b60006002820490506001821680612f5757607f821691505b602082108103612f6a57612f69612f10565b5b50919050565b7f4552433732313a20617070726f76616c20746f2063757272656e74206f776e6560008201527f7200000000000000000000000000000000000000000000000000000000000000602082015250565b6000612fcc6021836126b3565b9150612fd782612f70565b604082019050919050565b60006020820190508181036000830152612ffb81612fbf565b9050919050565b7f4552433732313a20617070726f76652063616c6c6572206973206e6f7420746f60008201527f6b656e206f776e6572206f7220617070726f76656420666f7220616c6c000000602082015250565b600061305e603d836126b3565b915061306982613002565b604082019050919050565b6000602082019050818103600083015261308d81613051565b9050919050565b7f5573657220697320616c72656164792072656769737465726564000000000000600082015250565b60006130ca601a836126b3565b91506130d582613094565b602082019050919050565b600060208201905081810360008301526130f9816130bd565b9050919050565b60008190508160005260206000209050919050565b60006020601f8301049050919050565b600082821b905092915050565b6000600883026131627fffffffffffffffffffffffffffffffffffffffffffffffffffffffffffffffff82613125565b61316c8683613125565b95508019841693508086168417925050509392505050565b6000819050919050565b60006131a96131a461319f8461275a565b613184565b61275a565b9050919050565b6000819050919050565b6131c38361318e565b6131d76131cf826131b0565b848454613132565b825550505050565b600090565b6131ec6131df565b6131f78184846131ba565b505050565b5b8181101561321b576132106000826131e4565b6001810190506131fd565b5050565b601f8211156132605761323181613100565b61323a84613115565b81016020851015613249578190505b61325d61325585613115565b8301826131fc565b50505b505050565b600082821c905092915050565b600061328360001984600802613265565b1980831691505092915050565b600061329c8383613272565b9150826002028217905092915050565b6132b5826126a8565b67ffffffffffffffff8111156132ce576132cd61288f565b5b6132d88254612f3f565b6132e382828561321f565b600060209050601f8311600181146133165760008415613304578287015190505b61330e8582613290565b865550613376565b601f19841661332486613100565b60005b8281101561334c57848901518255600182019150602085019450602081019050613327565b868310156133695784890151613365601f891682613272565b8355505b6001600288020188555050505b505050505050565b7f4552433732313a2063616c6c6572206973206e6f7420746f6b656e206f776e6560008201527f72206f7220617070726f76656400000000000000000000000000000000000000602082015250565b60006133da602d836126b3565b91506133e58261337e565b604082019050919050565b60006020820190508181036000830152613409816133cd565b9050919050565b7f4552433732313a20696e76616c696420746f6b656e2049440000000000000000600082015250565b60006134466018836126b3565b915061345182613410565b602082019050919050565b6000602082019050818103600083015261347581613439565b9050919050565b7f4552433732313a2061646472657373207a65726f206973206e6f74206120766160008201527f6c6964206f776e65720000000000000000000000000000000000000000000000602082015250565b60006134d86029836126b3565b91506134e38261347c565b604082019050919050565b60006020820190508181036000830152613507816134cb565b9050919050565b600081905092915050565b6000613524826126a8565b61352e818561350e565b935061353e8185602086016126c4565b80840191505092915050565b60006135568285613519565b91506135628284613519565b91508190509392505050565b7f55736572206973206e6f74207265676973746572656400000000000000000000600082015250565b60006135a46016836126b3565b91506135af8261356e565b602082019050919050565b600060208201905081810360008301526135d381613597565b9050919050565b7f4552433732313a207472616e736665722066726f6d20696e636f72726563742060008201527f6f776e6572000000000000000000000000000000000000000000000000000000602082015250565b60006136366025836126b3565b9150613641826135da565b604082019050919050565b6000602082019050818103600083015261366581613629565b9050919050565b7f4552433732313a207472616e7366657220746f20746865207a65726f2061646460008201527f7265737300000000000000000000000000000000000000000000000000000000602082015250565b60006136c86024836126b3565b91506136d38261366c565b604082019050919050565b600060208201905081810360008301526136f7816136bb565b9050919050565b7f4552433732313a20617070726f766520746f2063616c6c657200000000000000600082015250565b60006137346019836126b3565b915061373f826136fe565b602082019050919050565b6000602082019050818103600083015261376381613727565b9050919050565b7f4552433732313a207472616e7366657220746f206e6f6e20455243373231526560008201527f63656976657220696d706c656d656e7465720000000000000000000000000000602082015250565b60006137c66032836126b3565b91506137d18261376a565b604082019050919050565b600060208201905081810360008301526137f5816137b9565b9050919050565b7f4552433732313a206d696e7420746f20746865207a65726f2061646472657373600082015250565b60006138326020836126b3565b915061383d826137fc565b602082019050919050565b6000602082019050818103600083015261386181613825565b9050919050565b7f4552433732313a20746f6b656e20616c7265616479206d696e74656400000000600082015250565b600061389e601c836126b3565b91506138a982613868565b602082019050919050565b600060208201905081810360008301526138cd81613891565b9050919050565b7f45524337323155524953746f726167653a2055524920736574206f66206e6f6e60008201527f6578697374656e7420746f6b656e000000000000000000000000000000000000602082015250565b6000613930602e836126b3565b915061393b826138d4565b604082019050919050565b6000602082019050818103600083015261395f81613923565b9050919050565b600081519050919050565b600082825260208201905092915050565b600061398d82613966565b6139978185613971565b93506139a78185602086016126c4565b6139b0816126ee565b840191505092915050565b60006080820190506139d060008301876127ef565b6139dd60208301866127ef565b6139ea6040830185612b55565b81810360608301526139fc8184613982565b905095945050505050565b600081519050613a1681612619565b92915050565b600060208284031215613a3257613a316125e3565b5b6000613a4084828501613a07565b91505092915050565b7f4e487b7100000000000000000000000000000000000000000000000000000000600052601260045260246000fdfea2646970667358221220f3bc1b3f0867420805400f59c5ba14dcd25fcd534ce7380bb591e8da449d870064736f6c63430008130033",
  "immutableReferences": {},
  "source": "// SPDX-License-Identifier: MIT\r\npragma solidity 0.8.19;\r\nimport \"@openzeppelin/contracts/token/ERC721/extensions/ERC721URIStorage.sol\";\r\n\r\ncontract UserRegistration is ERC721URIStorage {\r\n    struct User {\r\n        string name;\r\n        string email;\r\n        string phone;\r\n        string addressuser;\r\n        uint256 pincode;\r\n        string role;\r\n        bool isRegistered;\r\n    }\r\n\r\n    struct Admin {\r\n        address metamask_address;\r\n        string role;\r\n    }\r\n\r\n    mapping(address => User) public users;\r\n    mapping(address => Admin) public admin;\r\n\r\n    event UserRegistered(\r\n        address indexed userAddress,\r\n        string name,\r\n        string email,\r\n        string phone,\r\n        string addressuser,\r\n        uint256 pincode\r\n    );\r\n\r\n    modifier notRegistered() {\r\n        require(!users[msg.sender].isRegistered, \"User is already registered\");\r\n        _;\r\n    }\r\n\r\n     uint256 tokenId ;\r\n    constructor() ERC721(\"PropertyItem\", \"PI\") {\r\n        tokenId = 0;\r\n    }\r\n\r\n    function mint(\r\n        address _to,\r\n        string calldata _uri\r\n    ) external returns (uint256){\r\n        _mint(_to, tokenId);\r\n        _setTokenURI(tokenId, _uri);\r\n        return tokenId;\r\n    }\r\n\r\n    function registerUser(\r\n        string memory _name,\r\n        string memory _email,\r\n        string memory _phone,\r\n        string memory _addressuser,\r\n        uint256 _pincode\r\n    ) external notRegistered {\r\n        // Perform additional validation if needed\r\n\r\n        // Create a new user\r\n        User storage newUser = users[msg.sender];\r\n        newUser.name = _name;\r\n        newUser.email = _email;\r\n        newUser.phone = _phone;\r\n        newUser.addressuser = _addressuser;\r\n        newUser.pincode = _pincode;\r\n        newUser.role = \"user\";\r\n        newUser.isRegistered = true;\r\n\r\n        emit UserRegistered(\r\n            msg.sender,\r\n            _name,\r\n            _email,\r\n            _phone,\r\n            _addressuser,\r\n            _pincode\r\n        );\r\n    }\r\n\r\n    function registerAdmin(address _addressuser) external notRegistered {\r\n        // Perform additional validation if needed\r\n\r\n        // Create a new user\r\n        Admin storage newAdmin = admin[_addressuser];\r\n        newAdmin.role = \"admin\";\r\n    }\r\n\r\n    function getUserDetails(\r\n        address useraddr\r\n    )\r\n        external\r\n        view\r\n        returns (\r\n            string memory,\r\n            string memory,\r\n            string memory,\r\n            string memory,\r\n            uint256\r\n        )\r\n    {\r\n        User storage user = users[useraddr];\r\n        require(user.isRegistered, \"User is not registered\");\r\n\r\n        return (\r\n            user.name,\r\n            user.email,\r\n            user.phone,\r\n            user.addressuser,\r\n            user.pincode\r\n        );\r\n    }\r\n\r\n    function getUserBoolean(address useraddr) external view returns (bool) {\r\n        return users[useraddr].isRegistered;\r\n    }\r\n\r\n    function getUserRole(\r\n        address useraddr\r\n    ) external view returns (string memory) {\r\n        return users[useraddr].role;\r\n    }\r\n}\r\n",
  "sourcePath": "C:\\Users\\USER\\Documents\\vscode\\TSEC_Hackathon\\contracts\\User.sol",
  "compiler": {
    "name": "solc",
    "version": "0.8.19+commit.7dd6d404.Emscripten.clang"
  },
  "schemaVersion": "3.4.13",
  "updatedAt": "2024-01-31T15:57:43.873Z",
  "networkType": "ethereum",
  "devdoc": {
    "events": {
      "Approval(address,address,uint256)": {
        "details": "Emitted when `owner` enables `approved` to manage the `tokenId` token."
      },
      "ApprovalForAll(address,address,bool)": {
        "details": "Emitted when `owner` enables or disables (`approved`) `operator` to manage all of its assets."
      },
      "BatchMetadataUpdate(uint256,uint256)": {
        "details": "This event emits when the metadata of a range of tokens is changed. So that the third-party platforms such as NFT market could timely update the images and related attributes of the NFTs."
      },
      "MetadataUpdate(uint256)": {
        "details": "This event emits when the metadata of a token is changed. So that the third-party platforms such as NFT market could timely update the images and related attributes of the NFT."
      },
      "Transfer(address,address,uint256)": {
        "details": "Emitted when `tokenId` token is transferred from `from` to `to`."
      }
    },
    "kind": "dev",
    "methods": {
      "approve(address,uint256)": {
        "details": "See {IERC721-approve}."
      },
      "balanceOf(address)": {
        "details": "See {IERC721-balanceOf}."
      },
      "getApproved(uint256)": {
        "details": "See {IERC721-getApproved}."
      },
      "isApprovedForAll(address,address)": {
        "details": "See {IERC721-isApprovedForAll}."
      },
      "name()": {
        "details": "See {IERC721Metadata-name}."
      },
      "ownerOf(uint256)": {
        "details": "See {IERC721-ownerOf}."
      },
      "safeTransferFrom(address,address,uint256)": {
        "details": "See {IERC721-safeTransferFrom}."
      },
      "safeTransferFrom(address,address,uint256,bytes)": {
        "details": "See {IERC721-safeTransferFrom}."
      },
      "setApprovalForAll(address,bool)": {
        "details": "See {IERC721-setApprovalForAll}."
      },
      "supportsInterface(bytes4)": {
        "details": "See {IERC165-supportsInterface}"
      },
      "symbol()": {
        "details": "See {IERC721Metadata-symbol}."
      },
      "tokenURI(uint256)": {
        "details": "See {IERC721Metadata-tokenURI}."
      },
      "transferFrom(address,address,uint256)": {
        "details": "See {IERC721-transferFrom}."
      }
    },
    "version": 1
  },
  "userdoc": {
    "kind": "user",
    "methods": {},
    "version": 1
  }
}