{
  "contractName": "UserRegistration",
  "abi": [
    {
      "anonymous": false,
      "inputs": [
        {
          "indexed": true,
          "internalType": "address",
          "name": "userAddress",
          "type": "address"
        },
        {
          "indexed": false,
          "internalType": "string",
          "name": "name",
          "type": "string"
        },
        {
          "indexed": false,
          "internalType": "string",
          "name": "email",
          "type": "string"
        },
        {
          "indexed": false,
          "internalType": "string",
          "name": "phone",
          "type": "string"
        },
        {
          "indexed": false,
          "internalType": "string",
          "name": "addressuser",
          "type": "string"
        },
        {
          "indexed": false,
          "internalType": "uint256",
          "name": "pincode",
          "type": "uint256"
        }
      ],
      "name": "UserRegistered",
      "type": "event"
    },
    {
      "inputs": [
        {
          "internalType": "address",
          "name": "",
          "type": "address"
        }
      ],
      "name": "users",
      "outputs": [
        {
          "internalType": "string",
          "name": "name",
          "type": "string"
        },
        {
          "internalType": "string",
          "name": "email",
          "type": "string"
        },
        {
          "internalType": "string",
          "name": "phone",
          "type": "string"
        },
        {
          "internalType": "string",
          "name": "addressuser",
          "type": "string"
        },
        {
          "internalType": "uint256",
          "name": "pincode",
          "type": "uint256"
        },
        {
          "internalType": "bool",
          "name": "isRegistered",
          "type": "bool"
        }
      ],
      "stateMutability": "view",
      "type": "function",
      "constant": true
    },
    {
      "inputs": [
        {
          "internalType": "string",
          "name": "_name",
          "type": "string"
        },
        {
          "internalType": "string",
          "name": "_email",
          "type": "string"
        },
        {
          "internalType": "string",
          "name": "_phone",
          "type": "string"
        },
        {
          "internalType": "string",
          "name": "_addressuser",
          "type": "string"
        },
        {
          "internalType": "uint256",
          "name": "_pincode",
          "type": "uint256"
        }
      ],
      "name": "registerUser",
      "outputs": [],
      "stateMutability": "nonpayable",
      "type": "function"
    },
    {
      "inputs": [
        {
          "internalType": "address",
          "name": "useraddr",
          "type": "address"
        }
      ],
      "name": "getUserDetails",
      "outputs": [
        {
          "internalType": "string",
          "name": "",
          "type": "string"
        },
        {
          "internalType": "string",
          "name": "",
          "type": "string"
        },
        {
          "internalType": "string",
          "name": "",
          "type": "string"
        },
        {
          "internalType": "string",
          "name": "",
          "type": "string"
        },
        {
          "internalType": "uint256",
          "name": "",
          "type": "uint256"
        }
      ],
      "stateMutability": "view",
      "type": "function",
      "constant": true
    },
    {
      "inputs": [
        {
          "internalType": "address",
          "name": "useraddr",
          "type": "address"
        }
      ],
      "name": "getUserBoolean",
      "outputs": [
        {
          "internalType": "bool",
          "name": "",
          "type": "bool"
        }
      ],
      "stateMutability": "view",
      "type": "function",
      "constant": true
    }
  ],
  "bytecode": "0x608060405234801561001057600080fd5b506110f9806100206000396000f3fe608060405234801561001057600080fd5b506004361061004c5760003560e01c80630c89338a1461005157806346ed7e171461006d578063a87430ba1461009d578063cc3d967b146100d2575b600080fd5b61006b600480360381019061006691906109e7565b610106565b005b61008760048036038101906100829190610b30565b6102a3565b6040516100949190610b78565b60405180910390f35b6100b760048036038101906100b29190610b30565b6102fb565b6040516100c996959493929190610c21565b60405180910390f35b6100ec60048036038101906100e79190610b30565b610564565b6040516100fd959493929190610c9e565b60405180910390f35b6000803373ffffffffffffffffffffffffffffffffffffffff1673ffffffffffffffffffffffffffffffffffffffff16815260200190815260200160002060050160009054906101000a900460ff1615610195576040517f08c379a000000000000000000000000000000000000000000000000000000000815260040161018c90610d59565b60405180910390fd5b60008060003373ffffffffffffffffffffffffffffffffffffffff1673ffffffffffffffffffffffffffffffffffffffff1681526020019081526020016000209050858160000190816101e89190610f85565b50848160010190816101fa9190610f85565b508381600201908161020c9190610f85565b508281600301908161021e9190610f85565b5081816004018190555060018160050160006101000a81548160ff0219169083151502179055503373ffffffffffffffffffffffffffffffffffffffff167fc05e06a7662af94624e0bab99f7e2f85920e9e6386cc11bf02730424077656548787878787604051610293959493929190610c9e565b60405180910390a2505050505050565b60008060008373ffffffffffffffffffffffffffffffffffffffff1673ffffffffffffffffffffffffffffffffffffffff16815260200190815260200160002060050160009054906101000a900460ff169050919050565b600060205280600052604060002060009150905080600001805461031e90610da8565b80601f016020809104026020016040519081016040528092919081815260200182805461034a90610da8565b80156103975780601f1061036c57610100808354040283529160200191610397565b820191906000526020600020905b81548152906001019060200180831161037a57829003601f168201915b5050505050908060010180546103ac90610da8565b80601f01602080910402602001604051908101604052809291908181526020018280546103d890610da8565b80156104255780601f106103fa57610100808354040283529160200191610425565b820191906000526020600020905b81548152906001019060200180831161040857829003601f168201915b50505050509080600201805461043a90610da8565b80601f016020809104026020016040519081016040528092919081815260200182805461046690610da8565b80156104b35780601f10610488576101008083540402835291602001916104b3565b820191906000526020600020905b81548152906001019060200180831161049657829003601f168201915b5050505050908060030180546104c890610da8565b80601f01602080910402602001604051908101604052809291908181526020018280546104f490610da8565b80156105415780601f1061051657610100808354040283529160200191610541565b820191906000526020600020905b81548152906001019060200180831161052457829003601f168201915b5050505050908060040154908060050160009054906101000a900460ff16905086565b6060806060806000806000808873ffffffffffffffffffffffffffffffffffffffff1673ffffffffffffffffffffffffffffffffffffffff16815260200190815260200160002090508060050160009054906101000a900460ff166105fe576040517f08c379a00000000000000000000000000000000000000000000000000000000081526004016105f5906110a3565b60405180910390fd5b80600001816001018260020183600301846004015484805461061f90610da8565b80601f016020809104026020016040519081016040528092919081815260200182805461064b90610da8565b80156106985780601f1061066d57610100808354040283529160200191610698565b820191906000526020600020905b81548152906001019060200180831161067b57829003601f168201915b505050505094508380546106ab90610da8565b80601f01602080910402602001604051908101604052809291908181526020018280546106d790610da8565b80156107245780601f106106f957610100808354040283529160200191610724565b820191906000526020600020905b81548152906001019060200180831161070757829003601f168201915b5050505050935082805461073790610da8565b80601f016020809104026020016040519081016040528092919081815260200182805461076390610da8565b80156107b05780601f10610785576101008083540402835291602001916107b0565b820191906000526020600020905b81548152906001019060200180831161079357829003601f168201915b505050505092508180546107c390610da8565b80601f01602080910402602001604051908101604052809291908181526020018280546107ef90610da8565b801561083c5780601f106108115761010080835404028352916020019161083c565b820191906000526020600020905b81548152906001019060200180831161081f57829003601f168201915b50505050509150955095509550955095505091939590929450565b6000604051905090565b600080fd5b600080fd5b600080fd5b600080fd5b6000601f19601f8301169050919050565b7f4e487b7100000000000000000000000000000000000000000000000000000000600052604160045260246000fd5b6108be82610875565b810181811067ffffffffffffffff821117156108dd576108dc610886565b5b80604052505050565b60006108f0610857565b90506108fc82826108b5565b919050565b600067ffffffffffffffff82111561091c5761091b610886565b5b61092582610875565b9050602081019050919050565b82818337600083830152505050565b600061095461094f84610901565b6108e6565b9050828152602081018484840111156109705761096f610870565b5b61097b848285610932565b509392505050565b600082601f8301126109985761099761086b565b5b81356109a8848260208601610941565b91505092915050565b6000819050919050565b6109c4816109b1565b81146109cf57600080fd5b50565b6000813590506109e1816109bb565b92915050565b600080600080600060a08688031215610a0357610a02610861565b5b600086013567ffffffffffffffff811115610a2157610a20610866565b5b610a2d88828901610983565b955050602086013567ffffffffffffffff811115610a4e57610a4d610866565b5b610a5a88828901610983565b945050604086013567ffffffffffffffff811115610a7b57610a7a610866565b5b610a8788828901610983565b935050606086013567ffffffffffffffff811115610aa857610aa7610866565b5b610ab488828901610983565b9250506080610ac5888289016109d2565b9150509295509295909350565b600073ffffffffffffffffffffffffffffffffffffffff82169050919050565b6000610afd82610ad2565b9050919050565b610b0d81610af2565b8114610b1857600080fd5b50565b600081359050610b2a81610b04565b92915050565b600060208284031215610b4657610b45610861565b5b6000610b5484828501610b1b565b91505092915050565b60008115159050919050565b610b7281610b5d565b82525050565b6000602082019050610b8d6000830184610b69565b92915050565b600081519050919050565b600082825260208201905092915050565b60005b83811015610bcd578082015181840152602081019050610bb2565b60008484015250505050565b6000610be482610b93565b610bee8185610b9e565b9350610bfe818560208601610baf565b610c0781610875565b840191505092915050565b610c1b816109b1565b82525050565b600060c0820190508181036000830152610c3b8189610bd9565b90508181036020830152610c4f8188610bd9565b90508181036040830152610c638187610bd9565b90508181036060830152610c778186610bd9565b9050610c866080830185610c12565b610c9360a0830184610b69565b979650505050505050565b600060a0820190508181036000830152610cb88188610bd9565b90508181036020830152610ccc8187610bd9565b90508181036040830152610ce08186610bd9565b90508181036060830152610cf48185610bd9565b9050610d036080830184610c12565b9695505050505050565b7f5573657220697320616c72656164792072656769737465726564000000000000600082015250565b6000610d43601a83610b9e565b9150610d4e82610d0d565b602082019050919050565b60006020820190508181036000830152610d7281610d36565b9050919050565b7f4e487b7100000000000000000000000000000000000000000000000000000000600052602260045260246000fd5b60006002820490506001821680610dc057607f821691505b602082108103610dd357610dd2610d79565b5b50919050565b60008190508160005260206000209050919050565b60006020601f8301049050919050565b600082821b905092915050565b600060088302610e3b7fffffffffffffffffffffffffffffffffffffffffffffffffffffffffffffffff82610dfe565b610e458683610dfe565b95508019841693508086168417925050509392505050565b6000819050919050565b6000610e82610e7d610e78846109b1565b610e5d565b6109b1565b9050919050565b6000819050919050565b610e9c83610e67565b610eb0610ea882610e89565b848454610e0b565b825550505050565b600090565b610ec5610eb8565b610ed0818484610e93565b505050565b5b81811015610ef457610ee9600082610ebd565b600181019050610ed6565b5050565b601f821115610f3957610f0a81610dd9565b610f1384610dee565b81016020851015610f22578190505b610f36610f2e85610dee565b830182610ed5565b50505b505050565b600082821c905092915050565b6000610f5c60001984600802610f3e565b1980831691505092915050565b6000610f758383610f4b565b9150826002028217905092915050565b610f8e82610b93565b67ffffffffffffffff811115610fa757610fa6610886565b5b610fb18254610da8565b610fbc828285610ef8565b600060209050601f831160018114610fef5760008415610fdd578287015190505b610fe78582610f69565b86555061104f565b601f198416610ffd86610dd9565b60005b8281101561102557848901518255600182019150602085019450602081019050611000565b86831015611042578489015161103e601f891682610f4b565b8355505b6001600288020188555050505b505050505050565b7f55736572206973206e6f74207265676973746572656400000000000000000000600082015250565b600061108d601683610b9e565b915061109882611057565b602082019050919050565b600060208201905081810360008301526110bc81611080565b905091905056fea26469706673582212201f70e182066c12e94c48fa2c0251a4c2da79f17a86ed9f9de4fe27d6b9e2c21664736f6c63430008130033",
  "immutableReferences": {},
  "source": "// SPDX-License-Identifier: MIT\r\npragma solidity 0.8.19;\r\n\r\ncontract UserRegistration {\r\n\r\n    struct User {\r\n        string name;\r\n        string email;\r\n        string phone;\r\n        string addressuser;\r\n        uint256 pincode;\r\n        bool isRegistered;\r\n    }\r\n\r\n    mapping(address => User) public users;\r\n\r\n    event UserRegistered(address indexed userAddress, string name, string email, string phone, string addressuser, uint256 pincode);\r\n\r\n    modifier notRegistered() {\r\n        require(!users[msg.sender].isRegistered, \"User is already registered\");\r\n        _;\r\n    }\r\n\r\n    function registerUser(string memory _name, string memory _email, string memory _phone, string memory _addressuser, uint256 _pincode) external notRegistered {\r\n        // Perform additional validation if needed\r\n\r\n        // Create a new user\r\n        User storage newUser = users[msg.sender];\r\n        newUser.name = _name;\r\n        newUser.email = _email;\r\n        newUser.phone = _phone;\r\n        newUser.addressuser = _addressuser;\r\n        newUser.pincode = _pincode;\r\n        newUser.isRegistered = true;\r\n\r\n        emit UserRegistered(msg.sender, _name, _email, _phone, _addressuser, _pincode);\r\n    }\r\n\r\n    function getUserDetails(address useraddr) external view returns (string memory, string memory, string memory, string memory, uint256) {\r\n        User storage user = users[useraddr];\r\n        require(user.isRegistered, \"User is not registered\");\r\n\r\n        return (user.name, user.email, user.phone, user.addressuser, user.pincode);\r\n    }\r\n\r\n    function getUserBoolean(address useraddr) external view returns (bool) {\r\n        return users[useraddr].isRegistered;\r\n    }\r\n\r\n}\r\n",
  "sourcePath": "D:\\USER DATA\\Desktop\\TSEC_Hackathon\\TSEC_Hackathon\\contracts\\User.sol",
  "compiler": {
    "name": "solc",
    "version": "0.8.19+commit.7dd6d404.Emscripten.clang"
  },
  "schemaVersion": "3.4.16",
  "updatedAt": "2024-01-31T08:05:09.213Z",
  "networkType": "ethereum",
  "devdoc": {
    "kind": "dev",
    "methods": {},
    "version": 1
  },
  "userdoc": {
    "kind": "user",
    "methods": {},
    "version": 1
  }
}