{
  "contractName": "UserRegistration",
  "abi": [
    {
      "anonymous": false,
      "inputs": [
        {
          "indexed": true,
          "internalType": "address",
          "name": "userAddress",
          "type": "address"
        },
        {
          "indexed": false,
          "internalType": "string",
          "name": "name",
          "type": "string"
        },
        {
          "indexed": false,
          "internalType": "string",
          "name": "email",
          "type": "string"
        },
        {
          "indexed": false,
          "internalType": "string",
          "name": "phone",
          "type": "string"
        },
        {
          "indexed": false,
          "internalType": "string",
          "name": "addressuser",
          "type": "string"
        },
        {
          "indexed": false,
          "internalType": "uint256",
          "name": "pincode",
          "type": "uint256"
        }
      ],
      "name": "UserRegistered",
      "type": "event"
    },
    {
      "inputs": [
        {
          "internalType": "address",
          "name": "",
          "type": "address"
        }
      ],
      "name": "users",
      "outputs": [
        {
          "internalType": "string",
          "name": "name",
          "type": "string"
        },
        {
          "internalType": "string",
          "name": "email",
          "type": "string"
        },
        {
          "internalType": "string",
          "name": "phone",
          "type": "string"
        },
        {
          "internalType": "string",
          "name": "addressuser",
          "type": "string"
        },
        {
          "internalType": "uint256",
          "name": "pincode",
          "type": "uint256"
        },
        {
          "internalType": "string",
          "name": "role",
          "type": "string"
        },
        {
          "internalType": "bool",
          "name": "isRegistered",
          "type": "bool"
        }
      ],
      "stateMutability": "view",
      "type": "function"
    },
    {
      "inputs": [
        {
          "internalType": "string",
          "name": "_name",
          "type": "string"
        },
        {
          "internalType": "string",
          "name": "_email",
          "type": "string"
        },
        {
          "internalType": "string",
          "name": "_phone",
          "type": "string"
        },
        {
          "internalType": "string",
          "name": "_addressuser",
          "type": "string"
        },
        {
          "internalType": "uint256",
          "name": "_pincode",
          "type": "uint256"
        }
      ],
      "name": "registerUser",
      "outputs": [],
      "stateMutability": "nonpayable",
      "type": "function"
    },
    {
      "inputs": [
        {
          "internalType": "string",
          "name": "_name",
          "type": "string"
        },
        {
          "internalType": "string",
          "name": "_email",
          "type": "string"
        },
        {
          "internalType": "string",
          "name": "_phone",
          "type": "string"
        },
        {
          "internalType": "string",
          "name": "_addressuser",
          "type": "string"
        },
        {
          "internalType": "uint256",
          "name": "_pincode",
          "type": "uint256"
        }
      ],
      "name": "registerAdmin",
      "outputs": [],
      "stateMutability": "nonpayable",
      "type": "function"
    },
    {
      "inputs": [
        {
          "internalType": "address",
          "name": "useraddr",
          "type": "address"
        }
      ],
      "name": "getUserDetails",
      "outputs": [
        {
          "internalType": "string",
          "name": "",
          "type": "string"
        },
        {
          "internalType": "string",
          "name": "",
          "type": "string"
        },
        {
          "internalType": "string",
          "name": "",
          "type": "string"
        },
        {
          "internalType": "string",
          "name": "",
          "type": "string"
        },
        {
          "internalType": "uint256",
          "name": "",
          "type": "uint256"
        }
      ],
      "stateMutability": "view",
      "type": "function"
    },
    {
      "inputs": [
        {
          "internalType": "address",
          "name": "useraddr",
          "type": "address"
        }
      ],
      "name": "getUserBoolean",
      "outputs": [
        {
          "internalType": "bool",
          "name": "",
          "type": "bool"
        }
      ],
      "stateMutability": "view",
      "type": "function"
    },
    {
      "inputs": [
        {
          "internalType": "address",
          "name": "useraddr",
          "type": "address"
        }
      ],
      "name": "getUserRole",
      "outputs": [
        {
          "internalType": "string",
          "name": "",
          "type": "string"
        }
      ],
      "stateMutability": "view",
      "type": "function"
    }
  ],
  "bytecode": "0x608060405234801561001057600080fd5b5061151f806100206000396000f3fe608060405234801561001057600080fd5b50600436106100625760003560e01c80630c89338a14610067578063278208511461008357806346ed7e17146100b357806347747893146100e3578063a87430ba146100ff578063cc3d967b14610135575b600080fd5b610081600480360381019061007c9190610dd6565b610169565b005b61009d60048036038101906100989190610f1f565b61034d565b6040516100aa9190610fcb565b60405180910390f35b6100cd60048036038101906100c89190610f1f565b610420565b6040516100da9190611008565b60405180910390f35b6100fd60048036038101906100f89190610dd6565b610478565b005b61011960048036038101906101149190610f1f565b61065c565b60405161012c9796959493929190611032565b60405180910390f35b61014f600480360381019061014a9190610f1f565b610953565b6040516101609594939291906110c4565b60405180910390f35b6000803373ffffffffffffffffffffffffffffffffffffffff1673ffffffffffffffffffffffffffffffffffffffff16815260200190815260200160002060060160009054906101000a900460ff16156101f8576040517f08c379a00000000000000000000000000000000000000000000000000000000081526004016101ef9061117f565b60405180910390fd5b60008060003373ffffffffffffffffffffffffffffffffffffffff1673ffffffffffffffffffffffffffffffffffffffff16815260200190815260200160002090508581600001908161024b91906113ab565b508481600101908161025d91906113ab565b508381600201908161026f91906113ab565b508281600301908161028191906113ab565b508181600401819055506040518060400160405280600481526020017f75736572000000000000000000000000000000000000000000000000000000008152508160050190816102d191906113ab565b5060018160060160006101000a81548160ff0219169083151502179055503373ffffffffffffffffffffffffffffffffffffffff167fc05e06a7662af94624e0bab99f7e2f85920e9e6386cc11bf0273042407765654878787878760405161033d9594939291906110c4565b60405180910390a2505050505050565b60606000808373ffffffffffffffffffffffffffffffffffffffff1673ffffffffffffffffffffffffffffffffffffffff168152602001908152602001600020600501805461039b906111ce565b80601f01602080910402602001604051908101604052809291908181526020018280546103c7906111ce565b80156104145780601f106103e957610100808354040283529160200191610414565b820191906000526020600020905b8154815290600101906020018083116103f757829003601f168201915b50505050509050919050565b60008060008373ffffffffffffffffffffffffffffffffffffffff1673ffffffffffffffffffffffffffffffffffffffff16815260200190815260200160002060060160009054906101000a900460ff169050919050565b6000803373ffffffffffffffffffffffffffffffffffffffff1673ffffffffffffffffffffffffffffffffffffffff16815260200190815260200160002060060160009054906101000a900460ff1615610507576040517f08c379a00000000000000000000000000000000000000000000000000000000081526004016104fe9061117f565b60405180910390fd5b60008060003373ffffffffffffffffffffffffffffffffffffffff1673ffffffffffffffffffffffffffffffffffffffff16815260200190815260200160002090508581600001908161055a91906113ab565b508481600101908161056c91906113ab565b508381600201908161057e91906113ab565b508281600301908161059091906113ab565b508181600401819055506040518060400160405280600581526020017f61646d696e0000000000000000000000000000000000000000000000000000008152508160050190816105e091906113ab565b5060018160060160006101000a81548160ff0219169083151502179055503373ffffffffffffffffffffffffffffffffffffffff167fc05e06a7662af94624e0bab99f7e2f85920e9e6386cc11bf0273042407765654878787878760405161064c9594939291906110c4565b60405180910390a2505050505050565b600060205280600052604060002060009150905080600001805461067f906111ce565b80601f01602080910402602001604051908101604052809291908181526020018280546106ab906111ce565b80156106f85780601f106106cd576101008083540402835291602001916106f8565b820191906000526020600020905b8154815290600101906020018083116106db57829003601f168201915b50505050509080600101805461070d906111ce565b80601f0160208091040260200160405190810160405280929190818152602001828054610739906111ce565b80156107865780601f1061075b57610100808354040283529160200191610786565b820191906000526020600020905b81548152906001019060200180831161076957829003601f168201915b50505050509080600201805461079b906111ce565b80601f01602080910402602001604051908101604052809291908181526020018280546107c7906111ce565b80156108145780601f106107e957610100808354040283529160200191610814565b820191906000526020600020905b8154815290600101906020018083116107f757829003601f168201915b505050505090806003018054610829906111ce565b80601f0160208091040260200160405190810160405280929190818152602001828054610855906111ce565b80156108a25780601f10610877576101008083540402835291602001916108a2565b820191906000526020600020905b81548152906001019060200180831161088557829003601f168201915b5050505050908060040154908060050180546108bd906111ce565b80601f01602080910402602001604051908101604052809291908181526020018280546108e9906111ce565b80156109365780601f1061090b57610100808354040283529160200191610936565b820191906000526020600020905b81548152906001019060200180831161091957829003601f168201915b5050505050908060060160009054906101000a900460ff16905087565b6060806060806000806000808873ffffffffffffffffffffffffffffffffffffffff1673ffffffffffffffffffffffffffffffffffffffff16815260200190815260200160002090508060060160009054906101000a900460ff166109ed576040517f08c379a00000000000000000000000000000000000000000000000000000000081526004016109e4906114c9565b60405180910390fd5b806000018160010182600201836003018460040154848054610a0e906111ce565b80601f0160208091040260200160405190810160405280929190818152602001828054610a3a906111ce565b8015610a875780601f10610a5c57610100808354040283529160200191610a87565b820191906000526020600020905b815481529060010190602001808311610a6a57829003601f168201915b50505050509450838054610a9a906111ce565b80601f0160208091040260200160405190810160405280929190818152602001828054610ac6906111ce565b8015610b135780601f10610ae857610100808354040283529160200191610b13565b820191906000526020600020905b815481529060010190602001808311610af657829003601f168201915b50505050509350828054610b26906111ce565b80601f0160208091040260200160405190810160405280929190818152602001828054610b52906111ce565b8015610b9f5780601f10610b7457610100808354040283529160200191610b9f565b820191906000526020600020905b815481529060010190602001808311610b8257829003601f168201915b50505050509250818054610bb2906111ce565b80601f0160208091040260200160405190810160405280929190818152602001828054610bde906111ce565b8015610c2b5780601f10610c0057610100808354040283529160200191610c2b565b820191906000526020600020905b815481529060010190602001808311610c0e57829003601f168201915b50505050509150955095509550955095505091939590929450565b6000604051905090565b600080fd5b600080fd5b600080fd5b600080fd5b6000601f19601f8301169050919050565b7f4e487b7100000000000000000000000000000000000000000000000000000000600052604160045260246000fd5b610cad82610c64565b810181811067ffffffffffffffff82111715610ccc57610ccb610c75565b5b80604052505050565b6000610cdf610c46565b9050610ceb8282610ca4565b919050565b600067ffffffffffffffff821115610d0b57610d0a610c75565b5b610d1482610c64565b9050602081019050919050565b82818337600083830152505050565b6000610d43610d3e84610cf0565b610cd5565b905082815260208101848484011115610d5f57610d5e610c5f565b5b610d6a848285610d21565b509392505050565b600082601f830112610d8757610d86610c5a565b5b8135610d97848260208601610d30565b91505092915050565b6000819050919050565b610db381610da0565b8114610dbe57600080fd5b50565b600081359050610dd081610daa565b92915050565b600080600080600060a08688031215610df257610df1610c50565b5b600086013567ffffffffffffffff811115610e1057610e0f610c55565b5b610e1c88828901610d72565b955050602086013567ffffffffffffffff811115610e3d57610e3c610c55565b5b610e4988828901610d72565b945050604086013567ffffffffffffffff811115610e6a57610e69610c55565b5b610e7688828901610d72565b935050606086013567ffffffffffffffff811115610e9757610e96610c55565b5b610ea388828901610d72565b9250506080610eb488828901610dc1565b9150509295509295909350565b600073ffffffffffffffffffffffffffffffffffffffff82169050919050565b6000610eec82610ec1565b9050919050565b610efc81610ee1565b8114610f0757600080fd5b50565b600081359050610f1981610ef3565b92915050565b600060208284031215610f3557610f34610c50565b5b6000610f4384828501610f0a565b91505092915050565b600081519050919050565b600082825260208201905092915050565b60005b83811015610f86578082015181840152602081019050610f6b565b60008484015250505050565b6000610f9d82610f4c565b610fa78185610f57565b9350610fb7818560208601610f68565b610fc081610c64565b840191505092915050565b60006020820190508181036000830152610fe58184610f92565b905092915050565b60008115159050919050565b61100281610fed565b82525050565b600060208201905061101d6000830184610ff9565b92915050565b61102c81610da0565b82525050565b600060e082019050818103600083015261104c818a610f92565b905081810360208301526110608189610f92565b905081810360408301526110748188610f92565b905081810360608301526110888187610f92565b90506110976080830186611023565b81810360a08301526110a98185610f92565b90506110b860c0830184610ff9565b98975050505050505050565b600060a08201905081810360008301526110de8188610f92565b905081810360208301526110f28187610f92565b905081810360408301526111068186610f92565b9050818103606083015261111a8185610f92565b90506111296080830184611023565b9695505050505050565b7f5573657220697320616c72656164792072656769737465726564000000000000600082015250565b6000611169601a83610f57565b915061117482611133565b602082019050919050565b600060208201905081810360008301526111988161115c565b9050919050565b7f4e487b7100000000000000000000000000000000000000000000000000000000600052602260045260246000fd5b600060028204905060018216806111e657607f821691505b6020821081036111f9576111f861119f565b5b50919050565b60008190508160005260206000209050919050565b60006020601f8301049050919050565b600082821b905092915050565b6000600883026112617fffffffffffffffffffffffffffffffffffffffffffffffffffffffffffffffff82611224565b61126b8683611224565b95508019841693508086168417925050509392505050565b6000819050919050565b60006112a86112a361129e84610da0565b611283565b610da0565b9050919050565b6000819050919050565b6112c28361128d565b6112d66112ce826112af565b848454611231565b825550505050565b600090565b6112eb6112de565b6112f68184846112b9565b505050565b5b8181101561131a5761130f6000826112e3565b6001810190506112fc565b5050565b601f82111561135f57611330816111ff565b61133984611214565b81016020851015611348578190505b61135c61135485611214565b8301826112fb565b50505b505050565b600082821c905092915050565b600061138260001984600802611364565b1980831691505092915050565b600061139b8383611371565b9150826002028217905092915050565b6113b482610f4c565b67ffffffffffffffff8111156113cd576113cc610c75565b5b6113d782546111ce565b6113e282828561131e565b600060209050601f8311600181146114155760008415611403578287015190505b61140d858261138f565b865550611475565b601f198416611423866111ff565b60005b8281101561144b57848901518255600182019150602085019450602081019050611426565b868310156114685784890151611464601f891682611371565b8355505b6001600288020188555050505b505050505050565b7f55736572206973206e6f74207265676973746572656400000000000000000000600082015250565b60006114b3601683610f57565b91506114be8261147d565b602082019050919050565b600060208201905081810360008301526114e2816114a6565b905091905056fea2646970667358221220525d0a352c6e0e0e9dcdfd6ab361e7dca7483989ccd1bb59f31edf3893772f6764736f6c63430008130033",
  "immutableReferences": {},
  "source": "// SPDX-License-Identifier: MIT\r\npragma solidity ^0.8.0;\r\n\r\ncontract UserRegistration {\r\n\r\n    struct User {\r\n        string name;\r\n        string email;\r\n        string phone;\r\n        string addressuser;\r\n        uint256 pincode;\r\n        string role;\r\n        bool isRegistered;\r\n    }\r\n\r\n    mapping(address => User) public users;\r\n\r\n    event UserRegistered(address indexed userAddress, string name, string email, string phone, string addressuser, uint256 pincode);\r\n\r\n    modifier notRegistered() {\r\n        require(!users[msg.sender].isRegistered, \"User is already registered\");\r\n        _;\r\n    }\r\n\r\n    function registerUser(string memory _name, string memory _email, string memory _phone, string memory _addressuser, uint256 _pincode) external notRegistered {\r\n        // Perform additional validation if needed\r\n\r\n        // Create a new user\r\n        User storage newUser = users[msg.sender];\r\n        newUser.name = _name;\r\n        newUser.email = _email;\r\n        newUser.phone = _phone;\r\n        newUser.addressuser = _addressuser;\r\n        newUser.pincode = _pincode;\r\n        newUser.role = \"user\";\r\n        newUser.isRegistered = true;\r\n\r\n        emit UserRegistered(msg.sender, _name, _email, _phone, _addressuser, _pincode);\r\n    }\r\n\r\n    function registerAdmin(string memory _name, string memory _email, string memory _phone, string memory _addressuser, uint256 _pincode) external notRegistered {\r\n        // Perform additional validation if needed\r\n\r\n        // Create a new user\r\n        User storage newUser = users[msg.sender];\r\n        newUser.name = _name;\r\n        newUser.email = _email;\r\n        newUser.phone = _phone;\r\n        newUser.addressuser = _addressuser;\r\n        newUser.pincode = _pincode;\r\n        newUser.role = \"admin\";\r\n        newUser.isRegistered = true;\r\n\r\n        emit UserRegistered(msg.sender, _name, _email, _phone, _addressuser, _pincode);\r\n    }\r\n\r\n    function getUserDetails(address useraddr) external view returns (string memory, string memory, string memory, string memory, uint256) {\r\n        User storage user = users[useraddr];\r\n        require(user.isRegistered, \"User is not registered\");\r\n\r\n        return (user.name, user.email, user.phone, user.addressuser, user.pincode);\r\n    }\r\n\r\n    function getUserBoolean(address useraddr) external view returns (bool) {\r\n        return users[useraddr].isRegistered;\r\n    }\r\n\r\n    function getUserRole(address useraddr) external view returns(string memory){\r\n        return users[useraddr].role;\r\n    }\r\n\r\n}\r\n",
  "sourcePath": "C:\\Users\\Sankalp Rane\\TSEC_Hackathon\\contracts\\User.sol",
  "compiler": {
    "name": "solc",
    "version": "0.8.19+commit.7dd6d404.Emscripten.clang"
  },
  "schemaVersion": "3.4.16",
  "updatedAt": "2024-01-31T10:52:18.781Z",
  "devdoc": {
    "kind": "dev",
    "methods": {},
    "version": 1
  },
  "userdoc": {
    "kind": "user",
    "methods": {},
    "version": 1
  }
}